{
  "contractName": "AntiqueStore",
  "abi": [
    {
      "inputs": [],
      "stateMutability": "nonpayable",
      "type": "constructor"
    },
    {
      "anonymous": false,
      "inputs": [
        {
          "indexed": true,
          "internalType": "uint256",
          "name": "antiqueId",
          "type": "uint256"
        },
        {
          "indexed": true,
          "internalType": "address",
          "name": "highestBidder",
          "type": "address"
        },
        {
          "indexed": true,
          "internalType": "uint256",
          "name": "highestBid",
          "type": "uint256"
        },
        {
          "indexed": false,
          "internalType": "address",
          "name": "royaltyReceiver",
          "type": "address"
        },
        {
          "indexed": false,
          "internalType": "uint256",
          "name": "royaltyAmount",
          "type": "uint256"
        }
      ],
      "name": "AuctionEnded",
      "type": "event"
    },
    {
      "anonymous": false,
      "inputs": [
        {
          "indexed": true,
          "internalType": "uint256",
          "name": "antiqueId",
          "type": "uint256"
        }
      ],
      "name": "DeleteAntique",
      "type": "event"
    },
    {
      "anonymous": false,
      "inputs": [
        {
          "indexed": true,
          "internalType": "uint256",
          "name": "antiqueId",
          "type": "uint256"
        },
        {
          "indexed": true,
          "internalType": "address",
          "name": "nftContract",
          "type": "address"
        },
        {
          "indexed": true,
          "internalType": "uint256",
          "name": "tokenId",
          "type": "uint256"
        }
      ],
      "name": "NewAntique",
      "type": "event"
    },
    {
      "anonymous": false,
      "inputs": [
        {
          "indexed": true,
          "internalType": "uint256",
          "name": "antiqueId",
          "type": "uint256"
        },
        {
          "indexed": true,
          "internalType": "address",
          "name": "bidder",
          "type": "address"
        },
        {
          "indexed": true,
          "internalType": "uint256",
          "name": "amount",
          "type": "uint256"
        }
      ],
      "name": "NewBid",
      "type": "event"
    },
    {
      "anonymous": false,
      "inputs": [
        {
          "indexed": true,
          "internalType": "uint256",
          "name": "antiqueId",
          "type": "uint256"
        },
        {
          "indexed": true,
          "internalType": "address",
          "name": "bidder",
          "type": "address"
        },
        {
          "indexed": true,
          "internalType": "uint256",
          "name": "amount",
          "type": "uint256"
        }
      ],
      "name": "NewWithdrawal",
      "type": "event"
    },
    {
      "inputs": [],
      "name": "antiqueId",
      "outputs": [
        {
          "internalType": "uint256",
          "name": "",
          "type": "uint256"
        }
      ],
      "stateMutability": "view",
      "type": "function",
      "constant": true
    },
    {
      "inputs": [
        {
          "internalType": "uint256",
          "name": "",
          "type": "uint256"
        },
        {
          "internalType": "address",
          "name": "",
          "type": "address"
        }
      ],
      "name": "antiquePendingReturns",
      "outputs": [
        {
          "internalType": "uint256",
          "name": "",
          "type": "uint256"
        }
      ],
      "stateMutability": "view",
      "type": "function",
      "constant": true
    },
    {
      "inputs": [
        {
          "internalType": "uint256",
          "name": "",
          "type": "uint256"
        }
      ],
      "name": "antiques",
      "outputs": [
        {
          "internalType": "uint256",
          "name": "id",
          "type": "uint256"
        },
        {
          "internalType": "uint256",
          "name": "tokenId",
          "type": "uint256"
        },
        {
          "internalType": "uint256",
          "name": "startingPrice",
          "type": "uint256"
        },
        {
          "internalType": "uint256",
          "name": "reservePrice",
          "type": "uint256"
        },
        {
          "internalType": "uint256",
          "name": "highestBid",
          "type": "uint256"
        },
        {
          "internalType": "address",
          "name": "highestBidder",
          "type": "address"
        },
        {
          "internalType": "address",
          "name": "owner",
          "type": "address"
        },
        {
          "internalType": "uint256",
          "name": "auctionEndTime",
          "type": "uint256"
        },
        {
          "internalType": "bool",
          "name": "forSale",
          "type": "bool"
        },
        {
          "internalType": "string",
          "name": "tokenURI",
          "type": "string"
        },
        {
          "internalType": "bool",
          "name": "auctionEnded",
          "type": "bool"
        }
      ],
      "stateMutability": "view",
      "type": "function",
      "constant": true
    },
    {
      "inputs": [],
      "name": "contractOwner",
      "outputs": [
        {
          "internalType": "address",
          "name": "",
          "type": "address"
        }
      ],
      "stateMutability": "view",
      "type": "function",
      "constant": true
    },
    {
      "inputs": [],
      "name": "nftContract",
      "outputs": [
        {
          "internalType": "address",
          "name": "",
          "type": "address"
        }
      ],
      "stateMutability": "view",
      "type": "function",
      "constant": true
    },
    {
      "inputs": [
        {
          "internalType": "address",
          "name": "_nftContract",
          "type": "address"
        }
      ],
      "name": "NFTContractDeployed",
      "outputs": [
        {
          "internalType": "bool",
          "name": "",
          "type": "bool"
        }
      ],
      "stateMutability": "nonpayable",
      "type": "function"
    },
    {
      "inputs": [
        {
          "internalType": "bool",
          "name": "forSaleOnly",
          "type": "bool"
        }
      ],
      "name": "getAntiques",
      "outputs": [
        {
          "components": [
            {
              "internalType": "uint256",
              "name": "id",
              "type": "uint256"
            },
            {
              "internalType": "uint256",
              "name": "tokenId",
              "type": "uint256"
            },
            {
              "internalType": "uint256",
              "name": "startingPrice",
              "type": "uint256"
            },
            {
              "internalType": "uint256",
              "name": "reservePrice",
              "type": "uint256"
            },
            {
              "internalType": "uint256",
              "name": "highestBid",
              "type": "uint256"
            },
            {
              "internalType": "address",
              "name": "highestBidder",
              "type": "address"
            },
            {
              "internalType": "address",
              "name": "owner",
              "type": "address"
            },
            {
              "internalType": "uint256",
              "name": "auctionEndTime",
              "type": "uint256"
            },
            {
              "internalType": "bool",
              "name": "forSale",
              "type": "bool"
            },
            {
              "internalType": "string",
              "name": "tokenURI",
              "type": "string"
            },
            {
              "internalType": "bool",
              "name": "auctionEnded",
              "type": "bool"
            }
          ],
          "internalType": "struct AntiqueStore.Antique[]",
          "name": "",
          "type": "tuple[]"
        }
      ],
      "stateMutability": "view",
      "type": "function",
      "constant": true
    },
    {
      "inputs": [
        {
          "internalType": "string",
          "name": "tokenURI",
          "type": "string"
        },
        {
          "internalType": "uint256",
          "name": "startingPrice",
          "type": "uint256"
        },
        {
          "internalType": "uint256",
          "name": "reservePrice",
          "type": "uint256"
        },
        {
          "internalType": "uint256",
          "name": "royaltyValue",
          "type": "uint256"
        },
        {
          "internalType": "uint256",
          "name": "auctionEndTime",
          "type": "uint256"
        }
      ],
      "name": "sellAntique",
      "outputs": [
        {
          "internalType": "bool",
          "name": "success",
          "type": "bool"
        }
      ],
      "stateMutability": "nonpayable",
      "type": "function"
    },
    {
      "inputs": [
        {
          "internalType": "uint256",
          "name": "_antiqueId",
          "type": "uint256"
        }
      ],
      "name": "bidAntique",
      "outputs": [
        {
          "internalType": "bool",
          "name": "",
          "type": "bool"
        }
      ],
      "stateMutability": "payable",
      "type": "function",
      "payable": true
    },
    {
      "inputs": [],
      "name": "getMyBids",
      "outputs": [
        {
          "components": [
            {
              "internalType": "uint256",
              "name": "id",
              "type": "uint256"
            },
            {
              "internalType": "uint256",
              "name": "tokenId",
              "type": "uint256"
            },
            {
              "internalType": "uint256",
              "name": "startingPrice",
              "type": "uint256"
            },
            {
              "internalType": "uint256",
              "name": "reservePrice",
              "type": "uint256"
            },
            {
              "internalType": "uint256",
              "name": "highestBid",
              "type": "uint256"
            },
            {
              "internalType": "address",
              "name": "highestBidder",
              "type": "address"
            },
            {
              "internalType": "address",
              "name": "owner",
              "type": "address"
            },
            {
              "internalType": "uint256",
              "name": "auctionEndTime",
              "type": "uint256"
            },
            {
              "internalType": "bool",
              "name": "forSale",
              "type": "bool"
            },
            {
              "internalType": "string",
              "name": "tokenURI",
              "type": "string"
            },
            {
              "internalType": "bool",
              "name": "auctionEnded",
              "type": "bool"
            }
          ],
          "internalType": "struct AntiqueStore.Antique[]",
          "name": "",
          "type": "tuple[]"
        }
      ],
      "stateMutability": "view",
      "type": "function",
      "constant": true
    },
    {
      "inputs": [
        {
          "internalType": "uint256",
          "name": "_antiqueId",
          "type": "uint256"
        }
      ],
      "name": "endAuction",
      "outputs": [
        {
          "internalType": "address",
          "name": "royaltyReceiver",
          "type": "address"
        },
        {
          "internalType": "uint256",
          "name": "royaltyAmount",
          "type": "uint256"
        }
      ],
      "stateMutability": "nonpayable",
      "type": "function"
    },
    {
      "inputs": [
        {
          "internalType": "uint256",
          "name": "_antiqueId",
          "type": "uint256"
        }
      ],
      "name": "endAntiqueAuction",
      "outputs": [
        {
          "internalType": "address",
          "name": "",
          "type": "address"
        },
        {
          "internalType": "address",
          "name": "",
          "type": "address"
        },
        {
          "internalType": "uint256",
          "name": "",
          "type": "uint256"
        },
        {
          "internalType": "address",
          "name": "",
          "type": "address"
        },
        {
          "internalType": "uint256",
          "name": "",
          "type": "uint256"
        }
      ],
      "stateMutability": "nonpayable",
      "type": "function"
    },
    {
      "inputs": [
        {
          "internalType": "uint256",
          "name": "_antiqueId",
          "type": "uint256"
        }
      ],
      "name": "withdraw",
      "outputs": [
        {
          "internalType": "bool",
          "name": "",
          "type": "bool"
        }
      ],
      "stateMutability": "payable",
      "type": "function",
      "payable": true
    },
    {
      "inputs": [
        {
          "internalType": "uint256",
          "name": "_antiqueId",
          "type": "uint256"
        },
        {
          "internalType": "uint256",
          "name": "startingPrice",
          "type": "uint256"
        },
        {
          "internalType": "uint256",
          "name": "reservePrice",
          "type": "uint256"
        },
        {
          "internalType": "uint256",
          "name": "auctionEndTime",
          "type": "uint256"
        }
      ],
      "name": "resellAntique",
      "outputs": [
        {
          "internalType": "bool",
          "name": "success",
          "type": "bool"
        }
      ],
      "stateMutability": "nonpayable",
      "type": "function"
    },
    {
      "inputs": [
        {
          "internalType": "uint256",
          "name": "_antiqueId",
          "type": "uint256"
        }
      ],
      "name": "deleteAntique",
      "outputs": [
        {
          "internalType": "bool",
          "name": "success",
          "type": "bool"
        }
      ],
      "stateMutability": "nonpayable",
      "type": "function"
    }
  ],
  "bytecode": "0x608060405234801561001057600080fd5b5033600160006101000a81548173ffffffffffffffffffffffffffffffffffffffff021916908373ffffffffffffffffffffffffffffffffffffffff1602179055506137b9806100616000396000f3fe6080604052600436106100b85760003560e01c80632e1a7d4d146100bd57806337cc7c18146100ed57806337e402f11461012e5780633850a13b1461016b5780633c2d61fe1461019b578063434d0926146101d85780634ad7eab4146102155780634ddbf65e14610252578063788077a71461028f5780638c913171146102ba578063b9a2de3a146102e5578063cd1af4e714610323578063ce606ee01461036a578063d56d229d14610395578063e3b547a4146103c0575b600080fd5b6100d760048036038101906100d29190612970565b6103fd565b6040516100e49190612f62565b60405180910390f35b3480156100f957600080fd5b50610114600480360381019061010f9190612970565b6105a6565b604051610125959493929190612e78565b60405180910390f35b34801561013a57600080fd5b50610155600480360381019061015091906128b8565b6107c3565b6040516101629190612f40565b60405180910390f35b61018560048036038101906101809190612970565b610cc5565b6040516101929190612f62565b60405180910390f35b3480156101a757600080fd5b506101c260048036038101906101bd91906128e1565b610cd8565b6040516101cf9190612f62565b60405180910390f35b3480156101e457600080fd5b506101ff60048036038101906101fa91906129fe565b610dcf565b60405161020c9190612f62565b60405180910390f35b34801561022157600080fd5b5061023c60048036038101906102379190612970565b61101d565b6040516102499190612f62565b60405180910390f35b34801561025e57600080fd5b50610279600480360381019061027491906129c2565b61113d565b60405161028691906130dd565b60405180910390f35b34801561029b57600080fd5b506102a4611162565b6040516102b19190612f40565b60405180910390f35b3480156102c657600080fd5b506102cf6117fe565b6040516102dc91906130dd565b60405180910390f35b3480156102f157600080fd5b5061030c60048036038101906103079190612970565b611804565b60405161031a929190612f17565b60405180910390f35b34801561032f57600080fd5b5061034a60048036038101906103459190612970565b61181b565b6040516103619b9a99989796959493929190613121565b60405180910390f35b34801561037657600080fd5b5061037f611957565b60405161038c9190612e26565b60405180910390f35b3480156103a157600080fd5b506103aa61197d565b6040516103b79190612e26565b60405180910390f35b3480156103cc57600080fd5b506103e760048036038101906103e29190612853565b6119a1565b6040516103f49190612f62565b60405180910390f35b60008060036000848152602001908152602001600020905080600a0160009054906101000a900460ff16610466576040517f08c379a000000000000000000000000000000000000000000000000000000000815260040161045d90612f7d565b60405180910390fd5b600060046000858152602001908152602001600020905060008160003373ffffffffffffffffffffffffffffffffffffffff1673ffffffffffffffffffffffffffffffffffffffff16815260200190815260200160002054905060008111156105555760008260003373ffffffffffffffffffffffffffffffffffffffff1673ffffffffffffffffffffffffffffffffffffffff168152602001908152602001600020819055503373ffffffffffffffffffffffffffffffffffffffff166108fc829081150290604051600060405180830381858888f19350505050158015610553573d6000803e3d6000fd5b505b803373ffffffffffffffffffffffffffffffffffffffff16867f6197e166e88e6eaa8b67c5520d3b6ee0ba80077953677bbeca80ac752a0d4cd060405160405180910390a460019350505050919050565b600080600080600080600360008881526020019081526020016000206040518061016001604052908160008201548152602001600182015481526020016002820154815260200160038201548152602001600482015481526020016005820160009054906101000a900473ffffffffffffffffffffffffffffffffffffffff1673ffffffffffffffffffffffffffffffffffffffff1673ffffffffffffffffffffffffffffffffffffffff1681526020016006820160009054906101000a900473ffffffffffffffffffffffffffffffffffffffff1673ffffffffffffffffffffffffffffffffffffffff1673ffffffffffffffffffffffffffffffffffffffff168152602001600782015481526020016008820160009054906101000a900460ff161515151581526020016009820180546106e19061334d565b80601f016020809104026020016040519081016040528092919081815260200182805461070d9061334d565b801561075a5780601f1061072f5761010080835404028352916020019161075a565b820191906000526020600020905b81548152906001019060200180831161073d57829003601f168201915b50505050508152602001600a820160009054906101000a900460ff161515151581525050905060008061078e8960006119ec565b809250819350505060008360c001519050808460a0015185602001518585985098509850985098505050505091939590929450565b60606000805b6002548110156109dd576000600360008381526020019081526020016000206040518061016001604052908160008201548152602001600182015481526020016002820154815260200160038201548152602001600482015481526020016005820160009054906101000a900473ffffffffffffffffffffffffffffffffffffffff1673ffffffffffffffffffffffffffffffffffffffff1673ffffffffffffffffffffffffffffffffffffffff1681526020016006820160009054906101000a900473ffffffffffffffffffffffffffffffffffffffff1673ffffffffffffffffffffffffffffffffffffffff1673ffffffffffffffffffffffffffffffffffffffff168152602001600782015481526020016008820160009054906101000a900460ff161515151581526020016009820180546109079061334d565b80601f01602080910402602001604051908101604052809291908181526020018280546109339061334d565b80156109805780601f1061095557610100808354040283529160200191610980565b820191906000526020600020905b81548152906001019060200180831161096357829003601f168201915b50505050508152602001600a820160009054906101000a900460ff16151515158152505090508415806109b557508061010001515b156109c95782806109c5906133b0565b9350505b5080806109d5906133b0565b9150506107c9565b5060008167ffffffffffffffff811115610a20577f4e487b7100000000000000000000000000000000000000000000000000000000600052604160045260246000fd5b604051908082528060200260200182016040528015610a5957816020015b610a46612655565b815260200190600190039081610a3e5790505b5090506000915060005b600254811015610cba576000600360008381526020019081526020016000206040518061016001604052908160008201548152602001600182015481526020016002820154815260200160038201548152602001600482015481526020016005820160009054906101000a900473ffffffffffffffffffffffffffffffffffffffff1673ffffffffffffffffffffffffffffffffffffffff1673ffffffffffffffffffffffffffffffffffffffff1681526020016006820160009054906101000a900473ffffffffffffffffffffffffffffffffffffffff1673ffffffffffffffffffffffffffffffffffffffff1673ffffffffffffffffffffffffffffffffffffffff168152602001600782015481526020016008820160009054906101000a900460ff16151515158152602001600982018054610ba19061334d565b80601f0160208091040260200160405190810160405280929190818152602001828054610bcd9061334d565b8015610c1a5780601f10610bef57610100808354040283529160200191610c1a565b820191906000526020600020905b815481529060010190602001808311610bfd57829003601f168201915b50505050508152602001600a820160009054906101000a900460ff1615151515815250509050851580610c4f57508061010001515b15610ca65780838580610c61906133b0565b965081518110610c9a577f4e487b7100000000000000000000000000000000000000000000000000000000600052603260045260246000fd5b60200260200101819052505b508080610cb2906133b0565b915050610a63565b508092505050919050565b6000610cd18234612090565b9050919050565b60008060008054906101000a900473ffffffffffffffffffffffffffffffffffffffff16905060008173ffffffffffffffffffffffffffffffffffffffff166340576ba233600160009054906101000a900473ffffffffffffffffffffffffffffffffffffffff16888c6040518563ffffffff1660e01b8152600401610d619493929190612ecb565b602060405180830381600087803b158015610d7b57600080fd5b505af1158015610d8f573d6000803e3d6000fd5b505050506040513d601f19601f82011682018060405250810190610db39190612999565b9050610dc281898989886123aa565b9250505095945050505050565b6000806003600087815260200190815260200160002090508060060160009054906101000a900473ffffffffffffffffffffffffffffffffffffffff1673ffffffffffffffffffffffffffffffffffffffff163373ffffffffffffffffffffffffffffffffffffffff161480610e495750610e486125fd565b5b610e88576040517f08c379a0000000000000000000000000000000000000000000000000000000008152600401610e7f90612ffd565b60405180910390fd5b600015158160080160009054906101000a900460ff16151514610ee0576040517f08c379a0000000000000000000000000000000000000000000000000000000008152600401610ed7906130bd565b60405180910390fd5b80600a0160009054906101000a900460ff16610f31576040517f08c379a0000000000000000000000000000000000000000000000000000000008152600401610f289061303d565b60405180910390fd5b60008160050160006101000a81548173ffffffffffffffffffffffffffffffffffffffff021916908373ffffffffffffffffffffffffffffffffffffffff1602179055506110128160010154826009018054610f8c9061334d565b80601f0160208091040260200160405190810160405280929190818152602001828054610fb89061334d565b80156110055780601f10610fda57610100808354040283529160200191611005565b820191906000526020600020905b815481529060010190602001808311610fe857829003601f168201915b50505050508787876123aa565b915050949350505050565b60006003600083815260200190815260200160002060060160009054906101000a900473ffffffffffffffffffffffffffffffffffffffff1673ffffffffffffffffffffffffffffffffffffffff163373ffffffffffffffffffffffffffffffffffffffff16148061109357506110926125fd565b5b6110d2576040517f08c379a00000000000000000000000000000000000000000000000000000000081526004016110c990612fdd565b60405180910390fd5b600060036000848152602001908152602001600020905060008160080160006101000a81548160ff021916908315150217905550827f87a3be6ff0bed551a67488b9b503f11fc3b960fedc980122474cd59c630aac2360405160405180910390a26001915050919050565b6004602052816000526040600020602052806000526040600020600091509150505481565b60606000805b600254811015611405576000600360008381526020019081526020016000206040518061016001604052908160008201548152602001600182015481526020016002820154815260200160038201548152602001600482015481526020016005820160009054906101000a900473ffffffffffffffffffffffffffffffffffffffff1673ffffffffffffffffffffffffffffffffffffffff1673ffffffffffffffffffffffffffffffffffffffff1681526020016006820160009054906101000a900473ffffffffffffffffffffffffffffffffffffffff1673ffffffffffffffffffffffffffffffffffffffff1673ffffffffffffffffffffffffffffffffffffffff168152602001600782015481526020016008820160009054906101000a900460ff161515151581526020016009820180546112a69061334d565b80601f01602080910402602001604051908101604052809291908181526020018280546112d29061334d565b801561131f5780601f106112f45761010080835404028352916020019161131f565b820191906000526020600020905b81548152906001019060200180831161130257829003601f168201915b50505050508152602001600a820160009054906101000a900460ff16151515158152505090506000600460008360000151815260200190815260200160002090503373ffffffffffffffffffffffffffffffffffffffff168260a0015173ffffffffffffffffffffffffffffffffffffffff1614806113dc575060008160003373ffffffffffffffffffffffffffffffffffffffff1673ffffffffffffffffffffffffffffffffffffffff16815260200190815260200160002054115b156113f05783806113ec906133b0565b9450505b505080806113fd906133b0565b915050611168565b5060008167ffffffffffffffff811115611448577f4e487b7100000000000000000000000000000000000000000000000000000000600052604160045260246000fd5b60405190808252806020026020018201604052801561148157816020015b61146e612655565b8152602001906001900390816114665790505b5090506000915060005b6002548110156117f5576000600360008381526020019081526020016000206040518061016001604052908160008201548152602001600182015481526020016002820154815260200160038201548152602001600482015481526020016005820160009054906101000a900473ffffffffffffffffffffffffffffffffffffffff1673ffffffffffffffffffffffffffffffffffffffff1673ffffffffffffffffffffffffffffffffffffffff1681526020016006820160009054906101000a900473ffffffffffffffffffffffffffffffffffffffff1673ffffffffffffffffffffffffffffffffffffffff1673ffffffffffffffffffffffffffffffffffffffff168152602001600782015481526020016008820160009054906101000a900460ff161515151581526020016009820180546115c99061334d565b80601f01602080910402602001604051908101604052809291908181526020018280546115f59061334d565b80156116425780601f1061161757610100808354040283529160200191611642565b820191906000526020600020905b81548152906001019060200180831161162557829003601f168201915b50505050508152602001600a820160009054906101000a900460ff16151515158152505090506000600460008360000151815260200190815260200160002090503373ffffffffffffffffffffffffffffffffffffffff168260a0015173ffffffffffffffffffffffffffffffffffffffff1614806116ff575060008160003373ffffffffffffffffffffffffffffffffffffffff1673ffffffffffffffffffffffffffffffffffffffff16815260200190815260200160002054115b156117e0573373ffffffffffffffffffffffffffffffffffffffff168260a0015173ffffffffffffffffffffffffffffffffffffffff161461177f578060003373ffffffffffffffffffffffffffffffffffffffff1673ffffffffffffffffffffffffffffffffffffffff16815260200190815260200160002054611785565b81608001515b8260600181815250508184868061179b906133b0565b9750815181106117d4577f4e487b7100000000000000000000000000000000000000000000000000000000600052603260045260246000fd5b60200260200101819052505b505080806117ed906133b0565b91505061148b565b50809250505090565b60025481565b6000806118128360016119ec565b91509150915091565b60036020528060005260406000206000915090508060000154908060010154908060020154908060030154908060040154908060050160009054906101000a900473ffffffffffffffffffffffffffffffffffffffff16908060060160009054906101000a900473ffffffffffffffffffffffffffffffffffffffff16908060070154908060080160009054906101000a900460ff16908060090180546118c19061334d565b80601f01602080910402602001604051908101604052809291908181526020018280546118ed9061334d565b801561193a5780601f1061190f5761010080835404028352916020019161193a565b820191906000526020600020905b81548152906001019060200180831161191d57829003601f168201915b50505050509080600a0160009054906101000a900460ff1690508b565b600160009054906101000a900473ffffffffffffffffffffffffffffffffffffffff1681565b60008054906101000a900473ffffffffffffffffffffffffffffffffffffffff1681565b6000816000806101000a81548173ffffffffffffffffffffffffffffffffffffffff021916908373ffffffffffffffffffffffffffffffffffffffff16021790555060019050919050565b600080600060036000868152602001908152602001600020905060008054906101000a900473ffffffffffffffffffffffffffffffffffffffff1673ffffffffffffffffffffffffffffffffffffffff163373ffffffffffffffffffffffffffffffffffffffff161480611aaf57508060060160009054906101000a900473ffffffffffffffffffffffffffffffffffffffff1673ffffffffffffffffffffffffffffffffffffffff163373ffffffffffffffffffffffffffffffffffffffff16145b80611abe5750611abd6125fd565b5b611afd576040517f08c379a0000000000000000000000000000000000000000000000000000000008152600401611af49061305d565b60405180910390fd5b600115158160080160009054906101000a900460ff16151514611b55576040517f08c379a0000000000000000000000000000000000000000000000000000000008152600401611b4c9061301d565b60405180910390fd5b80600a0160009054906101000a900460ff1615611ba7576040517f08c379a0000000000000000000000000000000000000000000000000000000008152600401611b9e9061307d565b60405180910390fd5b806003015481600401541015611bf2576040517f08c379a0000000000000000000000000000000000000000000000000000000008152600401611be990612fbd565b60405180910390fd5b60008160080160006101000a81548160ff021916908315150217905550600181600a0160006101000a81548160ff021916908315150217905550600060046000878152602001908152602001600020905060008060009054906101000a900473ffffffffffffffffffffffffffffffffffffffff1690508515611d07578073ffffffffffffffffffffffffffffffffffffffff166323b872dd338560050160009054906101000a900473ffffffffffffffffffffffffffffffffffffffff1686600101546040518463ffffffff1660e01b8152600401611cd493929190612e41565b600060405180830381600087803b158015611cee57600080fd5b505af1158015611d02573d6000803e3d6000fd5b505050505b8073ffffffffffffffffffffffffffffffffffffffff16632a55205a846001015485600401546040518363ffffffff1660e01b8152600401611d4a9291906130f8565b604080518083038186803b158015611d6157600080fd5b505afa158015611d75573d6000803e3d6000fd5b505050506040513d601f19601f82011682018060405250810190611d99919061287c565b809550819650505060008414158015611e0257508260060160009054906101000a900473ffffffffffffffffffffffffffffffffffffffff1673ffffffffffffffffffffffffffffffffffffffff168573ffffffffffffffffffffffffffffffffffffffff1614155b15611ecd578473ffffffffffffffffffffffffffffffffffffffff166108fc859081150290604051600060405180830381858888f19350505050158015611e4d573d6000803e3d6000fd5b508260060160009054906101000a900473ffffffffffffffffffffffffffffffffffffffff1673ffffffffffffffffffffffffffffffffffffffff166108fc858560040154611e9c919061328f565b9081150290604051600060405180830381858888f19350505050158015611ec7573d6000803e3d6000fd5b50611f3d565b8260060160009054906101000a900473ffffffffffffffffffffffffffffffffffffffff1673ffffffffffffffffffffffffffffffffffffffff166108fc84600401549081150290604051600060405180830381858888f19350505050158015611f3b573d6000803e3d6000fd5b505b60008260008560050160009054906101000a900473ffffffffffffffffffffffffffffffffffffffff1673ffffffffffffffffffffffffffffffffffffffff1673ffffffffffffffffffffffffffffffffffffffff168152602001908152602001600020819055508260050160009054906101000a900473ffffffffffffffffffffffffffffffffffffffff168360060160006101000a81548173ffffffffffffffffffffffffffffffffffffffff021916908373ffffffffffffffffffffffffffffffffffffffff16021790555082600401548360050160009054906101000a900473ffffffffffffffffffffffffffffffffffffffff1673ffffffffffffffffffffffffffffffffffffffff16887fe5475ecf90fac88802f904d6cb8390f7106dec2526f70b078ce579d6f7221251888860405161207e929190612f17565b60405180910390a45050509250929050565b600080600360008581526020019081526020016000209050600115158160080160009054906101000a900460ff16151514612100576040517f08c379a00000000000000000000000000000000000000000000000000000000081526004016120f79061301d565b60405180910390fd5b80600a0160009054906101000a900460ff16158015612123575080600701544211155b612162576040517f08c379a000000000000000000000000000000000000000000000000000000000815260040161215990612f9d565b60405180910390fd5b806002015483101580156121795750806004015483115b6121b8576040517f08c379a00000000000000000000000000000000000000000000000000000000081526004016121af9061309d565b60405180910390fd5b600060046000868152602001908152602001600020905060008160003373ffffffffffffffffffffffffffffffffffffffff1673ffffffffffffffffffffffffffffffffffffffff1681526020019081526020016000205411156122a25760008160003373ffffffffffffffffffffffffffffffffffffffff1673ffffffffffffffffffffffffffffffffffffffff1681526020019081526020016000205490503373ffffffffffffffffffffffffffffffffffffffff166108fc829081150290604051600060405180830381858888f1935050505015801561229f573d6000803e3d6000fd5b50505b838160003373ffffffffffffffffffffffffffffffffffffffff1673ffffffffffffffffffffffffffffffffffffffff16815260200190815260200160002081905550338260050160006101000a81548173ffffffffffffffffffffffffffffffffffffffff021916908373ffffffffffffffffffffffffffffffffffffffff16021790555083826004018190555081600401548260050160009054906101000a900473ffffffffffffffffffffffffffffffffffffffff1673ffffffffffffffffffffffffffffffffffffffff16867f558a0d5d5468d74b0db24c74eb348b42271c2ebb4c9e953ced38aaed95fa436160405160405180910390a460019250505092915050565b600080604051806101600160405280600254815260200188815260200186815260200185815260200160008152602001600073ffffffffffffffffffffffffffffffffffffffff1681526020013373ffffffffffffffffffffffffffffffffffffffff16815260200184815260200160011515815260200187815260200160001515815250905080600360006002548152602001908152602001600020600082015181600001556020820151816001015560408201518160020155606082015181600301556080820151816004015560a08201518160050160006101000a81548173ffffffffffffffffffffffffffffffffffffffff021916908373ffffffffffffffffffffffffffffffffffffffff16021790555060c08201518160060160006101000a81548173ffffffffffffffffffffffffffffffffffffffff021916908373ffffffffffffffffffffffffffffffffffffffff16021790555060e082015181600701556101008201518160080160006101000a81548160ff02191690831515021790555061012082015181600901908051906020019061254f9291906126df565b5061014082015181600a0160006101000a81548160ff0219169083151502179055509050508660008054906101000a900473ffffffffffffffffffffffffffffffffffffffff1673ffffffffffffffffffffffffffffffffffffffff16600260008154809291906125bf906133b0565b919050557fb4655f9265ae262396e6d5c261f1da27c0ffd551f1cb92f452c1173a21a35d7b60405160405180910390a4600191505095945050505050565b60003373ffffffffffffffffffffffffffffffffffffffff16600160009054906101000a900473ffffffffffffffffffffffffffffffffffffffff1673ffffffffffffffffffffffffffffffffffffffff1614905090565b6040518061016001604052806000815260200160008152602001600081526020016000815260200160008152602001600073ffffffffffffffffffffffffffffffffffffffff168152602001600073ffffffffffffffffffffffffffffffffffffffff16815260200160008152602001600015158152602001606081526020016000151581525090565b8280546126eb9061334d565b90600052602060002090601f01602090048101928261270d5760008555612754565b82601f1061272657805160ff1916838001178555612754565b82800160010185558215612754579182015b82811115612753578251825591602001919060010190612738565b5b5090506127619190612765565b5090565b5b8082111561277e576000816000905550600101612766565b5090565b6000612795612790846131f8565b6131d3565b9050828152602081018484840111156127ad57600080fd5b6127b884828561330b565b509392505050565b6000813590506127cf8161373e565b92915050565b6000815190506127e48161373e565b92915050565b6000813590506127f981613755565b92915050565b600082601f83011261281057600080fd5b8135612820848260208601612782565b91505092915050565b6000813590506128388161376c565b92915050565b60008151905061284d8161376c565b92915050565b60006020828403121561286557600080fd5b6000612873848285016127c0565b91505092915050565b6000806040838503121561288f57600080fd5b600061289d858286016127d5565b92505060206128ae8582860161283e565b9150509250929050565b6000602082840312156128ca57600080fd5b60006128d8848285016127ea565b91505092915050565b600080600080600060a086880312156128f957600080fd5b600086013567ffffffffffffffff81111561291357600080fd5b61291f888289016127ff565b955050602061293088828901612829565b945050604061294188828901612829565b935050606061295288828901612829565b925050608061296388828901612829565b9150509295509295909350565b60006020828403121561298257600080fd5b600061299084828501612829565b91505092915050565b6000602082840312156129ab57600080fd5b60006129b98482850161283e565b91505092915050565b600080604083850312156129d557600080fd5b60006129e385828601612829565b92505060206129f4858286016127c0565b9150509250929050565b60008060008060808587031215612a1457600080fd5b6000612a2287828801612829565b9450506020612a3387828801612829565b9350506040612a4487828801612829565b9250506060612a5587828801612829565b91505092959194509250565b6000612a6d8383612d19565b905092915050565b612a7e816132c3565b82525050565b612a8d816132c3565b82525050565b6000612a9e82613239565b612aa8818561325c565b935083602082028501612aba85613229565b8060005b85811015612af65784840389528151612ad78582612a61565b9450612ae28361324f565b925060208a01995050600181019050612abe565b50829750879550505050505092915050565b612b11816132d5565b82525050565b612b20816132d5565b82525050565b6000612b3182613244565b612b3b818561326d565b9350612b4b81856020860161331a565b612b5481613486565b840191505092915050565b6000612b6a82613244565b612b74818561327e565b9350612b8481856020860161331a565b612b8d81613486565b840191505092915050565b6000612ba5602f8361327e565b9150612bb082613497565b604082019050919050565b6000612bc8602f8361327e565b9150612bd3826134e6565b604082019050919050565b6000612beb600f8361327e565b9150612bf682613535565b602082019050919050565b6000612c0e602e8361327e565b9150612c198261355e565b604082019050919050565b6000612c31602e8361327e565b9150612c3c826135ad565b604082019050919050565b6000612c54601b8361327e565b9150612c5f826135fc565b602082019050919050565b6000612c7760198361327e565b9150612c8282613625565b602082019050919050565b6000612c9a60368361327e565b9150612ca58261364e565b604082019050919050565b6000612cbd601d8361327e565b9150612cc88261369d565b602082019050919050565b6000612ce060228361327e565b9150612ceb826136c6565b604082019050919050565b6000612d03601f8361327e565b9150612d0e82613715565b602082019050919050565b600061016083016000830151612d326000860182612e08565b506020830151612d456020860182612e08565b506040830151612d586040860182612e08565b506060830151612d6b6060860182612e08565b506080830151612d7e6080860182612e08565b5060a0830151612d9160a0860182612a75565b5060c0830151612da460c0860182612a75565b5060e0830151612db760e0860182612e08565b50610100830151612dcc610100860182612b08565b50610120830151848203610120860152612de68282612b26565b915050610140830151612dfd610140860182612b08565b508091505092915050565b612e1181613301565b82525050565b612e2081613301565b82525050565b6000602082019050612e3b6000830184612a84565b92915050565b6000606082019050612e566000830186612a84565b612e636020830185612a84565b612e706040830184612e17565b949350505050565b600060a082019050612e8d6000830188612a84565b612e9a6020830187612a84565b612ea76040830186612e17565b612eb46060830185612a84565b612ec16080830184612e17565b9695505050505050565b6000608082019050612ee06000830187612a84565b612eed6020830186612a84565b612efa6040830185612e17565b8181036060830152612f0c8184612b5f565b905095945050505050565b6000604082019050612f2c6000830185612a84565b612f396020830184612e17565b9392505050565b60006020820190508181036000830152612f5a8184612a93565b905092915050565b6000602082019050612f776000830184612b17565b92915050565b60006020820190508181036000830152612f9681612b98565b9050919050565b60006020820190508181036000830152612fb681612bbb565b9050919050565b60006020820190508181036000830152612fd681612bde565b9050919050565b60006020820190508181036000830152612ff681612c01565b9050919050565b6000602082019050818103600083015261301681612c24565b9050919050565b6000602082019050818103600083015261303681612c47565b9050919050565b6000602082019050818103600083015261305681612c6a565b9050919050565b6000602082019050818103600083015261307681612c8d565b9050919050565b6000602082019050818103600083015261309681612cb0565b9050919050565b600060208201905081810360008301526130b681612cd3565b9050919050565b600060208201905081810360008301526130d681612cf6565b9050919050565b60006020820190506130f26000830184612e17565b92915050565b600060408201905061310d6000830185612e17565b61311a6020830184612e17565b9392505050565b600061016082019050613137600083018e612e17565b613144602083018d612e17565b613151604083018c612e17565b61315e606083018b612e17565b61316b608083018a612e17565b61317860a0830189612a84565b61318560c0830188612a84565b61319260e0830187612e17565b6131a0610100830186612b17565b8181036101208301526131b38185612b5f565b90506131c3610140830184612b17565b9c9b505050505050505050505050565b60006131dd6131ee565b90506131e9828261337f565b919050565b6000604051905090565b600067ffffffffffffffff82111561321357613212613457565b5b61321c82613486565b9050602081019050919050565b6000819050602082019050919050565b600081519050919050565b600081519050919050565b6000602082019050919050565b600082825260208201905092915050565b600082825260208201905092915050565b600082825260208201905092915050565b600061329a82613301565b91506132a583613301565b9250828210156132b8576132b76133f9565b5b828203905092915050565b60006132ce826132e1565b9050919050565b60008115159050919050565b600073ffffffffffffffffffffffffffffffffffffffff82169050919050565b6000819050919050565b82818337600083830152505050565b60005b8381101561333857808201518184015260208101905061331d565b83811115613347576000848401525b50505050565b6000600282049050600182168061336557607f821691505b6020821081141561337957613378613428565b5b50919050565b61338882613486565b810181811067ffffffffffffffff821117156133a7576133a6613457565b5b80604052505050565b60006133bb82613301565b91507fffffffffffffffffffffffffffffffffffffffffffffffffffffffffffffffff8214156133ee576133ed6133f9565b5b600182019050919050565b7f4e487b7100000000000000000000000000000000000000000000000000000000600052601160045260246000fd5b7f4e487b7100000000000000000000000000000000000000000000000000000000600052602260045260246000fd5b7f4e487b7100000000000000000000000000000000000000000000000000000000600052604160045260246000fd5b6000601f19601f8301169050919050565b7f596f752063616e6e6f7420776974686472617720756e74696c2074686520617560008201527f6374696f6e2068617320656e6465640000000000000000000000000000000000602082015250565b7f5468652061756374696f6e2068617320616c726561647920656e646564202d2060008201527f6e6f206269647320616c6c6f7765640000000000000000000000000000000000602082015250565b7f52657365727665206e6f74206d65740000000000000000000000000000000000600082015250565b7f596f7520617265206e6f7420617574686f726973656420746f2064656c65746560008201527f207468697320616e74697175652e000000000000000000000000000000000000602082015250565b7f596f7520617265206e6f7420617574686f726973656420746f20726573656c6c60008201527f207468697320616e74697175652e000000000000000000000000000000000000602082015250565b7f54686520616e7469717565206973206e6f7420666f722073616c650000000000600082015250565b7f5468652061756374696f6e20686173206e6f7420656e64656400000000000000600082015250565b7f596f7520617265206e6f7420617574686f726973656420746f20656e6420617560008201527f6374696f6e20666f72207468697320616e746971756500000000000000000000602082015250565b7f5468652061756374696f6e2068617320616c726561647920656e646564000000600082015250565b7f736f7272792c2074686520626964206973206e6f74206869676820656e6f756760008201527f6821000000000000000000000000000000000000000000000000000000000000602082015250565b7f54686520616e746971756520697320616c726561647920666f722073616c6500600082015250565b613747816132c3565b811461375257600080fd5b50565b61375e816132d5565b811461376957600080fd5b50565b61377581613301565b811461378057600080fd5b5056fea2646970667358221220f8571379882a7a350a658fc01180530dd07d49df4ab0f57aab1b1e2c9b423a7964736f6c63430008010033",
  "immutableReferences": {},
  "source": "//SPDX-License-Identifier: GPL-3.0\npragma solidity ^0.8.1;\n\nimport './AnyNFT.sol';\nimport './strings.sol';\n\ncontract AntiqueStore is AnyNFTMarket {\n    using strings for *;\n\n    struct Antique {\n        uint256 id;\n        uint256 tokenId;\n        uint256 startingPrice;\n        uint256 reservePrice; // A reserve price is a hidden minimum priceessentially, the lowest price you're willing to accept for your item. If the listing ends without any bids that meet the reserve price, you aren't required to sell the item.\n        uint256 highestBid;\n        address highestBidder;\n        address owner; // owner of the antique\n        uint256 auctionEndTime;\n        bool forSale; // false if not being listed for sale\n        string tokenURI;\n        bool auctionEnded;\n    }\n\n    address public nftContract;\n    address public contractOwner;\n    uint256 public antiqueId;\n\n    mapping(uint256 => Antique) public antiques;\n\n    mapping(uint256 => mapping(address => uint256))\n        public antiquePendingReturns;\n\n    constructor() {\n        contractOwner = msg.sender;\n    }\n\n    function NFTContractDeployed(address _nftContract)\n        public\n        override\n        returns (bool)\n    {\n        nftContract = _nftContract;\n        return true;\n    }\n\n    /**\n     * @dev Check if the current caller is the contract owner.\n     */\n    function isOwner() internal view returns (bool) {\n        return contractOwner == msg.sender;\n    }\n\n    function getAntiques(bool forSaleOnly)\n        public\n        view\n        returns (Antique[] memory)\n    {\n        uint256 count = 0;\n        for (uint256 i = 0; i < antiqueId; i++) {\n            Antique memory antique = antiques[i];\n            if (!forSaleOnly || antique.forSale) {\n                count++;\n            }\n        }\n\n        Antique[] memory result = new Antique[](count);\n        count = 0;\n        for (uint256 i = 0; i < antiqueId; i++) {\n            Antique memory antique = antiques[i];\n            if (!forSaleOnly || antique.forSale) {\n                result[count++] = antique;\n            }\n        }\n        return result;\n    }\n\n    /**\n     * @dev Add and list an Antique.\n     *\n     * Returns a boolean value indicating whether the operation succeeded.\n     *\n     * Emits a {NewAntique} event.\n     */\n    function sellAntique(\n        string memory tokenURI,\n        uint256 startingPrice,\n        uint256 reservePrice,\n        uint256 royaltyValue,\n        uint256 auctionEndTime\n    ) public returns (bool success) {\n        AnyNFT anyNFT = AnyNFT(nftContract);\n        uint256 tokenId = anyNFT.mintNFTWithRoyalty(\n            msg.sender,\n            contractOwner,\n            royaltyValue,\n            tokenURI\n        );\n\n        return\n            _newAntique(\n                tokenId,\n                tokenURI,\n                startingPrice,\n                reservePrice,\n                auctionEndTime\n            );\n    }\n\n    function _newAntique(\n        uint256 tokenId,\n        string memory tokenURI,\n        uint256 startingPrice,\n        uint256 reservePrice,\n        uint256 auctionEndTime\n    ) internal returns (bool success) {\n        Antique memory antique = Antique(\n            antiqueId,\n            tokenId,\n            startingPrice,\n            reservePrice,\n            0,\n            address(0),\n            msg.sender,\n            auctionEndTime,\n            true,\n            tokenURI,\n            false\n        );\n\n        antiques[antiqueId] = antique;\n\n        emit NewAntique(antiqueId++, nftContract, tokenId);\n\n        return true;\n    }\n\n    function equals(string memory a, string memory b)\n        internal\n        pure\n        returns (bool)\n    {\n        if (bytes(a).length != bytes(b).length) {\n            return false;\n        } else {\n            return\n                keccak256(abi.encodePacked(a)) ==\n                keccak256(abi.encodePacked(b));\n        }\n    }\n\n    function _bidAntique(uint256 _antiqueId, uint256 newBid)\n        internal\n        returns (bool)\n    {\n        Antique storage antique = antiques[_antiqueId];\n\n        require(antique.forSale == true, 'The antique is not for sale');\n\n        require(\n            !antique.auctionEnded && block.timestamp <= antique.auctionEndTime,\n            'The auction has already ended - no bids allowed'\n        );\n\n        require(\n            newBid >= antique.startingPrice && newBid > antique.highestBid,\n            'sorry, the bid is not high enough!'\n        );\n\n        mapping(address => uint256)\n            storage pendingReturns = antiquePendingReturns[_antiqueId];\n\n        if (pendingReturns[msg.sender] > 0) {\n            uint256 amount = pendingReturns[msg.sender];\n            payable(msg.sender).transfer(amount);\n        }\n\n        pendingReturns[msg.sender] = newBid;\n\n        antique.highestBidder = msg.sender;\n        antique.highestBid = newBid;\n\n        emit NewBid(_antiqueId, antique.highestBidder, antique.highestBid);\n\n        return true;\n    }\n\n    /**\n     * @dev Bid a antique has `_antiqueId`.\n     *\n     * Returns a boolean value indicating whether the operation succeeded.\n     *\n     * Emits a `NewBid` event.\n     */\n    function bidAntique(uint256 _antiqueId) public payable returns (bool) {\n        return _bidAntique(_antiqueId, msg.value);\n    }\n\n    function getMyBids() public view returns (Antique[] memory) {\n        uint256 count = 0;\n        for (uint256 i = 0; i < antiqueId; i++) {\n            Antique memory antique = antiques[i];\n            mapping(address => uint256)\n                storage pendingReturns = antiquePendingReturns[antique.id];\n\n            if (\n                antique.highestBidder == msg.sender ||\n                pendingReturns[msg.sender] > 0\n            ) {\n                count++;\n            }\n        }\n\n        Antique[] memory result = new Antique[](count);\n        count = 0;\n        for (uint256 i = 0; i < antiqueId; i++) {\n            Antique memory antique = antiques[i];\n            mapping(address => uint256)\n                storage pendingReturns = antiquePendingReturns[antique.id];\n\n            if (\n                antique.highestBidder == msg.sender ||\n                pendingReturns[msg.sender] > 0\n            ) {\n                antique.reservePrice = antique.highestBidder == msg.sender\n                    ? antique.highestBid\n                    : pendingReturns[msg.sender];\n                result[count++] = antique;\n            }\n        }\n        return result;\n    }\n\n    function endAuction(uint256 _antiqueId)\n        public\n        returns (address royaltyReceiver, uint256 royaltyAmount)\n    {\n        return _endAuction(_antiqueId, true);\n    }\n\n    function _endAuction(uint256 _antiqueId, bool toTransferNFT)\n        internal\n        returns (address royaltyReceiver, uint256 royaltyAmount)\n    {\n        Antique storage antique = antiques[_antiqueId];\n        require(\n            msg.sender == nftContract ||\n                msg.sender == antique.owner ||\n                isOwner(),\n            'You are not authorised to end auction for this antique'\n        );\n\n        require(antique.forSale == true, 'The antique is not for sale');\n\n        require(!antique.auctionEnded, 'The auction has already ended');\n\n        require(antique.highestBid >= antique.reservePrice, 'Reserve not met');\n\n        antique.forSale = false;\n        antique.auctionEnded = true;\n\n        mapping(address => uint256)\n            storage pendingReturns = antiquePendingReturns[_antiqueId];\n\n        AnyNFT anyNFT = AnyNFT(nftContract);\n        if (toTransferNFT) {\n            anyNFT.transferFrom(\n                msg.sender,\n                antique.highestBidder,\n                antique.tokenId\n            );\n        }\n\n        (royaltyReceiver, royaltyAmount) = anyNFT.royaltyInfo(\n            antique.tokenId,\n            antique.highestBid\n        );\n\n        if (royaltyAmount != 0 && royaltyReceiver != antique.owner) {\n            payable(royaltyReceiver).transfer(royaltyAmount);\n            payable(antique.owner).transfer(antique.highestBid - royaltyAmount);\n        } else {\n            payable(antique.owner).transfer(antique.highestBid);\n        }\n\n        pendingReturns[antique.highestBidder] = 0;\n        antique.owner = antique.highestBidder;\n\n        emit AuctionEnded(\n            _antiqueId,\n            antique.highestBidder,\n            antique.highestBid,\n            royaltyReceiver,\n            royaltyAmount\n        );\n\n        return (royaltyReceiver, royaltyAmount);\n    }\n\n    function endAntiqueAuction(uint256 _antiqueId)\n        public\n        override\n        returns (\n            address,\n            address,\n            uint256,\n            address,\n            uint256\n        )\n    {\n        Antique memory antique = antiques[_antiqueId];\n        address royaltyReceiver;\n        uint256 royaltyAmount;\n        (royaltyReceiver, royaltyAmount) = _endAuction(_antiqueId, false);\n\n        address from = antique.owner;\n        return (\n            from,\n            antique.highestBidder,\n            antique.tokenId,\n            royaltyReceiver,\n            royaltyAmount\n        );\n    }\n\n    function withdraw(uint256 _antiqueId) public payable returns (bool) {\n        Antique storage antique = antiques[_antiqueId];\n\n        require(\n            antique.auctionEnded,\n            'You cannot withdraw until the auction has ended'\n        );\n\n        mapping(address => uint256)\n            storage pendingReturns = antiquePendingReturns[_antiqueId];\n\n        uint256 amount = pendingReturns[msg.sender];\n        if (amount > 0) {\n            pendingReturns[msg.sender] = 0;\n            payable(msg.sender).transfer(amount);\n        }\n\n        emit NewWithdrawal(_antiqueId, msg.sender, amount);\n\n        return true;\n    }\n\n    function resellAntique(\n        uint256 _antiqueId,\n        uint256 startingPrice,\n        uint256 reservePrice,\n        uint256 auctionEndTime\n    ) public returns (bool success) {\n        Antique storage antique = antiques[_antiqueId];\n        require(\n            msg.sender == antique.owner || isOwner(),\n            'You are not authorised to resell this antique.'\n        );\n\n        require(antique.forSale == false, 'The antique is already for sale');\n\n        require(antique.auctionEnded, 'The auction has not ended');\n\n        antique.highestBidder = address(0);\n\n        return\n            _newAntique(\n                antique.tokenId,\n                antique.tokenURI,\n                startingPrice,\n                reservePrice,\n                auctionEndTime\n            );\n    }\n\n    /**\n     * @dev Delete a antique from the antique store. Only the antique's owner or the\n     * antiquestore's owner is authorised for this operation.\n     *\n     * Returns a boolean value indicating whether the operation succeeded.\n     *\n     * Emits a `DeleteAntique` event.\n     */\n    function deleteAntique(uint256 _antiqueId) public returns (bool success) {\n        require(\n            msg.sender == antiques[_antiqueId].owner || isOwner(),\n            'You are not authorised to delete this antique.'\n        );\n\n        Antique storage antique = antiques[_antiqueId];\n        antique.forSale = false;\n\n        emit DeleteAntique(_antiqueId);\n\n        return true;\n    }\n\n    /**\n     * @dev Emitted when a new antique is added to the antiquestore.\n     * Note `antiqueId` starts from 0.\n     */\n    event NewAntique(\n        uint256 indexed antiqueId,\n        address indexed nftContract,\n        uint256 indexed tokenId\n    );\n\n    /**\n     * @dev Emitted when a new antique rental is made.\n     * Note `bidId` and `antiqueId` start from 0.\n     */\n    event NewBid(\n        uint256 indexed antiqueId,\n        address indexed bidder,\n        uint256 indexed amount\n    );\n\n    event AuctionEnded(\n        uint256 indexed antiqueId,\n        address indexed highestBidder,\n        uint256 indexed highestBid,\n        address royaltyReceiver,\n        uint256 royaltyAmount\n    );\n\n    event NewWithdrawal(\n        uint256 indexed antiqueId,\n        address indexed bidder,\n        uint256 indexed amount\n    );\n\n    /**\n     * @dev Emitted when a antique is deleted from the antiquestore.\n     */\n    event DeleteAntique(uint256 indexed antiqueId);\n}\n",
  "sourcePath": "/Users/donghao/Documents/code/inflaton/decentralized-antique-auction/smart-contracts/contracts/AntiqueStore.sol",
  "compiler": {
    "name": "solc",
    "version": "0.8.1+commit.df193b15.Emscripten.clang"
  },
  "schemaVersion": "3.4.7",
  "updatedAt": "2022-06-12T08:39:51.921Z",
  "networkType": "ethereum",
  "devdoc": {
    "events": {
      "DeleteAntique(uint256)": {
        "details": "Emitted when a antique is deleted from the antiquestore."
      },
      "NewAntique(uint256,address,uint256)": {
        "details": "Emitted when a new antique is added to the antiquestore. Note `antiqueId` starts from 0."
      },
      "NewBid(uint256,address,uint256)": {
        "details": "Emitted when a new antique rental is made. Note `bidId` and `antiqueId` start from 0."
      }
    },
    "kind": "dev",
    "methods": {
      "bidAntique(uint256)": {
        "details": "Bid a antique has `_antiqueId`. Returns a boolean value indicating whether the operation succeeded. Emits a `NewBid` event."
      },
      "deleteAntique(uint256)": {
        "details": "Delete a antique from the antique store. Only the antique's owner or the antiquestore's owner is authorised for this operation. Returns a boolean value indicating whether the operation succeeded. Emits a `DeleteAntique` event."
      },
      "sellAntique(string,uint256,uint256,uint256,uint256)": {
        "details": "Add and list an Antique. Returns a boolean value indicating whether the operation succeeded. Emits a {NewAntique} event."
      }
    },
    "version": 1
  },
  "userdoc": {
    "kind": "user",
    "methods": {},
    "version": 1
  }
}