{
  "contractName": "AntiqueNFT",
  "abi": [
    {
      "inputs": [
        {
          "internalType": "address",
          "name": "_marketContract",
          "type": "address"
        }
      ],
      "stateMutability": "nonpayable",
      "type": "constructor"
    },
    {
      "anonymous": false,
      "inputs": [
        {
          "indexed": true,
          "internalType": "address",
          "name": "owner",
          "type": "address"
        },
        {
          "indexed": true,
          "internalType": "address",
          "name": "approved",
          "type": "address"
        },
        {
          "indexed": true,
          "internalType": "uint256",
          "name": "tokenId",
          "type": "uint256"
        }
      ],
      "name": "Approval",
      "type": "event"
    },
    {
      "anonymous": false,
      "inputs": [
        {
          "indexed": true,
          "internalType": "address",
          "name": "owner",
          "type": "address"
        },
        {
          "indexed": true,
          "internalType": "address",
          "name": "operator",
          "type": "address"
        },
        {
          "indexed": false,
          "internalType": "bool",
          "name": "approved",
          "type": "bool"
        }
      ],
      "name": "ApprovalForAll",
      "type": "event"
    },
    {
      "anonymous": false,
      "inputs": [
        {
          "indexed": true,
          "internalType": "address",
          "name": "previousOwner",
          "type": "address"
        },
        {
          "indexed": true,
          "internalType": "address",
          "name": "newOwner",
          "type": "address"
        }
      ],
      "name": "OwnershipTransferred",
      "type": "event"
    },
    {
      "anonymous": false,
      "inputs": [
        {
          "indexed": true,
          "internalType": "address",
          "name": "from",
          "type": "address"
        },
        {
          "indexed": true,
          "internalType": "address",
          "name": "to",
          "type": "address"
        },
        {
          "indexed": true,
          "internalType": "uint256",
          "name": "tokenId",
          "type": "uint256"
        }
      ],
      "name": "Transfer",
      "type": "event"
    },
    {
      "inputs": [
        {
          "internalType": "address",
          "name": "to",
          "type": "address"
        },
        {
          "internalType": "uint256",
          "name": "tokenId",
          "type": "uint256"
        }
      ],
      "name": "approve",
      "outputs": [],
      "stateMutability": "nonpayable",
      "type": "function"
    },
    {
      "inputs": [
        {
          "internalType": "address",
          "name": "owner",
          "type": "address"
        }
      ],
      "name": "balanceOf",
      "outputs": [
        {
          "internalType": "uint256",
          "name": "",
          "type": "uint256"
        }
      ],
      "stateMutability": "view",
      "type": "function",
      "constant": true
    },
    {
      "inputs": [
        {
          "internalType": "uint256",
          "name": "tokenId",
          "type": "uint256"
        }
      ],
      "name": "getApproved",
      "outputs": [
        {
          "internalType": "address",
          "name": "",
          "type": "address"
        }
      ],
      "stateMutability": "view",
      "type": "function",
      "constant": true
    },
    {
      "inputs": [
        {
          "internalType": "address",
          "name": "owner",
          "type": "address"
        },
        {
          "internalType": "address",
          "name": "operator",
          "type": "address"
        }
      ],
      "name": "isApprovedForAll",
      "outputs": [
        {
          "internalType": "bool",
          "name": "",
          "type": "bool"
        }
      ],
      "stateMutability": "view",
      "type": "function",
      "constant": true
    },
    {
      "inputs": [],
      "name": "marketContract",
      "outputs": [
        {
          "internalType": "address",
          "name": "",
          "type": "address"
        }
      ],
      "stateMutability": "view",
      "type": "function",
      "constant": true
    },
    {
      "inputs": [],
      "name": "name",
      "outputs": [
        {
          "internalType": "string",
          "name": "",
          "type": "string"
        }
      ],
      "stateMutability": "view",
      "type": "function",
      "constant": true
    },
    {
      "inputs": [],
      "name": "owner",
      "outputs": [
        {
          "internalType": "address",
          "name": "",
          "type": "address"
        }
      ],
      "stateMutability": "view",
      "type": "function",
      "constant": true
    },
    {
      "inputs": [
        {
          "internalType": "uint256",
          "name": "tokenId",
          "type": "uint256"
        }
      ],
      "name": "ownerOf",
      "outputs": [
        {
          "internalType": "address",
          "name": "",
          "type": "address"
        }
      ],
      "stateMutability": "view",
      "type": "function",
      "constant": true
    },
    {
      "inputs": [],
      "name": "renounceOwnership",
      "outputs": [],
      "stateMutability": "nonpayable",
      "type": "function"
    },
    {
      "inputs": [
        {
          "internalType": "uint256",
          "name": "tokenId",
          "type": "uint256"
        },
        {
          "internalType": "uint256",
          "name": "value",
          "type": "uint256"
        }
      ],
      "name": "royaltyInfo",
      "outputs": [
        {
          "internalType": "address",
          "name": "receiver",
          "type": "address"
        },
        {
          "internalType": "uint256",
          "name": "royaltyAmount",
          "type": "uint256"
        }
      ],
      "stateMutability": "view",
      "type": "function",
      "constant": true
    },
    {
      "inputs": [
        {
          "internalType": "address",
          "name": "from",
          "type": "address"
        },
        {
          "internalType": "address",
          "name": "to",
          "type": "address"
        },
        {
          "internalType": "uint256",
          "name": "tokenId",
          "type": "uint256"
        }
      ],
      "name": "safeTransferFrom",
      "outputs": [],
      "stateMutability": "nonpayable",
      "type": "function"
    },
    {
      "inputs": [
        {
          "internalType": "address",
          "name": "from",
          "type": "address"
        },
        {
          "internalType": "address",
          "name": "to",
          "type": "address"
        },
        {
          "internalType": "uint256",
          "name": "tokenId",
          "type": "uint256"
        },
        {
          "internalType": "bytes",
          "name": "_data",
          "type": "bytes"
        }
      ],
      "name": "safeTransferFrom",
      "outputs": [],
      "stateMutability": "nonpayable",
      "type": "function"
    },
    {
      "inputs": [
        {
          "internalType": "address",
          "name": "operator",
          "type": "address"
        },
        {
          "internalType": "bool",
          "name": "approved",
          "type": "bool"
        }
      ],
      "name": "setApprovalForAll",
      "outputs": [],
      "stateMutability": "nonpayable",
      "type": "function"
    },
    {
      "inputs": [],
      "name": "symbol",
      "outputs": [
        {
          "internalType": "string",
          "name": "",
          "type": "string"
        }
      ],
      "stateMutability": "view",
      "type": "function",
      "constant": true
    },
    {
      "inputs": [
        {
          "internalType": "uint256",
          "name": "tokenId",
          "type": "uint256"
        }
      ],
      "name": "tokenURI",
      "outputs": [
        {
          "internalType": "string",
          "name": "",
          "type": "string"
        }
      ],
      "stateMutability": "view",
      "type": "function",
      "constant": true
    },
    {
      "inputs": [
        {
          "internalType": "address",
          "name": "from",
          "type": "address"
        },
        {
          "internalType": "address",
          "name": "to",
          "type": "address"
        },
        {
          "internalType": "uint256",
          "name": "tokenId",
          "type": "uint256"
        }
      ],
      "name": "transferFrom",
      "outputs": [],
      "stateMutability": "nonpayable",
      "type": "function"
    },
    {
      "inputs": [
        {
          "internalType": "address",
          "name": "newOwner",
          "type": "address"
        }
      ],
      "name": "transferOwnership",
      "outputs": [],
      "stateMutability": "nonpayable",
      "type": "function"
    },
    {
      "inputs": [
        {
          "internalType": "bytes4",
          "name": "interfaceId",
          "type": "bytes4"
        }
      ],
      "name": "supportsInterface",
      "outputs": [
        {
          "internalType": "bool",
          "name": "",
          "type": "bool"
        }
      ],
      "stateMutability": "view",
      "type": "function",
      "constant": true
    },
    {
      "inputs": [
        {
          "internalType": "address",
          "name": "recipient",
          "type": "address"
        },
        {
          "internalType": "string",
          "name": "tokenURI",
          "type": "string"
        }
      ],
      "name": "mintNFT",
      "outputs": [
        {
          "internalType": "uint256",
          "name": "",
          "type": "uint256"
        }
      ],
      "stateMutability": "nonpayable",
      "type": "function"
    },
    {
      "inputs": [
        {
          "internalType": "address",
          "name": "to",
          "type": "address"
        },
        {
          "internalType": "address",
          "name": "royaltyRecipient",
          "type": "address"
        },
        {
          "internalType": "uint256",
          "name": "royaltyValue",
          "type": "uint256"
        },
        {
          "internalType": "string",
          "name": "tokenURI",
          "type": "string"
        }
      ],
      "name": "mintNFTWithRoyalty",
      "outputs": [
        {
          "internalType": "uint256",
          "name": "",
          "type": "uint256"
        }
      ],
      "stateMutability": "nonpayable",
      "type": "function"
    },
    {
      "inputs": [
        {
          "internalType": "uint256",
          "name": "antiqueId",
          "type": "uint256"
        }
      ],
      "name": "endAuction",
      "outputs": [
        {
          "internalType": "bool",
          "name": "success",
          "type": "bool"
        }
      ],
      "stateMutability": "nonpayable",
      "type": "function"
    }
  ],
  "bytecode": "0x60806040523480156200001157600080fd5b5060405162003ad638038062003ad68339818101604052810190620000379190620003a5565b6040518060400160405280600b81526020017f4d7920416e7469717565730000000000000000000000000000000000000000008152506040518060400160405280600b81526020017f414e54495155452d4e46540000000000000000000000000000000000000000008152508160009080519060200190620000bb929190620002c7565b508060019080519060200190620000d4929190620002c7565b505050620000f7620000eb620001f960201b60201c565b6200020160201b60201c565b80600a60006101000a81548173ffffffffffffffffffffffffffffffffffffffff021916908373ffffffffffffffffffffffffffffffffffffffff1602179055506000600a60009054906101000a900473ffffffffffffffffffffffffffffffffffffffff1690508073ffffffffffffffffffffffffffffffffffffffff1663e3b547a4306040518263ffffffff1660e01b81526004016200019a91906200040e565b602060405180830381600087803b158015620001b557600080fd5b505af1158015620001ca573d6000803e3d6000fd5b505050506040513d601f19601f82011682018060405250810190620001f09190620003d1565b50505062000504565b600033905090565b6000600760009054906101000a900473ffffffffffffffffffffffffffffffffffffffff16905081600760006101000a81548173ffffffffffffffffffffffffffffffffffffffff021916908373ffffffffffffffffffffffffffffffffffffffff1602179055508173ffffffffffffffffffffffffffffffffffffffff168173ffffffffffffffffffffffffffffffffffffffff167f8be0079c531659141344cd1fd0a4f28419497f9722a3daafe3b4186f6b6457e060405160405180910390a35050565b828054620002d5906200046b565b90600052602060002090601f016020900481019282620002f9576000855562000345565b82601f106200031457805160ff191683800117855562000345565b8280016001018555821562000345579182015b828111156200034457825182559160200191906001019062000327565b5b50905062000354919062000358565b5090565b5b808211156200037357600081600090555060010162000359565b5090565b6000815190506200038881620004d0565b92915050565b6000815190506200039f81620004ea565b92915050565b600060208284031215620003b857600080fd5b6000620003c88482850162000377565b91505092915050565b600060208284031215620003e457600080fd5b6000620003f4848285016200038e565b91505092915050565b62000408816200042b565b82525050565b6000602082019050620004256000830184620003fd565b92915050565b600062000438826200044b565b9050919050565b60008115159050919050565b600073ffffffffffffffffffffffffffffffffffffffff82169050919050565b600060028204905060018216806200048457607f821691505b602082108114156200049b576200049a620004a1565b5b50919050565b7f4e487b7100000000000000000000000000000000000000000000000000000000600052602260045260246000fd5b620004db816200042b565b8114620004e757600080fd5b50565b620004f5816200043f565b81146200050157600080fd5b50565b6135c280620005146000396000f3fe608060405234801561001057600080fd5b50600436106101075760003560e01c806301ffc9a71461010c57806306fdde031461013c578063081812fc1461015a578063095ea7b31461018a57806323b872dd146101a65780632a55205a146101c257806340576ba2146101f357806342842e0e146102235780636352211e1461023f57806370a082311461026f578063715018a61461029f5780638da5cb5b146102a957806395d89b41146102c7578063a1794bcd146102e5578063a22cb46514610303578063b88d4fde1461031f578063b9a2de3a1461033b578063c87b56dd1461036b578063e985e9c51461039b578063eacabe14146103cb578063f2fde38b146103fb575b600080fd5b61012660048036038101906101219190612446565b610417565b604051610133919061291a565b60405180910390f35b610144610429565b6040516101519190612935565b60405180910390f35b610174600480360381019061016f9190612498565b6104bb565b604051610181919061288a565b60405180910390f35b6101a4600480360381019061019f919061240a565b610540565b005b6101c060048036038101906101bb91906121e6565b610658565b005b6101dc60048036038101906101d791906124c1565b6106b8565b6040516101ea9291906128f1565b60405180910390f35b61020d600480360381019061020891906122ff565b610789565b60405161021a9190612bb7565b60405180910390f35b61023d600480360381019061023891906121e6565b6107b9565b005b61025960048036038101906102549190612498565b6107d9565b604051610266919061288a565b60405180910390f35b61028960048036038101906102849190612181565b61088b565b6040516102969190612bb7565b60405180910390f35b6102a7610943565b005b6102b16109cb565b6040516102be919061288a565b60405180910390f35b6102cf6109f5565b6040516102dc9190612935565b60405180910390f35b6102ed610a87565b6040516102fa919061288a565b60405180910390f35b61031d6004803603810190610318919061237a565b610aad565b005b61033960048036038101906103349190612284565b610ac3565b005b61035560048036038101906103509190612498565b610b25565b604051610362919061291a565b60405180910390f35b61038560048036038101906103809190612498565b610c01565b6040516103929190612935565b60405180910390f35b6103b560048036038101906103b091906121aa565b610d53565b6040516103c2919061291a565b60405180910390f35b6103e560048036038101906103e091906123b6565b610de7565b6040516103f29190612bb7565b60405180910390f35b61041560048036038101906104109190612181565b610e1f565b005b600061042282610f17565b9050919050565b60606000805461043890612e67565b80601f016020809104026020016040519081016040528092919081815260200182805461046490612e67565b80156104b15780601f10610486576101008083540402835291602001916104b1565b820191906000526020600020905b81548152906001019060200180831161049457829003601f168201915b5050505050905090565b60006104c682610f91565b610505576040517f08c379a00000000000000000000000000000000000000000000000000000000081526004016104fc90612b17565b60405180910390fd5b6004600083815260200190815260200160002060009054906101000a900473ffffffffffffffffffffffffffffffffffffffff169050919050565b600061054b826107d9565b90508073ffffffffffffffffffffffffffffffffffffffff168373ffffffffffffffffffffffffffffffffffffffff1614156105bc576040517f08c379a00000000000000000000000000000000000000000000000000000000081526004016105b390612b77565b60405180910390fd5b8073ffffffffffffffffffffffffffffffffffffffff166105db610ffd565b73ffffffffffffffffffffffffffffffffffffffff16148061060a575061060981610604610ffd565b610d53565b5b610649576040517f08c379a000000000000000000000000000000000000000000000000000000000815260040161064090612a57565b60405180910390fd5b6106538383611005565b505050565b610669610663610ffd565b826110be565b6106a8576040517f08c379a000000000000000000000000000000000000000000000000000000000815260040161069f90612b97565b60405180910390fd5b6106b383838361119c565b505050565b6000806000600860008681526020019081526020016000206040518060400160405290816000820160009054906101000a900473ffffffffffffffffffffffffffffffffffffffff1673ffffffffffffffffffffffffffffffffffffffff1673ffffffffffffffffffffffffffffffffffffffff1681526020016000820160149054906101000a900462ffffff1662ffffff1662ffffff1681525050905080600001519250612710816020015162ffffff16856107759190612d23565b61077f9190612cf2565b9150509250929050565b6000806107968684610de7565b905060008411156107ad576107ac818686611403565b5b80915050949350505050565b6107d483838360405180602001604052806000815250610ac3565b505050565b6000806002600084815260200190815260200160002060009054906101000a900473ffffffffffffffffffffffffffffffffffffffff169050600073ffffffffffffffffffffffffffffffffffffffff168173ffffffffffffffffffffffffffffffffffffffff161415610882576040517f08c379a000000000000000000000000000000000000000000000000000000000815260040161087990612a97565b60405180910390fd5b80915050919050565b60008073ffffffffffffffffffffffffffffffffffffffff168273ffffffffffffffffffffffffffffffffffffffff1614156108fc576040517f08c379a00000000000000000000000000000000000000000000000000000000081526004016108f390612a77565b60405180910390fd5b600360008373ffffffffffffffffffffffffffffffffffffffff1673ffffffffffffffffffffffffffffffffffffffff168152602001908152602001600020549050919050565b61094b610ffd565b73ffffffffffffffffffffffffffffffffffffffff166109696109cb565b73ffffffffffffffffffffffffffffffffffffffff16146109bf576040517f08c379a00000000000000000000000000000000000000000000000000000000081526004016109b690612b37565b60405180910390fd5b6109c960006114ff565b565b6000600760009054906101000a900473ffffffffffffffffffffffffffffffffffffffff16905090565b606060018054610a0490612e67565b80601f0160208091040260200160405190810160405280929190818152602001828054610a3090612e67565b8015610a7d5780601f10610a5257610100808354040283529160200191610a7d565b820191906000526020600020905b815481529060010190602001808311610a6057829003601f168201915b5050505050905090565b600a60009054906101000a900473ffffffffffffffffffffffffffffffffffffffff1681565b610abf610ab8610ffd565b83836115c5565b5050565b610ad4610ace610ffd565b836110be565b610b13576040517f08c379a0000000000000000000000000000000000000000000000000000000008152600401610b0a90612b97565b60405180910390fd5b610b1f84848484611732565b50505050565b6000806000806000600a60009054906101000a900473ffffffffffffffffffffffffffffffffffffffff1690508073ffffffffffffffffffffffffffffffffffffffff166337cc7c18876040518263ffffffff1660e01b8152600401610b8b9190612bb7565b606060405180830381600087803b158015610ba557600080fd5b505af1158015610bb9573d6000803e3d6000fd5b505050506040513d601f19601f82011682018060405250810190610bdd9190612235565b809450819550829650505050610bf4338484610658565b6001945050505050919050565b6060610c0c82610f91565b610c4b576040517f08c379a0000000000000000000000000000000000000000000000000000000008152600401610c4290612af7565b60405180910390fd5b6000600660008481526020019081526020016000208054610c6b90612e67565b80601f0160208091040260200160405190810160405280929190818152602001828054610c9790612e67565b8015610ce45780601f10610cb957610100808354040283529160200191610ce4565b820191906000526020600020905b815481529060010190602001808311610cc757829003601f168201915b505050505090506000610cf561178e565b9050600081511415610d0b578192505050610d4e565b600082511115610d40578082604051602001610d28929190612866565b60405160208183030381529060405292505050610d4e565b610d49846117a5565b925050505b919050565b6000600560008473ffffffffffffffffffffffffffffffffffffffff1673ffffffffffffffffffffffffffffffffffffffff16815260200190815260200160002060008373ffffffffffffffffffffffffffffffffffffffff1673ffffffffffffffffffffffffffffffffffffffff16815260200190815260200160002060009054906101000a900460ff16905092915050565b6000610df3600961184c565b6000610dff6009611862565b9050610e0b8482611870565b610e158184611a4a565b8091505092915050565b610e27610ffd565b73ffffffffffffffffffffffffffffffffffffffff16610e456109cb565b73ffffffffffffffffffffffffffffffffffffffff1614610e9b576040517f08c379a0000000000000000000000000000000000000000000000000000000008152600401610e9290612b37565b60405180910390fd5b600073ffffffffffffffffffffffffffffffffffffffff168173ffffffffffffffffffffffffffffffffffffffff161415610f0b576040517f08c379a0000000000000000000000000000000000000000000000000000000008152600401610f0290612997565b60405180910390fd5b610f14816114ff565b50565b60007f2a55205a000000000000000000000000000000000000000000000000000000007bffffffffffffffffffffffffffffffffffffffffffffffffffffffff1916827bffffffffffffffffffffffffffffffffffffffffffffffffffffffff19161480610f8a5750610f8982611abe565b5b9050919050565b60008073ffffffffffffffffffffffffffffffffffffffff166002600084815260200190815260200160002060009054906101000a900473ffffffffffffffffffffffffffffffffffffffff1673ffffffffffffffffffffffffffffffffffffffff1614159050919050565b600033905090565b816004600083815260200190815260200160002060006101000a81548173ffffffffffffffffffffffffffffffffffffffff021916908373ffffffffffffffffffffffffffffffffffffffff160217905550808273ffffffffffffffffffffffffffffffffffffffff16611078836107d9565b73ffffffffffffffffffffffffffffffffffffffff167f8c5be1e5ebec7d5bd14f71427d1e84f3dd0314c0f7b2291e5b200ac8c7c3b92560405160405180910390a45050565b60006110c982610f91565b611108576040517f08c379a00000000000000000000000000000000000000000000000000000000081526004016110ff90612a37565b60405180910390fd5b6000611113836107d9565b90508073ffffffffffffffffffffffffffffffffffffffff168473ffffffffffffffffffffffffffffffffffffffff16148061115557506111548185610d53565b5b8061119357508373ffffffffffffffffffffffffffffffffffffffff1661117b846104bb565b73ffffffffffffffffffffffffffffffffffffffff16145b91505092915050565b8273ffffffffffffffffffffffffffffffffffffffff166111bc826107d9565b73ffffffffffffffffffffffffffffffffffffffff1614611212576040517f08c379a0000000000000000000000000000000000000000000000000000000008152600401611209906129b7565b60405180910390fd5b600073ffffffffffffffffffffffffffffffffffffffff168273ffffffffffffffffffffffffffffffffffffffff161415611282576040517f08c379a0000000000000000000000000000000000000000000000000000000008152600401611279906129f7565b60405180910390fd5b61128d838383611ba0565b611298600082611005565b6001600360008573ffffffffffffffffffffffffffffffffffffffff1673ffffffffffffffffffffffffffffffffffffffff16815260200190815260200160002060008282546112e89190612d7d565b925050819055506001600360008473ffffffffffffffffffffffffffffffffffffffff1673ffffffffffffffffffffffffffffffffffffffff168152602001908152602001600020600082825461133f9190612c9c565b92505081905550816002600083815260200190815260200160002060006101000a81548173ffffffffffffffffffffffffffffffffffffffff021916908373ffffffffffffffffffffffffffffffffffffffff160217905550808273ffffffffffffffffffffffffffffffffffffffff168473ffffffffffffffffffffffffffffffffffffffff167fddf252ad1be2c89b69c2b068fc378daa952ba7f163c4a11628f55a4df523b3ef60405160405180910390a46113fe838383611ba5565b505050565b612710811115611448576040517f08c379a000000000000000000000000000000000000000000000000000000000815260040161143f90612957565b60405180910390fd5b60405180604001604052808373ffffffffffffffffffffffffffffffffffffffff1681526020018262ffffff168152506008600085815260200190815260200160002060008201518160000160006101000a81548173ffffffffffffffffffffffffffffffffffffffff021916908373ffffffffffffffffffffffffffffffffffffffff16021790555060208201518160000160146101000a81548162ffffff021916908362ffffff160217905550905050505050565b6000600760009054906101000a900473ffffffffffffffffffffffffffffffffffffffff16905081600760006101000a81548173ffffffffffffffffffffffffffffffffffffffff021916908373ffffffffffffffffffffffffffffffffffffffff1602179055508173ffffffffffffffffffffffffffffffffffffffff168173ffffffffffffffffffffffffffffffffffffffff167f8be0079c531659141344cd1fd0a4f28419497f9722a3daafe3b4186f6b6457e060405160405180910390a35050565b8173ffffffffffffffffffffffffffffffffffffffff168373ffffffffffffffffffffffffffffffffffffffff161415611634576040517f08c379a000000000000000000000000000000000000000000000000000000000815260040161162b90612a17565b60405180910390fd5b80600560008573ffffffffffffffffffffffffffffffffffffffff1673ffffffffffffffffffffffffffffffffffffffff16815260200190815260200160002060008473ffffffffffffffffffffffffffffffffffffffff1673ffffffffffffffffffffffffffffffffffffffff16815260200190815260200160002060006101000a81548160ff0219169083151502179055508173ffffffffffffffffffffffffffffffffffffffff168373ffffffffffffffffffffffffffffffffffffffff167f17307eab39ab6107e8899845ad3d59bd9653f200f220920489ca2b5937696c3183604051611725919061291a565b60405180910390a3505050565b61173d84848461119c565b61174984848484611baa565b611788576040517f08c379a000000000000000000000000000000000000000000000000000000000815260040161177f90612977565b60405180910390fd5b50505050565b606060405180602001604052806000815250905090565b60606117b082610f91565b6117ef576040517f08c379a00000000000000000000000000000000000000000000000000000000081526004016117e690612b57565b60405180910390fd5b60006117f961178e565b905060008151116118195760405180602001604052806000815250611844565b8061182384611d41565b604051602001611834929190612866565b6040516020818303038152906040525b915050919050565b6001816000016000828254019250508190555050565b600081600001549050919050565b600073ffffffffffffffffffffffffffffffffffffffff168273ffffffffffffffffffffffffffffffffffffffff1614156118e0576040517f08c379a00000000000000000000000000000000000000000000000000000000081526004016118d790612ad7565b60405180910390fd5b6118e981610f91565b15611929576040517f08c379a0000000000000000000000000000000000000000000000000000000008152600401611920906129d7565b60405180910390fd5b61193560008383611ba0565b6001600360008473ffffffffffffffffffffffffffffffffffffffff1673ffffffffffffffffffffffffffffffffffffffff16815260200190815260200160002060008282546119859190612c9c565b92505081905550816002600083815260200190815260200160002060006101000a81548173ffffffffffffffffffffffffffffffffffffffff021916908373ffffffffffffffffffffffffffffffffffffffff160217905550808273ffffffffffffffffffffffffffffffffffffffff16600073ffffffffffffffffffffffffffffffffffffffff167fddf252ad1be2c89b69c2b068fc378daa952ba7f163c4a11628f55a4df523b3ef60405160405180910390a4611a4660008383611ba5565b5050565b611a5382610f91565b611a92576040517f08c379a0000000000000000000000000000000000000000000000000000000008152600401611a8990612ab7565b60405180910390fd5b80600660008481526020019081526020016000209080519060200190611ab9929190611f7b565b505050565b60007f80ac58cd000000000000000000000000000000000000000000000000000000007bffffffffffffffffffffffffffffffffffffffffffffffffffffffff1916827bffffffffffffffffffffffffffffffffffffffffffffffffffffffff19161480611b8957507f5b5e139f000000000000000000000000000000000000000000000000000000007bffffffffffffffffffffffffffffffffffffffffffffffffffffffff1916827bffffffffffffffffffffffffffffffffffffffffffffffffffffffff1916145b80611b995750611b9882611eee565b5b9050919050565b505050565b505050565b6000611bcb8473ffffffffffffffffffffffffffffffffffffffff16611f58565b15611d34578373ffffffffffffffffffffffffffffffffffffffff1663150b7a02611bf4610ffd565b8786866040518563ffffffff1660e01b8152600401611c1694939291906128a5565b602060405180830381600087803b158015611c3057600080fd5b505af1925050508015611c6157506040513d601f19601f82011682018060405250810190611c5e919061246f565b60015b611ce4573d8060008114611c91576040519150601f19603f3d011682016040523d82523d6000602084013e611c96565b606091505b50600081511415611cdc576040517f08c379a0000000000000000000000000000000000000000000000000000000008152600401611cd390612977565b60405180910390fd5b805181602001fd5b63150b7a0260e01b7bffffffffffffffffffffffffffffffffffffffffffffffffffffffff1916817bffffffffffffffffffffffffffffffffffffffffffffffffffffffff191614915050611d39565b600190505b949350505050565b60606000821415611d89576040518060400160405280600181526020017f30000000000000000000000000000000000000000000000000000000000000008152509050611ee9565b600082905060005b60008214611dbb578080611da490612eca565b915050600a82611db49190612cf2565b9150611d91565b60008167ffffffffffffffff811115611dfd577f4e487b7100000000000000000000000000000000000000000000000000000000600052604160045260246000fd5b6040519080825280601f01601f191660200182016040528015611e2f5781602001600182028036833780820191505090505b5090505b60008514611ee257600182611e489190612d7d565b9150600a85611e579190612f13565b6030611e639190612c9c565b60f81b818381518110611e9f577f4e487b7100000000000000000000000000000000000000000000000000000000600052603260045260246000fd5b60200101907effffffffffffffffffffffffffffffffffffffffffffffffffffffffffffff1916908160001a905350600a85611edb9190612cf2565b9450611e33565b8093505050505b919050565b60007f01ffc9a7000000000000000000000000000000000000000000000000000000007bffffffffffffffffffffffffffffffffffffffffffffffffffffffff1916827bffffffffffffffffffffffffffffffffffffffffffffffffffffffff1916149050919050565b6000808273ffffffffffffffffffffffffffffffffffffffff163b119050919050565b828054611f8790612e67565b90600052602060002090601f016020900481019282611fa95760008555611ff0565b82601f10611fc257805160ff1916838001178555611ff0565b82800160010185558215611ff0579182015b82811115611fef578251825591602001919060010190611fd4565b5b509050611ffd9190612001565b5090565b5b8082111561201a576000816000905550600101612002565b5090565b600061203161202c84612bf7565b612bd2565b90508281526020810184848401111561204957600080fd5b612054848285612e25565b509392505050565b600061206f61206a84612c28565b612bd2565b90508281526020810184848401111561208757600080fd5b612092848285612e25565b509392505050565b6000813590506120a981613530565b92915050565b6000815190506120be81613530565b92915050565b6000813590506120d381613547565b92915050565b6000813590506120e88161355e565b92915050565b6000815190506120fd8161355e565b92915050565b600082601f83011261211457600080fd5b813561212484826020860161201e565b91505092915050565b600082601f83011261213e57600080fd5b813561214e84826020860161205c565b91505092915050565b60008135905061216681613575565b92915050565b60008151905061217b81613575565b92915050565b60006020828403121561219357600080fd5b60006121a18482850161209a565b91505092915050565b600080604083850312156121bd57600080fd5b60006121cb8582860161209a565b92505060206121dc8582860161209a565b9150509250929050565b6000806000606084860312156121fb57600080fd5b60006122098682870161209a565b935050602061221a8682870161209a565b925050604061222b86828701612157565b9150509250925092565b60008060006060848603121561224a57600080fd5b6000612258868287016120af565b9350506020612269868287016120af565b925050604061227a8682870161216c565b9150509250925092565b6000806000806080858703121561229a57600080fd5b60006122a88782880161209a565b94505060206122b98782880161209a565b93505060406122ca87828801612157565b925050606085013567ffffffffffffffff8111156122e757600080fd5b6122f387828801612103565b91505092959194509250565b6000806000806080858703121561231557600080fd5b60006123238782880161209a565b94505060206123348782880161209a565b935050604061234587828801612157565b925050606085013567ffffffffffffffff81111561236257600080fd5b61236e8782880161212d565b91505092959194509250565b6000806040838503121561238d57600080fd5b600061239b8582860161209a565b92505060206123ac858286016120c4565b9150509250929050565b600080604083850312156123c957600080fd5b60006123d78582860161209a565b925050602083013567ffffffffffffffff8111156123f457600080fd5b6124008582860161212d565b9150509250929050565b6000806040838503121561241d57600080fd5b600061242b8582860161209a565b925050602061243c85828601612157565b9150509250929050565b60006020828403121561245857600080fd5b6000612466848285016120d9565b91505092915050565b60006020828403121561248157600080fd5b600061248f848285016120ee565b91505092915050565b6000602082840312156124aa57600080fd5b60006124b884828501612157565b91505092915050565b600080604083850312156124d457600080fd5b60006124e285828601612157565b92505060206124f385828601612157565b9150509250929050565b61250681612db1565b82525050565b61251581612dc3565b82525050565b600061252682612c59565b6125308185612c6f565b9350612540818560208601612e34565b61254981613000565b840191505092915050565b600061255f82612c64565b6125698185612c80565b9350612579818560208601612e34565b61258281613000565b840191505092915050565b600061259882612c64565b6125a28185612c91565b93506125b2818560208601612e34565b80840191505092915050565b60006125cb601a83612c80565b91506125d682613011565b602082019050919050565b60006125ee603283612c80565b91506125f98261303a565b604082019050919050565b6000612611602683612c80565b915061261c82613089565b604082019050919050565b6000612634602583612c80565b915061263f826130d8565b604082019050919050565b6000612657601c83612c80565b915061266282613127565b602082019050919050565b600061267a602483612c80565b915061268582613150565b604082019050919050565b600061269d601983612c80565b91506126a88261319f565b602082019050919050565b60006126c0602c83612c80565b91506126cb826131c8565b604082019050919050565b60006126e3603883612c80565b91506126ee82613217565b604082019050919050565b6000612706602a83612c80565b915061271182613266565b604082019050919050565b6000612729602983612c80565b9150612734826132b5565b604082019050919050565b600061274c602e83612c80565b915061275782613304565b604082019050919050565b600061276f602083612c80565b915061277a82613353565b602082019050919050565b6000612792603183612c80565b915061279d8261337c565b604082019050919050565b60006127b5602c83612c80565b91506127c0826133cb565b604082019050919050565b60006127d8602083612c80565b91506127e38261341a565b602082019050919050565b60006127fb602f83612c80565b915061280682613443565b604082019050919050565b600061281e602183612c80565b915061282982613492565b604082019050919050565b6000612841603183612c80565b915061284c826134e1565b604082019050919050565b61286081612e1b565b82525050565b6000612872828561258d565b915061287e828461258d565b91508190509392505050565b600060208201905061289f60008301846124fd565b92915050565b60006080820190506128ba60008301876124fd565b6128c760208301866124fd565b6128d46040830185612857565b81810360608301526128e6818461251b565b905095945050505050565b600060408201905061290660008301856124fd565b6129136020830184612857565b9392505050565b600060208201905061292f600083018461250c565b92915050565b6000602082019050818103600083015261294f8184612554565b905092915050565b60006020820190508181036000830152612970816125be565b9050919050565b60006020820190508181036000830152612990816125e1565b9050919050565b600060208201905081810360008301526129b081612604565b9050919050565b600060208201905081810360008301526129d081612627565b9050919050565b600060208201905081810360008301526129f08161264a565b9050919050565b60006020820190508181036000830152612a108161266d565b9050919050565b60006020820190508181036000830152612a3081612690565b9050919050565b60006020820190508181036000830152612a50816126b3565b9050919050565b60006020820190508181036000830152612a70816126d6565b9050919050565b60006020820190508181036000830152612a90816126f9565b9050919050565b60006020820190508181036000830152612ab08161271c565b9050919050565b60006020820190508181036000830152612ad08161273f565b9050919050565b60006020820190508181036000830152612af081612762565b9050919050565b60006020820190508181036000830152612b1081612785565b9050919050565b60006020820190508181036000830152612b30816127a8565b9050919050565b60006020820190508181036000830152612b50816127cb565b9050919050565b60006020820190508181036000830152612b70816127ee565b9050919050565b60006020820190508181036000830152612b9081612811565b9050919050565b60006020820190508181036000830152612bb081612834565b9050919050565b6000602082019050612bcc6000830184612857565b92915050565b6000612bdc612bed565b9050612be88282612e99565b919050565b6000604051905090565b600067ffffffffffffffff821115612c1257612c11612fd1565b5b612c1b82613000565b9050602081019050919050565b600067ffffffffffffffff821115612c4357612c42612fd1565b5b612c4c82613000565b9050602081019050919050565b600081519050919050565b600081519050919050565b600082825260208201905092915050565b600082825260208201905092915050565b600081905092915050565b6000612ca782612e1b565b9150612cb283612e1b565b9250827fffffffffffffffffffffffffffffffffffffffffffffffffffffffffffffffff03821115612ce757612ce6612f44565b5b828201905092915050565b6000612cfd82612e1b565b9150612d0883612e1b565b925082612d1857612d17612f73565b5b828204905092915050565b6000612d2e82612e1b565b9150612d3983612e1b565b9250817fffffffffffffffffffffffffffffffffffffffffffffffffffffffffffffffff0483118215151615612d7257612d71612f44565b5b828202905092915050565b6000612d8882612e1b565b9150612d9383612e1b565b925082821015612da657612da5612f44565b5b828203905092915050565b6000612dbc82612dfb565b9050919050565b60008115159050919050565b60007fffffffff0000000000000000000000000000000000000000000000000000000082169050919050565b600073ffffffffffffffffffffffffffffffffffffffff82169050919050565b6000819050919050565b82818337600083830152505050565b60005b83811015612e52578082015181840152602081019050612e37565b83811115612e61576000848401525b50505050565b60006002820490506001821680612e7f57607f821691505b60208210811415612e9357612e92612fa2565b5b50919050565b612ea282613000565b810181811067ffffffffffffffff82111715612ec157612ec0612fd1565b5b80604052505050565b6000612ed582612e1b565b91507fffffffffffffffffffffffffffffffffffffffffffffffffffffffffffffffff821415612f0857612f07612f44565b5b600182019050919050565b6000612f1e82612e1b565b9150612f2983612e1b565b925082612f3957612f38612f73565b5b828206905092915050565b7f4e487b7100000000000000000000000000000000000000000000000000000000600052601160045260246000fd5b7f4e487b7100000000000000000000000000000000000000000000000000000000600052601260045260246000fd5b7f4e487b7100000000000000000000000000000000000000000000000000000000600052602260045260246000fd5b7f4e487b7100000000000000000000000000000000000000000000000000000000600052604160045260246000fd5b6000601f19601f8301169050919050565b7f45524332393831526f79616c746965733a20546f6f2068696768000000000000600082015250565b7f4552433732313a207472616e7366657220746f206e6f6e20455243373231526560008201527f63656976657220696d706c656d656e7465720000000000000000000000000000602082015250565b7f4f776e61626c653a206e6577206f776e657220697320746865207a65726f206160008201527f6464726573730000000000000000000000000000000000000000000000000000602082015250565b7f4552433732313a207472616e736665722066726f6d20696e636f72726563742060008201527f6f776e6572000000000000000000000000000000000000000000000000000000602082015250565b7f4552433732313a20746f6b656e20616c7265616479206d696e74656400000000600082015250565b7f4552433732313a207472616e7366657220746f20746865207a65726f2061646460008201527f7265737300000000000000000000000000000000000000000000000000000000602082015250565b7f4552433732313a20617070726f766520746f2063616c6c657200000000000000600082015250565b7f4552433732313a206f70657261746f7220717565727920666f72206e6f6e657860008201527f697374656e7420746f6b656e0000000000000000000000000000000000000000602082015250565b7f4552433732313a20617070726f76652063616c6c6572206973206e6f74206f7760008201527f6e6572206e6f7220617070726f76656420666f7220616c6c0000000000000000602082015250565b7f4552433732313a2062616c616e636520717565727920666f7220746865207a6560008201527f726f206164647265737300000000000000000000000000000000000000000000602082015250565b7f4552433732313a206f776e657220717565727920666f72206e6f6e657869737460008201527f656e7420746f6b656e0000000000000000000000000000000000000000000000602082015250565b7f45524337323155524953746f726167653a2055524920736574206f66206e6f6e60008201527f6578697374656e7420746f6b656e000000000000000000000000000000000000602082015250565b7f4552433732313a206d696e7420746f20746865207a65726f2061646472657373600082015250565b7f45524337323155524953746f726167653a2055524920717565727920666f722060008201527f6e6f6e6578697374656e7420746f6b656e000000000000000000000000000000602082015250565b7f4552433732313a20617070726f76656420717565727920666f72206e6f6e657860008201527f697374656e7420746f6b656e0000000000000000000000000000000000000000602082015250565b7f4f776e61626c653a2063616c6c6572206973206e6f7420746865206f776e6572600082015250565b7f4552433732314d657461646174613a2055524920717565727920666f72206e6f60008201527f6e6578697374656e7420746f6b656e0000000000000000000000000000000000602082015250565b7f4552433732313a20617070726f76616c20746f2063757272656e74206f776e6560008201527f7200000000000000000000000000000000000000000000000000000000000000602082015250565b7f4552433732313a207472616e736665722063616c6c6572206973206e6f74206f60008201527f776e6572206e6f7220617070726f766564000000000000000000000000000000602082015250565b61353981612db1565b811461354457600080fd5b50565b61355081612dc3565b811461355b57600080fd5b50565b61356781612dcf565b811461357257600080fd5b50565b61357e81612e1b565b811461358957600080fd5b5056fea264697066735822122013e0e5ada8f7967b9d82d323eb04ddaa5436ca8432840c1bcc960380255ead3664736f6c63430008010033",
  "immutableReferences": {},
  "source": "//Contract based on [https://docs.openzeppelin.com/contracts/3.x/erc721](https://docs.openzeppelin.com/contracts/3.x/erc721)\n// SPDX-License-Identifier: MIT\npragma solidity ^0.8.1;\n\nimport '@openzeppelin/contracts/token/ERC721/ERC721.sol';\nimport '@openzeppelin/contracts/utils/Counters.sol';\nimport '@openzeppelin/contracts/access/Ownable.sol';\nimport '@openzeppelin/contracts/token/ERC721/extensions/ERC721URIStorage.sol';\nimport './AnyNFT.sol';\nimport './ERC2981PerTokenRoyalties.sol';\n\ncontract AntiqueNFT is\n    AnyNFT,\n    ERC721URIStorage,\n    Ownable,\n    ERC2981PerTokenRoyalties\n{\n    using Counters for Counters.Counter;\n    Counters.Counter private _tokenIds;\n    address public marketContract;\n\n    constructor(address _marketContract) ERC721('My Antiques', 'ANTIQUE-NFT') {\n        marketContract = _marketContract;\n        AnyNFTMarket market = AnyNFTMarket(marketContract);\n        market.NFTContractDeployed(address(this));\n    }\n\n    /// @inheritdoc     ERC165\n    function supportsInterface(bytes4 interfaceId)\n        public\n        view\n        virtual\n        override(IERC165, ERC721, ERC2981Base)\n        returns (bool)\n    {\n        return super.supportsInterface(interfaceId);\n    }\n\n    function mintNFT(address recipient, string memory tokenURI)\n        public\n        override\n        returns (uint256)\n    {\n        _tokenIds.increment();\n\n        uint256 newItemId = _tokenIds.current();\n        _mint(recipient, newItemId);\n        _setTokenURI(newItemId, tokenURI);\n\n        return newItemId;\n    }\n\n    /// @notice Mint one token to `to`\n    /// @param to the recipient of the token\n    /// @param royaltyRecipient the recipient for royalties (if royaltyValue > 0)\n    /// @param royaltyValue the royalties asked for (EIP2981)\n    function mintNFTWithRoyalty(\n        address to,\n        address royaltyRecipient,\n        uint256 royaltyValue,\n        string memory tokenURI\n    ) public override returns (uint256) {\n        uint256 tokenId = mintNFT(to, tokenURI);\n\n        if (royaltyValue > 0) {\n            _setTokenRoyalty(tokenId, royaltyRecipient, royaltyValue);\n        }\n        return tokenId;\n    }\n\n    function endAuction(uint256 antiqueId) public returns (bool success) {\n        address from;\n        address to;\n        uint256 tokenId;\n        AnyNFTMarket market = AnyNFTMarket(marketContract);\n        (from, to, tokenId) = market.endAntiqueAuction(antiqueId);\n        transferFrom(msg.sender, to, tokenId);\n        return true;\n    }\n}\n",
  "sourcePath": "/Users/donghao/Documents/code/inflaton/decentralized-antique-auction/smart-contracts/contracts/AntiqueNFT.sol",
  "compiler": {
    "name": "solc",
    "version": "0.8.1+commit.df193b15.Emscripten.clang"
  },
  "schemaVersion": "3.4.7",
  "updatedAt": "2022-06-09T01:30:13.162Z",
  "networkType": "ethereum",
  "devdoc": {
    "kind": "dev",
    "methods": {
      "approve(address,uint256)": {
        "details": "See {IERC721-approve}."
      },
      "balanceOf(address)": {
        "details": "See {IERC721-balanceOf}."
      },
      "getApproved(uint256)": {
        "details": "See {IERC721-getApproved}."
      },
      "isApprovedForAll(address,address)": {
        "details": "See {IERC721-isApprovedForAll}."
      },
      "mintNFTWithRoyalty(address,address,uint256,string)": {
        "params": {
          "royaltyRecipient": "the recipient for royalties (if royaltyValue > 0)",
          "royaltyValue": "the royalties asked for (EIP2981)",
          "to": "the recipient of the token"
        }
      },
      "name()": {
        "details": "See {IERC721Metadata-name}."
      },
      "owner()": {
        "details": "Returns the address of the current owner."
      },
      "ownerOf(uint256)": {
        "details": "See {IERC721-ownerOf}."
      },
      "renounceOwnership()": {
        "details": "Leaves the contract without owner. It will not be possible to call `onlyOwner` functions anymore. Can only be called by the current owner. NOTE: Renouncing ownership will leave the contract without an owner, thereby removing any functionality that is only available to the owner."
      },
      "royaltyInfo(uint256,uint256)": {
        "params": {
          "_tokenId": "- the NFT asset queried for royalty information",
          "_value": "- the sale price of the NFT asset specified by _tokenId"
        },
        "returns": {
          "receiver": "- address of who should be sent the royalty payment",
          "royaltyAmount": "- the royalty payment amount for value sale price"
        }
      },
      "safeTransferFrom(address,address,uint256)": {
        "details": "See {IERC721-safeTransferFrom}."
      },
      "safeTransferFrom(address,address,uint256,bytes)": {
        "details": "See {IERC721-safeTransferFrom}."
      },
      "setApprovalForAll(address,bool)": {
        "details": "See {IERC721-setApprovalForAll}."
      },
      "supportsInterface(bytes4)": {
        "details": "See {IERC165-supportsInterface}."
      },
      "symbol()": {
        "details": "See {IERC721Metadata-symbol}."
      },
      "tokenURI(uint256)": {
        "details": "See {IERC721Metadata-tokenURI}."
      },
      "transferFrom(address,address,uint256)": {
        "details": "See {IERC721-transferFrom}."
      },
      "transferOwnership(address)": {
        "details": "Transfers ownership of the contract to a new account (`newOwner`). Can only be called by the current owner."
      }
    },
    "version": 1
  },
  "userdoc": {
    "kind": "user",
    "methods": {
      "mintNFTWithRoyalty(address,address,uint256,string)": {
        "notice": "Mint one token to `to`"
      }
    },
    "version": 1
  }
}