{
  "contractName": "AntiqueStore",
  "abi": [
    {
      "inputs": [],
      "stateMutability": "nonpayable",
      "type": "constructor"
    },
    {
      "anonymous": false,
      "inputs": [
        {
          "indexed": true,
          "internalType": "uint256",
          "name": "antiqueId",
          "type": "uint256"
        },
        {
          "indexed": true,
          "internalType": "address",
          "name": "highestBidder",
          "type": "address"
        },
        {
          "indexed": true,
          "internalType": "uint256",
          "name": "highestBid",
          "type": "uint256"
        }
      ],
      "name": "AuctionEnded",
      "type": "event"
    },
    {
      "anonymous": false,
      "inputs": [
        {
          "indexed": true,
          "internalType": "uint256",
          "name": "antiqueId",
          "type": "uint256"
        }
      ],
      "name": "DeleteAntique",
      "type": "event"
    },
    {
      "anonymous": false,
      "inputs": [
        {
          "indexed": true,
          "internalType": "uint256",
          "name": "antiqueId",
          "type": "uint256"
        },
        {
          "indexed": true,
          "internalType": "address",
          "name": "nftContract",
          "type": "address"
        },
        {
          "indexed": true,
          "internalType": "uint256",
          "name": "tokenId",
          "type": "uint256"
        }
      ],
      "name": "NewAntique",
      "type": "event"
    },
    {
      "anonymous": false,
      "inputs": [
        {
          "indexed": true,
          "internalType": "uint256",
          "name": "antiqueId",
          "type": "uint256"
        },
        {
          "indexed": true,
          "internalType": "address",
          "name": "bidder",
          "type": "address"
        },
        {
          "indexed": true,
          "internalType": "uint256",
          "name": "amount",
          "type": "uint256"
        }
      ],
      "name": "NewBid",
      "type": "event"
    },
    {
      "anonymous": false,
      "inputs": [
        {
          "indexed": true,
          "internalType": "uint256",
          "name": "antiqueId",
          "type": "uint256"
        },
        {
          "indexed": true,
          "internalType": "address",
          "name": "bidder",
          "type": "address"
        },
        {
          "indexed": true,
          "internalType": "uint256",
          "name": "amount",
          "type": "uint256"
        }
      ],
      "name": "NewWithdrawal",
      "type": "event"
    },
    {
      "inputs": [],
      "name": "antiqueId",
      "outputs": [
        {
          "internalType": "uint256",
          "name": "",
          "type": "uint256"
        }
      ],
      "stateMutability": "view",
      "type": "function",
      "constant": true
    },
    {
      "inputs": [
        {
          "internalType": "uint256",
          "name": "",
          "type": "uint256"
        },
        {
          "internalType": "address",
          "name": "",
          "type": "address"
        }
      ],
      "name": "antiquePendingReturns",
      "outputs": [
        {
          "internalType": "uint256",
          "name": "",
          "type": "uint256"
        }
      ],
      "stateMutability": "view",
      "type": "function",
      "constant": true
    },
    {
      "inputs": [
        {
          "internalType": "uint256",
          "name": "",
          "type": "uint256"
        }
      ],
      "name": "antiques",
      "outputs": [
        {
          "internalType": "uint256",
          "name": "id",
          "type": "uint256"
        },
        {
          "internalType": "uint256",
          "name": "tokenId",
          "type": "uint256"
        },
        {
          "internalType": "uint256",
          "name": "startingPrice",
          "type": "uint256"
        },
        {
          "internalType": "uint256",
          "name": "reservePrice",
          "type": "uint256"
        },
        {
          "internalType": "uint256",
          "name": "highestBid",
          "type": "uint256"
        },
        {
          "internalType": "address",
          "name": "highestBidder",
          "type": "address"
        },
        {
          "internalType": "address",
          "name": "owner",
          "type": "address"
        },
        {
          "internalType": "uint256",
          "name": "auctionEndTime",
          "type": "uint256"
        },
        {
          "internalType": "bool",
          "name": "forSale",
          "type": "bool"
        },
        {
          "internalType": "string",
          "name": "tokenURI",
          "type": "string"
        },
        {
          "internalType": "bool",
          "name": "auctionEnded",
          "type": "bool"
        }
      ],
      "stateMutability": "view",
      "type": "function",
      "constant": true
    },
    {
      "inputs": [],
      "name": "contractOwner",
      "outputs": [
        {
          "internalType": "address",
          "name": "",
          "type": "address"
        }
      ],
      "stateMutability": "view",
      "type": "function",
      "constant": true
    },
    {
      "inputs": [],
      "name": "nftContract",
      "outputs": [
        {
          "internalType": "address",
          "name": "",
          "type": "address"
        }
      ],
      "stateMutability": "view",
      "type": "function",
      "constant": true
    },
    {
      "inputs": [
        {
          "internalType": "address",
          "name": "_nftContract",
          "type": "address"
        }
      ],
      "name": "NFTContractDeployed",
      "outputs": [
        {
          "internalType": "bool",
          "name": "",
          "type": "bool"
        }
      ],
      "stateMutability": "nonpayable",
      "type": "function"
    },
    {
      "inputs": [
        {
          "internalType": "bool",
          "name": "forSaleOnly",
          "type": "bool"
        }
      ],
      "name": "getAntiques",
      "outputs": [
        {
          "components": [
            {
              "internalType": "uint256",
              "name": "id",
              "type": "uint256"
            },
            {
              "internalType": "uint256",
              "name": "tokenId",
              "type": "uint256"
            },
            {
              "internalType": "uint256",
              "name": "startingPrice",
              "type": "uint256"
            },
            {
              "internalType": "uint256",
              "name": "reservePrice",
              "type": "uint256"
            },
            {
              "internalType": "uint256",
              "name": "highestBid",
              "type": "uint256"
            },
            {
              "internalType": "address",
              "name": "highestBidder",
              "type": "address"
            },
            {
              "internalType": "address",
              "name": "owner",
              "type": "address"
            },
            {
              "internalType": "uint256",
              "name": "auctionEndTime",
              "type": "uint256"
            },
            {
              "internalType": "bool",
              "name": "forSale",
              "type": "bool"
            },
            {
              "internalType": "string",
              "name": "tokenURI",
              "type": "string"
            },
            {
              "internalType": "bool",
              "name": "auctionEnded",
              "type": "bool"
            }
          ],
          "internalType": "struct AntiqueStore.Antique[]",
          "name": "",
          "type": "tuple[]"
        }
      ],
      "stateMutability": "view",
      "type": "function",
      "constant": true
    },
    {
      "inputs": [
        {
          "internalType": "string",
          "name": "tokenURI",
          "type": "string"
        },
        {
          "internalType": "uint256",
          "name": "startingPrice",
          "type": "uint256"
        },
        {
          "internalType": "uint256",
          "name": "reservePrice",
          "type": "uint256"
        },
        {
          "internalType": "uint256",
          "name": "auctionEndTime",
          "type": "uint256"
        }
      ],
      "name": "sellAntique",
      "outputs": [
        {
          "internalType": "bool",
          "name": "success",
          "type": "bool"
        }
      ],
      "stateMutability": "nonpayable",
      "type": "function"
    },
    {
      "inputs": [
        {
          "internalType": "uint256",
          "name": "_antiqueId",
          "type": "uint256"
        }
      ],
      "name": "bidAntique",
      "outputs": [
        {
          "internalType": "bool",
          "name": "",
          "type": "bool"
        }
      ],
      "stateMutability": "payable",
      "type": "function",
      "payable": true
    },
    {
      "inputs": [],
      "name": "getMyBids",
      "outputs": [
        {
          "components": [
            {
              "internalType": "uint256",
              "name": "id",
              "type": "uint256"
            },
            {
              "internalType": "uint256",
              "name": "tokenId",
              "type": "uint256"
            },
            {
              "internalType": "uint256",
              "name": "startingPrice",
              "type": "uint256"
            },
            {
              "internalType": "uint256",
              "name": "reservePrice",
              "type": "uint256"
            },
            {
              "internalType": "uint256",
              "name": "highestBid",
              "type": "uint256"
            },
            {
              "internalType": "address",
              "name": "highestBidder",
              "type": "address"
            },
            {
              "internalType": "address",
              "name": "owner",
              "type": "address"
            },
            {
              "internalType": "uint256",
              "name": "auctionEndTime",
              "type": "uint256"
            },
            {
              "internalType": "bool",
              "name": "forSale",
              "type": "bool"
            },
            {
              "internalType": "string",
              "name": "tokenURI",
              "type": "string"
            },
            {
              "internalType": "bool",
              "name": "auctionEnded",
              "type": "bool"
            }
          ],
          "internalType": "struct AntiqueStore.Antique[]",
          "name": "",
          "type": "tuple[]"
        }
      ],
      "stateMutability": "view",
      "type": "function",
      "constant": true
    },
    {
      "inputs": [
        {
          "internalType": "uint256",
          "name": "_antiqueId",
          "type": "uint256"
        }
      ],
      "name": "endAuction",
      "outputs": [
        {
          "internalType": "bool",
          "name": "success",
          "type": "bool"
        }
      ],
      "stateMutability": "nonpayable",
      "type": "function"
    },
    {
      "inputs": [
        {
          "internalType": "uint256",
          "name": "_antiqueId",
          "type": "uint256"
        }
      ],
      "name": "endAntiqueAuction",
      "outputs": [
        {
          "internalType": "address",
          "name": "",
          "type": "address"
        },
        {
          "internalType": "address",
          "name": "",
          "type": "address"
        },
        {
          "internalType": "uint256",
          "name": "",
          "type": "uint256"
        }
      ],
      "stateMutability": "nonpayable",
      "type": "function"
    },
    {
      "inputs": [
        {
          "internalType": "uint256",
          "name": "_antiqueId",
          "type": "uint256"
        }
      ],
      "name": "withdraw",
      "outputs": [
        {
          "internalType": "bool",
          "name": "",
          "type": "bool"
        }
      ],
      "stateMutability": "payable",
      "type": "function",
      "payable": true
    },
    {
      "inputs": [
        {
          "internalType": "uint256",
          "name": "_antiqueId",
          "type": "uint256"
        },
        {
          "internalType": "uint256",
          "name": "startingPrice",
          "type": "uint256"
        },
        {
          "internalType": "uint256",
          "name": "reservePrice",
          "type": "uint256"
        },
        {
          "internalType": "uint256",
          "name": "auctionEndTime",
          "type": "uint256"
        }
      ],
      "name": "resellAntique",
      "outputs": [
        {
          "internalType": "bool",
          "name": "success",
          "type": "bool"
        }
      ],
      "stateMutability": "nonpayable",
      "type": "function"
    },
    {
      "inputs": [
        {
          "internalType": "uint256",
          "name": "_antiqueId",
          "type": "uint256"
        }
      ],
      "name": "deleteAntique",
      "outputs": [
        {
          "internalType": "bool",
          "name": "success",
          "type": "bool"
        }
      ],
      "stateMutability": "nonpayable",
      "type": "function"
    }
  ],
  "bytecode": "0x608060405234801561001057600080fd5b5033600160006101000a81548173ffffffffffffffffffffffffffffffffffffffff021916908373ffffffffffffffffffffffffffffffffffffffff1602179055506134b4806100616000396000f3fe6080604052600436106100b85760003560e01c80632e1a7d4d146100bd57806337cc7c18146100ed57806337e402f11461012c5780633850a13b14610169578063434d0926146101995780634ad7eab4146101d65780634ddbf65e14610213578063655daa3314610250578063788077a71461028d5780638c913171146102b8578063b9a2de3a146102e3578063cd1af4e714610320578063ce606ee014610367578063d56d229d14610392578063e3b547a4146103bd575b600080fd5b6100d760048036038101906100d291906126f4565b6103fa565b6040516100e49190612c71565b60405180910390f35b3480156100f957600080fd5b50610114600480360381019061010f91906126f4565b6105a3565b60405161012393929190612be8565b60405180910390f35b34801561013857600080fd5b50610153600480360381019061014e9190612650565b6107a9565b6040516101609190612c4f565b60405180910390f35b610183600480360381019061017e91906126f4565b610cab565b6040516101909190612c71565b60405180910390f35b3480156101a557600080fd5b506101c060048036038101906101bb9190612782565b610cbe565b6040516101cd9190612c71565b60405180910390f35b3480156101e257600080fd5b506101fd60048036038101906101f891906126f4565b610f0c565b60405161020a9190612c71565b60405180910390f35b34801561021f57600080fd5b5061023a60048036038101906102359190612746565b61102c565b6040516102479190612e0c565b60405180910390f35b34801561025c57600080fd5b5061027760048036038101906102729190612679565b611051565b6040516102849190612c71565b60405180910390f35b34801561029957600080fd5b506102a2611121565b6040516102af9190612c4f565b60405180910390f35b3480156102c457600080fd5b506102cd6117bd565b6040516102da9190612e0c565b60405180910390f35b3480156102ef57600080fd5b5061030a600480360381019061030591906126f4565b6117c3565b6040516103179190612c71565b60405180910390f35b34801561032c57600080fd5b50610347600480360381019061034291906126f4565b6117d7565b60405161035e9b9a99989796959493929190612e27565b60405180910390f35b34801561037357600080fd5b5061037c611913565b6040516103899190612bcd565b60405180910390f35b34801561039e57600080fd5b506103a7611939565b6040516103b49190612bcd565b60405180910390f35b3480156103c957600080fd5b506103e460048036038101906103df9190612627565b61195d565b6040516103f19190612c71565b60405180910390f35b60008060036000848152602001908152602001600020905080600a0160009054906101000a900460ff16610463576040517f08c379a000000000000000000000000000000000000000000000000000000000815260040161045a90612c8c565b60405180910390fd5b600060046000858152602001908152602001600020905060008160003373ffffffffffffffffffffffffffffffffffffffff1673ffffffffffffffffffffffffffffffffffffffff16815260200190815260200160002054905060008111156105525760008260003373ffffffffffffffffffffffffffffffffffffffff1673ffffffffffffffffffffffffffffffffffffffff168152602001908152602001600020819055503373ffffffffffffffffffffffffffffffffffffffff166108fc829081150290604051600060405180830381858888f19350505050158015610550573d6000803e3d6000fd5b505b803373ffffffffffffffffffffffffffffffffffffffff16867f6197e166e88e6eaa8b67c5520d3b6ee0ba80077953677bbeca80ac752a0d4cd060405160405180910390a460019350505050919050565b600080600080600360008681526020019081526020016000206040518061016001604052908160008201548152602001600182015481526020016002820154815260200160038201548152602001600482015481526020016005820160009054906101000a900473ffffffffffffffffffffffffffffffffffffffff1673ffffffffffffffffffffffffffffffffffffffff1673ffffffffffffffffffffffffffffffffffffffff1681526020016006820160009054906101000a900473ffffffffffffffffffffffffffffffffffffffff1673ffffffffffffffffffffffffffffffffffffffff1673ffffffffffffffffffffffffffffffffffffffff168152602001600782015481526020016008820160009054906101000a900460ff161515151581526020016009820180546106db9061301f565b80601f01602080910402602001604051908101604052809291908181526020018280546107079061301f565b80156107545780601f1061072957610100808354040283529160200191610754565b820191906000526020600020905b81548152906001019060200180831161073757829003601f168201915b50505050508152602001600a820160009054906101000a900460ff161515151581525050905060008160c00151905061078e8660006119a8565b50808260a00151836020015194509450945050509193909250565b60606000805b6002548110156109c3576000600360008381526020019081526020016000206040518061016001604052908160008201548152602001600182015481526020016002820154815260200160038201548152602001600482015481526020016005820160009054906101000a900473ffffffffffffffffffffffffffffffffffffffff1673ffffffffffffffffffffffffffffffffffffffff1673ffffffffffffffffffffffffffffffffffffffff1681526020016006820160009054906101000a900473ffffffffffffffffffffffffffffffffffffffff1673ffffffffffffffffffffffffffffffffffffffff1673ffffffffffffffffffffffffffffffffffffffff168152602001600782015481526020016008820160009054906101000a900460ff161515151581526020016009820180546108ed9061301f565b80601f01602080910402602001604051908101604052809291908181526020018280546109199061301f565b80156109665780601f1061093b57610100808354040283529160200191610966565b820191906000526020600020905b81548152906001019060200180831161094957829003601f168201915b50505050508152602001600a820160009054906101000a900460ff161515151581525050905084158061099b57508061010001515b156109af5782806109ab90613082565b9350505b5080806109bb90613082565b9150506107af565b5060008167ffffffffffffffff811115610a06577f4e487b7100000000000000000000000000000000000000000000000000000000600052604160045260246000fd5b604051908082528060200260200182016040528015610a3f57816020015b610a2c61243e565b815260200190600190039081610a245790505b5090506000915060005b600254811015610ca0576000600360008381526020019081526020016000206040518061016001604052908160008201548152602001600182015481526020016002820154815260200160038201548152602001600482015481526020016005820160009054906101000a900473ffffffffffffffffffffffffffffffffffffffff1673ffffffffffffffffffffffffffffffffffffffff1673ffffffffffffffffffffffffffffffffffffffff1681526020016006820160009054906101000a900473ffffffffffffffffffffffffffffffffffffffff1673ffffffffffffffffffffffffffffffffffffffff1673ffffffffffffffffffffffffffffffffffffffff168152602001600782015481526020016008820160009054906101000a900460ff16151515158152602001600982018054610b879061301f565b80601f0160208091040260200160405190810160405280929190818152602001828054610bb39061301f565b8015610c005780601f10610bd557610100808354040283529160200191610c00565b820191906000526020600020905b815481529060010190602001808311610be357829003601f168201915b50505050508152602001600a820160009054906101000a900460ff1615151515815250509050851580610c3557508061010001515b15610c8c5780838580610c4790613082565b965081518110610c80577f4e487b7100000000000000000000000000000000000000000000000000000000600052603260045260246000fd5b60200260200101819052505b508080610c9890613082565b915050610a49565b508092505050919050565b6000610cb78234611e79565b9050919050565b6000806003600087815260200190815260200160002090508060060160009054906101000a900473ffffffffffffffffffffffffffffffffffffffff1673ffffffffffffffffffffffffffffffffffffffff163373ffffffffffffffffffffffffffffffffffffffff161480610d385750610d37612193565b5b610d77576040517f08c379a0000000000000000000000000000000000000000000000000000000008152600401610d6e90612d2c565b60405180910390fd5b600015158160080160009054906101000a900460ff16151514610dcf576040517f08c379a0000000000000000000000000000000000000000000000000000000008152600401610dc690612dec565b60405180910390fd5b80600a0160009054906101000a900460ff16610e20576040517f08c379a0000000000000000000000000000000000000000000000000000000008152600401610e1790612d6c565b60405180910390fd5b60008160050160006101000a81548173ffffffffffffffffffffffffffffffffffffffff021916908373ffffffffffffffffffffffffffffffffffffffff160217905550610f018160010154826009018054610e7b9061301f565b80601f0160208091040260200160405190810160405280929190818152602001828054610ea79061301f565b8015610ef45780601f10610ec957610100808354040283529160200191610ef4565b820191906000526020600020905b815481529060010190602001808311610ed757829003601f168201915b50505050508787876121eb565b915050949350505050565b60006003600083815260200190815260200160002060060160009054906101000a900473ffffffffffffffffffffffffffffffffffffffff1673ffffffffffffffffffffffffffffffffffffffff163373ffffffffffffffffffffffffffffffffffffffff161480610f825750610f81612193565b5b610fc1576040517f08c379a0000000000000000000000000000000000000000000000000000000008152600401610fb890612d0c565b60405180910390fd5b600060036000848152602001908152602001600020905060008160080160006101000a81548160ff021916908315150217905550827f87a3be6ff0bed551a67488b9b503f11fc3b960fedc980122474cd59c630aac2360405160405180910390a26001915050919050565b6004602052816000526040600020602052806000526040600020600091509150505481565b60008060008054906101000a900473ffffffffffffffffffffffffffffffffffffffff16905060008173ffffffffffffffffffffffffffffffffffffffff1663eacabe1433896040518363ffffffff1660e01b81526004016110b4929190612c1f565b602060405180830381600087803b1580156110ce57600080fd5b505af11580156110e2573d6000803e3d6000fd5b505050506040513d601f19601f82011682018060405250810190611106919061271d565b905061111581888888886121eb565b92505050949350505050565b60606000805b6002548110156113c4576000600360008381526020019081526020016000206040518061016001604052908160008201548152602001600182015481526020016002820154815260200160038201548152602001600482015481526020016005820160009054906101000a900473ffffffffffffffffffffffffffffffffffffffff1673ffffffffffffffffffffffffffffffffffffffff1673ffffffffffffffffffffffffffffffffffffffff1681526020016006820160009054906101000a900473ffffffffffffffffffffffffffffffffffffffff1673ffffffffffffffffffffffffffffffffffffffff1673ffffffffffffffffffffffffffffffffffffffff168152602001600782015481526020016008820160009054906101000a900460ff161515151581526020016009820180546112659061301f565b80601f01602080910402602001604051908101604052809291908181526020018280546112919061301f565b80156112de5780601f106112b3576101008083540402835291602001916112de565b820191906000526020600020905b8154815290600101906020018083116112c157829003601f168201915b50505050508152602001600a820160009054906101000a900460ff16151515158152505090506000600460008360000151815260200190815260200160002090503373ffffffffffffffffffffffffffffffffffffffff168260a0015173ffffffffffffffffffffffffffffffffffffffff16148061139b575060008160003373ffffffffffffffffffffffffffffffffffffffff1673ffffffffffffffffffffffffffffffffffffffff16815260200190815260200160002054115b156113af5783806113ab90613082565b9450505b505080806113bc90613082565b915050611127565b5060008167ffffffffffffffff811115611407577f4e487b7100000000000000000000000000000000000000000000000000000000600052604160045260246000fd5b60405190808252806020026020018201604052801561144057816020015b61142d61243e565b8152602001906001900390816114255790505b5090506000915060005b6002548110156117b4576000600360008381526020019081526020016000206040518061016001604052908160008201548152602001600182015481526020016002820154815260200160038201548152602001600482015481526020016005820160009054906101000a900473ffffffffffffffffffffffffffffffffffffffff1673ffffffffffffffffffffffffffffffffffffffff1673ffffffffffffffffffffffffffffffffffffffff1681526020016006820160009054906101000a900473ffffffffffffffffffffffffffffffffffffffff1673ffffffffffffffffffffffffffffffffffffffff1673ffffffffffffffffffffffffffffffffffffffff168152602001600782015481526020016008820160009054906101000a900460ff161515151581526020016009820180546115889061301f565b80601f01602080910402602001604051908101604052809291908181526020018280546115b49061301f565b80156116015780601f106115d657610100808354040283529160200191611601565b820191906000526020600020905b8154815290600101906020018083116115e457829003601f168201915b50505050508152602001600a820160009054906101000a900460ff16151515158152505090506000600460008360000151815260200190815260200160002090503373ffffffffffffffffffffffffffffffffffffffff168260a0015173ffffffffffffffffffffffffffffffffffffffff1614806116be575060008160003373ffffffffffffffffffffffffffffffffffffffff1673ffffffffffffffffffffffffffffffffffffffff16815260200190815260200160002054115b1561179f573373ffffffffffffffffffffffffffffffffffffffff168260a0015173ffffffffffffffffffffffffffffffffffffffff161461173e578060003373ffffffffffffffffffffffffffffffffffffffff1673ffffffffffffffffffffffffffffffffffffffff16815260200190815260200160002054611744565b81608001515b8260600181815250508184868061175a90613082565b975081518110611793577f4e487b7100000000000000000000000000000000000000000000000000000000600052603260045260246000fd5b60200260200101819052505b505080806117ac90613082565b91505061144a565b50809250505090565b60025481565b60006117d08260016119a8565b9050919050565b60036020528060005260406000206000915090508060000154908060010154908060020154908060030154908060040154908060050160009054906101000a900473ffffffffffffffffffffffffffffffffffffffff16908060060160009054906101000a900473ffffffffffffffffffffffffffffffffffffffff16908060070154908060080160009054906101000a900460ff169080600901805461187d9061301f565b80601f01602080910402602001604051908101604052809291908181526020018280546118a99061301f565b80156118f65780601f106118cb576101008083540402835291602001916118f6565b820191906000526020600020905b8154815290600101906020018083116118d957829003601f168201915b50505050509080600a0160009054906101000a900460ff1690508b565b600160009054906101000a900473ffffffffffffffffffffffffffffffffffffffff1681565b60008054906101000a900473ffffffffffffffffffffffffffffffffffffffff1681565b6000816000806101000a81548173ffffffffffffffffffffffffffffffffffffffff021916908373ffffffffffffffffffffffffffffffffffffffff16021790555060019050919050565b60008060036000858152602001908152602001600020905060008054906101000a900473ffffffffffffffffffffffffffffffffffffffff1673ffffffffffffffffffffffffffffffffffffffff163373ffffffffffffffffffffffffffffffffffffffff161480611a6957508060060160009054906101000a900473ffffffffffffffffffffffffffffffffffffffff1673ffffffffffffffffffffffffffffffffffffffff163373ffffffffffffffffffffffffffffffffffffffff16145b80611a785750611a77612193565b5b611ab7576040517f08c379a0000000000000000000000000000000000000000000000000000000008152600401611aae90612d8c565b60405180910390fd5b600115158160080160009054906101000a900460ff16151514611b0f576040517f08c379a0000000000000000000000000000000000000000000000000000000008152600401611b0690612d4c565b60405180910390fd5b80600a0160009054906101000a900460ff1615611b61576040517f08c379a0000000000000000000000000000000000000000000000000000000008152600401611b5890612dac565b60405180910390fd5b806003015481600401541015611bac576040517f08c379a0000000000000000000000000000000000000000000000000000000008152600401611ba390612cec565b60405180910390fd5b60008160080160006101000a81548160ff021916908315150217905550600181600a0160006101000a81548160ff02191690831515021790555060006004600086815260200190815260200160002090508160060160009054906101000a900473ffffffffffffffffffffffffffffffffffffffff1673ffffffffffffffffffffffffffffffffffffffff166108fc83600401549081150290604051600060405180830381858888f19350505050158015611c6b573d6000803e3d6000fd5b5060008160008460050160009054906101000a900473ffffffffffffffffffffffffffffffffffffffff1673ffffffffffffffffffffffffffffffffffffffff1673ffffffffffffffffffffffffffffffffffffffff168152602001908152602001600020819055508160050160009054906101000a900473ffffffffffffffffffffffffffffffffffffffff168260060160006101000a81548173ffffffffffffffffffffffffffffffffffffffff021916908373ffffffffffffffffffffffffffffffffffffffff16021790555081600401548260050160009054906101000a900473ffffffffffffffffffffffffffffffffffffffff1673ffffffffffffffffffffffffffffffffffffffff16867fd2aa34a4fdbbc6dff6a3e56f46e0f3ae2a31d7785ff3487aa5c95c642acea50160405160405180910390a48315611e6d5760008060009054906101000a900473ffffffffffffffffffffffffffffffffffffffff1690508073ffffffffffffffffffffffffffffffffffffffff166323b872dd338560050160009054906101000a900473ffffffffffffffffffffffffffffffffffffffff1686600101546040518463ffffffff1660e01b8152600401611e3993929190612be8565b600060405180830381600087803b158015611e5357600080fd5b505af1158015611e67573d6000803e3d6000fd5b50505050505b60019250505092915050565b600080600360008581526020019081526020016000209050600115158160080160009054906101000a900460ff16151514611ee9576040517f08c379a0000000000000000000000000000000000000000000000000000000008152600401611ee090612cac565b60405180910390fd5b80600a0160009054906101000a900460ff16158015611f0c575080600701544211155b611f4b576040517f08c379a0000000000000000000000000000000000000000000000000000000008152600401611f4290612ccc565b60405180910390fd5b80600201548310158015611f625750806004015483115b611fa1576040517f08c379a0000000000000000000000000000000000000000000000000000000008152600401611f9890612dcc565b60405180910390fd5b600060046000868152602001908152602001600020905060008160003373ffffffffffffffffffffffffffffffffffffffff1673ffffffffffffffffffffffffffffffffffffffff16815260200190815260200160002054111561208b5760008160003373ffffffffffffffffffffffffffffffffffffffff1673ffffffffffffffffffffffffffffffffffffffff1681526020019081526020016000205490503373ffffffffffffffffffffffffffffffffffffffff166108fc829081150290604051600060405180830381858888f19350505050158015612088573d6000803e3d6000fd5b50505b838160003373ffffffffffffffffffffffffffffffffffffffff1673ffffffffffffffffffffffffffffffffffffffff16815260200190815260200160002081905550338260050160006101000a81548173ffffffffffffffffffffffffffffffffffffffff021916908373ffffffffffffffffffffffffffffffffffffffff16021790555083826004018190555081600401548260050160009054906101000a900473ffffffffffffffffffffffffffffffffffffffff1673ffffffffffffffffffffffffffffffffffffffff16867f558a0d5d5468d74b0db24c74eb348b42271c2ebb4c9e953ced38aaed95fa436160405160405180910390a460019250505092915050565b60003373ffffffffffffffffffffffffffffffffffffffff16600160009054906101000a900473ffffffffffffffffffffffffffffffffffffffff1673ffffffffffffffffffffffffffffffffffffffff1614905090565b600080604051806101600160405280600254815260200188815260200186815260200185815260200160008152602001600073ffffffffffffffffffffffffffffffffffffffff1681526020013373ffffffffffffffffffffffffffffffffffffffff16815260200184815260200160011515815260200187815260200160001515815250905080600360006002548152602001908152602001600020600082015181600001556020820151816001015560408201518160020155606082015181600301556080820151816004015560a08201518160050160006101000a81548173ffffffffffffffffffffffffffffffffffffffff021916908373ffffffffffffffffffffffffffffffffffffffff16021790555060c08201518160060160006101000a81548173ffffffffffffffffffffffffffffffffffffffff021916908373ffffffffffffffffffffffffffffffffffffffff16021790555060e082015181600701556101008201518160080160006101000a81548160ff0219169083151502179055506101208201518160090190805190602001906123909291906124c8565b5061014082015181600a0160006101000a81548160ff0219169083151502179055509050508660008054906101000a900473ffffffffffffffffffffffffffffffffffffffff1673ffffffffffffffffffffffffffffffffffffffff166002600081548092919061240090613082565b919050557fb4655f9265ae262396e6d5c261f1da27c0ffd551f1cb92f452c1173a21a35d7b60405160405180910390a4600191505095945050505050565b6040518061016001604052806000815260200160008152602001600081526020016000815260200160008152602001600073ffffffffffffffffffffffffffffffffffffffff168152602001600073ffffffffffffffffffffffffffffffffffffffff16815260200160008152602001600015158152602001606081526020016000151581525090565b8280546124d49061301f565b90600052602060002090601f0160209004810192826124f6576000855561253d565b82601f1061250f57805160ff191683800117855561253d565b8280016001018555821561253d579182015b8281111561253c578251825591602001919060010190612521565b5b50905061254a919061254e565b5090565b5b8082111561256757600081600090555060010161254f565b5090565b600061257e61257984612efe565b612ed9565b90508281526020810184848401111561259657600080fd5b6125a1848285612fdd565b509392505050565b6000813590506125b881613439565b92915050565b6000813590506125cd81613450565b92915050565b600082601f8301126125e457600080fd5b81356125f484826020860161256b565b91505092915050565b60008135905061260c81613467565b92915050565b60008151905061262181613467565b92915050565b60006020828403121561263957600080fd5b6000612647848285016125a9565b91505092915050565b60006020828403121561266257600080fd5b6000612670848285016125be565b91505092915050565b6000806000806080858703121561268f57600080fd5b600085013567ffffffffffffffff8111156126a957600080fd5b6126b5878288016125d3565b94505060206126c6878288016125fd565b93505060406126d7878288016125fd565b92505060606126e8878288016125fd565b91505092959194509250565b60006020828403121561270657600080fd5b6000612714848285016125fd565b91505092915050565b60006020828403121561272f57600080fd5b600061273d84828501612612565b91505092915050565b6000806040838503121561275957600080fd5b6000612767858286016125fd565b9250506020612778858286016125a9565b9150509250929050565b6000806000806080858703121561279857600080fd5b60006127a6878288016125fd565b94505060206127b7878288016125fd565b93505060406127c8878288016125fd565b92505060606127d9878288016125fd565b91505092959194509250565b60006127f18383612ac0565b905092915050565b61280281612f95565b82525050565b61281181612f95565b82525050565b600061282282612f3f565b61282c8185612f62565b93508360208202850161283e85612f2f565b8060005b8581101561287a578484038952815161285b85826127e5565b945061286683612f55565b925060208a01995050600181019050612842565b50829750879550505050505092915050565b61289581612fa7565b82525050565b6128a481612fa7565b82525050565b60006128b582612f4a565b6128bf8185612f73565b93506128cf818560208601612fec565b6128d881613158565b840191505092915050565b60006128ee82612f4a565b6128f88185612f84565b9350612908818560208601612fec565b61291181613158565b840191505092915050565b6000612929602f83612f84565b915061293482613169565b604082019050919050565b600061294c601783612f84565b9150612957826131b8565b602082019050919050565b600061296f602f83612f84565b915061297a826131e1565b604082019050919050565b6000612992600f83612f84565b915061299d82613230565b602082019050919050565b60006129b5602e83612f84565b91506129c082613259565b604082019050919050565b60006129d8602e83612f84565b91506129e3826132a8565b604082019050919050565b60006129fb601b83612f84565b9150612a06826132f7565b602082019050919050565b6000612a1e601983612f84565b9150612a2982613320565b602082019050919050565b6000612a41603683612f84565b9150612a4c82613349565b604082019050919050565b6000612a64601d83612f84565b9150612a6f82613398565b602082019050919050565b6000612a87602283612f84565b9150612a92826133c1565b604082019050919050565b6000612aaa601f83612f84565b9150612ab582613410565b602082019050919050565b600061016083016000830151612ad96000860182612baf565b506020830151612aec6020860182612baf565b506040830151612aff6040860182612baf565b506060830151612b126060860182612baf565b506080830151612b256080860182612baf565b5060a0830151612b3860a08601826127f9565b5060c0830151612b4b60c08601826127f9565b5060e0830151612b5e60e0860182612baf565b50610100830151612b7361010086018261288c565b50610120830151848203610120860152612b8d82826128aa565b915050610140830151612ba461014086018261288c565b508091505092915050565b612bb881612fd3565b82525050565b612bc781612fd3565b82525050565b6000602082019050612be26000830184612808565b92915050565b6000606082019050612bfd6000830186612808565b612c0a6020830185612808565b612c176040830184612bbe565b949350505050565b6000604082019050612c346000830185612808565b8181036020830152612c4681846128e3565b90509392505050565b60006020820190508181036000830152612c698184612817565b905092915050565b6000602082019050612c86600083018461289b565b92915050565b60006020820190508181036000830152612ca58161291c565b9050919050565b60006020820190508181036000830152612cc58161293f565b9050919050565b60006020820190508181036000830152612ce581612962565b9050919050565b60006020820190508181036000830152612d0581612985565b9050919050565b60006020820190508181036000830152612d25816129a8565b9050919050565b60006020820190508181036000830152612d45816129cb565b9050919050565b60006020820190508181036000830152612d65816129ee565b9050919050565b60006020820190508181036000830152612d8581612a11565b9050919050565b60006020820190508181036000830152612da581612a34565b9050919050565b60006020820190508181036000830152612dc581612a57565b9050919050565b60006020820190508181036000830152612de581612a7a565b9050919050565b60006020820190508181036000830152612e0581612a9d565b9050919050565b6000602082019050612e216000830184612bbe565b92915050565b600061016082019050612e3d600083018e612bbe565b612e4a602083018d612bbe565b612e57604083018c612bbe565b612e64606083018b612bbe565b612e71608083018a612bbe565b612e7e60a0830189612808565b612e8b60c0830188612808565b612e9860e0830187612bbe565b612ea661010083018661289b565b818103610120830152612eb981856128e3565b9050612ec961014083018461289b565b9c9b505050505050505050505050565b6000612ee3612ef4565b9050612eef8282613051565b919050565b6000604051905090565b600067ffffffffffffffff821115612f1957612f18613129565b5b612f2282613158565b9050602081019050919050565b6000819050602082019050919050565b600081519050919050565b600081519050919050565b6000602082019050919050565b600082825260208201905092915050565b600082825260208201905092915050565b600082825260208201905092915050565b6000612fa082612fb3565b9050919050565b60008115159050919050565b600073ffffffffffffffffffffffffffffffffffffffff82169050919050565b6000819050919050565b82818337600083830152505050565b60005b8381101561300a578082015181840152602081019050612fef565b83811115613019576000848401525b50505050565b6000600282049050600182168061303757607f821691505b6020821081141561304b5761304a6130fa565b5b50919050565b61305a82613158565b810181811067ffffffffffffffff8211171561307957613078613129565b5b80604052505050565b600061308d82612fd3565b91507fffffffffffffffffffffffffffffffffffffffffffffffffffffffffffffffff8214156130c0576130bf6130cb565b5b600182019050919050565b7f4e487b7100000000000000000000000000000000000000000000000000000000600052601160045260246000fd5b7f4e487b7100000000000000000000000000000000000000000000000000000000600052602260045260246000fd5b7f4e487b7100000000000000000000000000000000000000000000000000000000600052604160045260246000fd5b6000601f19601f8301169050919050565b7f596f752063616e6e6f7420776974686472617720756e74696c2074686520617560008201527f6374696f6e2068617320656e6465640000000000000000000000000000000000602082015250565b7f54686520616e746971756520697320666f722073616c65000000000000000000600082015250565b7f5468652061756374696f6e2068617320616c726561647920656e646564202d2060008201527f6e6f206269647320616c6c6f7765640000000000000000000000000000000000602082015250565b7f52657365727665206e6f74206d65740000000000000000000000000000000000600082015250565b7f596f7520617265206e6f7420617574686f726973656420746f2064656c65746560008201527f207468697320616e74697175652e000000000000000000000000000000000000602082015250565b7f596f7520617265206e6f7420617574686f726973656420746f20726573656c6c60008201527f207468697320616e74697175652e000000000000000000000000000000000000602082015250565b7f54686520616e7469717565206973206e6f7420666f722073616c650000000000600082015250565b7f5468652061756374696f6e20686173206e6f7420656e64656400000000000000600082015250565b7f596f7520617265206e6f7420617574686f726973656420746f20656e6420617560008201527f6374696f6e20666f72207468697320616e746971756500000000000000000000602082015250565b7f5468652061756374696f6e2068617320616c726561647920656e646564000000600082015250565b7f736f7272792c2074686520626964206973206e6f74206869676820656e6f756760008201527f6821000000000000000000000000000000000000000000000000000000000000602082015250565b7f54686520616e746971756520697320616c726561647920666f722073616c6500600082015250565b61344281612f95565b811461344d57600080fd5b50565b61345981612fa7565b811461346457600080fd5b50565b61347081612fd3565b811461347b57600080fd5b5056fea26469706673582212208182ff3e145ca42fedf670892fada495c53b994dcd43d33d46065caa7b2e230c64736f6c63430008010033",
  "immutableReferences": {},
  "source": "//SPDX-License-Identifier: GPL-3.0\npragma solidity ^0.8.1;\n\nimport './AnyNFT.sol';\nimport './strings.sol';\n\ncontract AntiqueStore is AnyNFTMarket {\n    using strings for *;\n\n    struct Antique {\n        uint256 id;\n        uint256 tokenId;\n        uint256 startingPrice;\n        uint256 reservePrice; // A reserve price is a hidden minimum priceessentially, the lowest price you're willing to accept for your item. If the listing ends without any bids that meet the reserve price, you aren't required to sell the item.\n        uint256 highestBid;\n        address highestBidder;\n        address owner; // owner of the antique\n        uint256 auctionEndTime;\n        bool forSale; // false if not being listed for sale\n        string tokenURI;\n        bool auctionEnded;\n    }\n\n    address public nftContract;\n    address public contractOwner;\n    uint256 public antiqueId;\n\n    mapping(uint256 => Antique) public antiques;\n\n    mapping(uint256 => mapping(address => uint256))\n        public antiquePendingReturns;\n\n    constructor() {\n        contractOwner = msg.sender;\n    }\n\n    function NFTContractDeployed(address _nftContract)\n        public\n        override\n        returns (bool)\n    {\n        nftContract = _nftContract;\n        return true;\n    }\n\n    /**\n     * @dev Check if the current caller is the contract owner.\n     */\n    function isOwner() internal view returns (bool) {\n        return contractOwner == msg.sender;\n    }\n\n    function getAntiques(bool forSaleOnly)\n        public\n        view\n        returns (Antique[] memory)\n    {\n        uint256 count = 0;\n        for (uint256 i = 0; i < antiqueId; i++) {\n            Antique memory antique = antiques[i];\n            if (!forSaleOnly || antique.forSale) {\n                count++;\n            }\n        }\n\n        Antique[] memory result = new Antique[](count);\n        count = 0;\n        for (uint256 i = 0; i < antiqueId; i++) {\n            Antique memory antique = antiques[i];\n            if (!forSaleOnly || antique.forSale) {\n                result[count++] = antique;\n            }\n        }\n        return result;\n    }\n\n    /**\n     * @dev Add and list an Antique.\n     *\n     * Returns a boolean value indicating whether the operation succeeded.\n     *\n     * Emits a {NewAntique} event.\n     */\n    function sellAntique(\n        string memory tokenURI,\n        uint256 startingPrice,\n        uint256 reservePrice,\n        uint256 auctionEndTime\n    ) public returns (bool success) {\n        AnyNFT anyNFT = AnyNFT(nftContract);\n        uint256 tokenId = anyNFT.mintNFT(msg.sender, tokenURI);\n\n        return\n            _newAntique(\n                tokenId,\n                tokenURI,\n                startingPrice,\n                reservePrice,\n                auctionEndTime\n            );\n    }\n\n    function _newAntique(\n        uint256 tokenId,\n        string memory tokenURI,\n        uint256 startingPrice,\n        uint256 reservePrice,\n        uint256 auctionEndTime\n    ) internal returns (bool success) {\n        Antique memory antique = Antique(\n            antiqueId,\n            tokenId,\n            startingPrice,\n            reservePrice,\n            0,\n            address(0),\n            msg.sender,\n            auctionEndTime,\n            true,\n            tokenURI,\n            false\n        );\n\n        antiques[antiqueId] = antique;\n\n        emit NewAntique(antiqueId++, nftContract, tokenId);\n\n        return true;\n    }\n\n    function equals(string memory a, string memory b)\n        internal\n        pure\n        returns (bool)\n    {\n        if (bytes(a).length != bytes(b).length) {\n            return false;\n        } else {\n            return\n                keccak256(abi.encodePacked(a)) ==\n                keccak256(abi.encodePacked(b));\n        }\n    }\n    \n    function _bidAntique(uint256 _antiqueId, uint256 newBid)\n        internal\n        returns (bool)\n    {\n        Antique storage antique = antiques[_antiqueId];\n\n        require(antique.forSale == true, 'The antique is for sale');\n\n        require(\n            !antique.auctionEnded && block.timestamp <= antique.auctionEndTime,\n            'The auction has already ended - no bids allowed'\n        );\n\n        require(\n            newBid >= antique.startingPrice && newBid > antique.highestBid,\n            'sorry, the bid is not high enough!'\n        );\n\n        mapping(address => uint256)\n            storage pendingReturns = antiquePendingReturns[_antiqueId];\n\n        if (pendingReturns[msg.sender] > 0) {\n            uint256 amount = pendingReturns[msg.sender];\n            payable(msg.sender).transfer(amount);\n        }\n\n        pendingReturns[msg.sender] = newBid;\n\n        antique.highestBidder = msg.sender;\n        antique.highestBid = newBid;\n\n        emit NewBid(_antiqueId, antique.highestBidder, antique.highestBid);\n\n        return true;\n    }\n\n    /**\n     * @dev Bid a antique has `_antiqueId`.\n     *\n     * Returns a boolean value indicating whether the operation succeeded.\n     *\n     * Emits a `NewBid` event.\n     */\n    function bidAntique(uint256 _antiqueId) public payable returns (bool) {\n        return _bidAntique(_antiqueId, msg.value);\n    }\n\n    function getMyBids() public view returns (Antique[] memory) {\n        uint256 count = 0;\n        for (uint256 i = 0; i < antiqueId; i++) {\n            Antique memory antique = antiques[i];\n            mapping(address => uint256)\n                storage pendingReturns = antiquePendingReturns[antique.id];\n\n            if (\n                antique.highestBidder == msg.sender ||\n                pendingReturns[msg.sender] > 0\n            ) {\n                count++;\n            }\n        }\n\n        Antique[] memory result = new Antique[](count);\n        count = 0;\n        for (uint256 i = 0; i < antiqueId; i++) {\n            Antique memory antique = antiques[i];\n            mapping(address => uint256)\n                storage pendingReturns = antiquePendingReturns[antique.id];\n\n            if (\n                antique.highestBidder == msg.sender ||\n                pendingReturns[msg.sender] > 0\n            ) {\n                antique.reservePrice = antique.highestBidder == msg.sender\n                    ? antique.highestBid\n                    : pendingReturns[msg.sender];\n                result[count++] = antique;\n            }\n        }\n        return result;\n    }\n\n    function endAuction(uint256 _antiqueId) public returns (bool success) {\n        return _endAuction(_antiqueId, true);\n    }\n\n    function _endAuction(uint256 _antiqueId, bool toTransferNFT)\n        internal\n        returns (bool success)\n    {\n        Antique storage antique = antiques[_antiqueId];\n        require(\n            msg.sender == nftContract ||\n                msg.sender == antique.owner ||\n                isOwner(),\n            'You are not authorised to end auction for this antique'\n        );\n\n        require(antique.forSale == true, 'The antique is not for sale');\n\n        require(!antique.auctionEnded, 'The auction has already ended');\n\n        require(antique.highestBid >= antique.reservePrice, 'Reserve not met');\n\n        antique.forSale = false;\n        antique.auctionEnded = true;\n\n        mapping(address => uint256)\n            storage pendingReturns = antiquePendingReturns[_antiqueId];\n\n        payable(antique.owner).transfer(antique.highestBid);\n        pendingReturns[antique.highestBidder] = 0;\n\n        antique.owner = antique.highestBidder;\n\n        emit AuctionEnded(\n            _antiqueId,\n            antique.highestBidder,\n            antique.highestBid\n        );\n\n        if (toTransferNFT) {\n            AnyNFT anyNFT = AnyNFT(nftContract);\n            anyNFT.transferFrom(\n                msg.sender,\n                antique.highestBidder,\n                antique.tokenId\n            );\n        }\n\n        return true;\n    }\n\n    function endAntiqueAuction(uint256 _antiqueId)\n        public\n        override\n        returns (\n            address,\n            address,\n            uint256\n        )\n    {\n        Antique memory antique = antiques[_antiqueId];\n        address from = antique.owner;\n\n        _endAuction(_antiqueId, false);\n\n        return (from, antique.highestBidder, antique.tokenId);\n    }\n\n    function withdraw(uint256 _antiqueId) public payable returns (bool) {\n        Antique storage antique = antiques[_antiqueId];\n\n        require(\n            antique.auctionEnded,\n            'You cannot withdraw until the auction has ended'\n        );\n\n        mapping(address => uint256)\n            storage pendingReturns = antiquePendingReturns[_antiqueId];\n\n        uint256 amount = pendingReturns[msg.sender];\n        if (amount > 0) {\n            pendingReturns[msg.sender] = 0;\n            payable(msg.sender).transfer(amount);\n        }\n\n        emit NewWithdrawal(_antiqueId, msg.sender, amount);\n\n        return true;\n    }\n\n    function resellAntique(\n        uint256 _antiqueId,\n        uint256 startingPrice,\n        uint256 reservePrice,\n        uint256 auctionEndTime\n    ) public returns (bool success) {\n        Antique storage antique = antiques[_antiqueId];\n        require(\n            msg.sender == antique.owner || isOwner(),\n            'You are not authorised to resell this antique.'\n        );\n\n        require(antique.forSale == false, 'The antique is already for sale');\n\n        require(antique.auctionEnded, 'The auction has not ended');\n\n        antique.highestBidder = address(0);\n\n        return\n            _newAntique(\n                antique.tokenId,\n                antique.tokenURI,\n                startingPrice,\n                reservePrice,\n                auctionEndTime\n            );\n    }\n\n    /**\n     * @dev Delete a antique from the antique store. Only the antique's owner or the\n     * antiquestore's owner is authorised for this operation.\n     *\n     * Returns a boolean value indicating whether the operation succeeded.\n     *\n     * Emits a `DeleteAntique` event.\n     */\n    function deleteAntique(uint256 _antiqueId) public returns (bool success) {\n        require(\n            msg.sender == antiques[_antiqueId].owner || isOwner(),\n            'You are not authorised to delete this antique.'\n        );\n\n        Antique storage antique = antiques[_antiqueId];\n        antique.forSale = false;\n\n        emit DeleteAntique(_antiqueId);\n\n        return true;\n    }\n\n    /**\n     * @dev Emitted when a new antique is added to the antiquestore.\n     * Note `antiqueId` starts from 0.\n     */\n    event NewAntique(\n        uint256 indexed antiqueId,\n        address indexed nftContract,\n        uint256 indexed tokenId\n    );\n\n    /**\n     * @dev Emitted when a new antique rental is made.\n     * Note `bidId` and `antiqueId` start from 0.\n     */\n    event NewBid(\n        uint256 indexed antiqueId,\n        address indexed bidder,\n        uint256 indexed amount\n    );\n\n    event AuctionEnded(\n        uint256 indexed antiqueId,\n        address indexed highestBidder,\n        uint256 indexed highestBid\n    );\n\n    event NewWithdrawal(\n        uint256 indexed antiqueId,\n        address indexed bidder,\n        uint256 indexed amount\n    );\n\n    /**\n     * @dev Emitted when a antique is deleted from the antiquestore.\n     */\n    event DeleteAntique(uint256 indexed antiqueId);\n}\n",
  "sourcePath": "/home/inflaton/code/emtech/decentralized-auction/d-antique-auction/smart-contracts/contracts/AntiqueStore.sol",
  "compiler": {
    "name": "solc",
    "version": "0.8.1+commit.df193b15.Emscripten.clang"
  },
  "schemaVersion": "3.4.7",
  "updatedAt": "2022-06-05T12:52:33.389Z",
  "networkType": "ethereum",
  "devdoc": {
    "events": {
      "DeleteAntique(uint256)": {
        "details": "Emitted when a antique is deleted from the antiquestore."
      },
      "NewAntique(uint256,address,uint256)": {
        "details": "Emitted when a new antique is added to the antiquestore. Note `antiqueId` starts from 0."
      },
      "NewBid(uint256,address,uint256)": {
        "details": "Emitted when a new antique rental is made. Note `bidId` and `antiqueId` start from 0."
      }
    },
    "kind": "dev",
    "methods": {
      "bidAntique(uint256)": {
        "details": "Bid a antique has `_antiqueId`. Returns a boolean value indicating whether the operation succeeded. Emits a `NewBid` event."
      },
      "deleteAntique(uint256)": {
        "details": "Delete a antique from the antique store. Only the antique's owner or the antiquestore's owner is authorised for this operation. Returns a boolean value indicating whether the operation succeeded. Emits a `DeleteAntique` event."
      },
      "sellAntique(string,uint256,uint256,uint256)": {
        "details": "Add and list an Antique. Returns a boolean value indicating whether the operation succeeded. Emits a {NewAntique} event."
      }
    },
    "version": 1
  },
  "userdoc": {
    "kind": "user",
    "methods": {},
    "version": 1
  }
}