{
  "contractName": "AntiqueNFT",
  "abi": [
    {
      "inputs": [
        {
          "internalType": "address",
          "name": "_marketContract",
          "type": "address"
        }
      ],
      "stateMutability": "nonpayable",
      "type": "constructor"
    },
    {
      "anonymous": false,
      "inputs": [
        {
          "indexed": true,
          "internalType": "address",
          "name": "owner",
          "type": "address"
        },
        {
          "indexed": true,
          "internalType": "address",
          "name": "approved",
          "type": "address"
        },
        {
          "indexed": true,
          "internalType": "uint256",
          "name": "tokenId",
          "type": "uint256"
        }
      ],
      "name": "Approval",
      "type": "event"
    },
    {
      "anonymous": false,
      "inputs": [
        {
          "indexed": true,
          "internalType": "address",
          "name": "owner",
          "type": "address"
        },
        {
          "indexed": true,
          "internalType": "address",
          "name": "operator",
          "type": "address"
        },
        {
          "indexed": false,
          "internalType": "bool",
          "name": "approved",
          "type": "bool"
        }
      ],
      "name": "ApprovalForAll",
      "type": "event"
    },
    {
      "anonymous": false,
      "inputs": [
        {
          "indexed": true,
          "internalType": "address",
          "name": "previousOwner",
          "type": "address"
        },
        {
          "indexed": true,
          "internalType": "address",
          "name": "newOwner",
          "type": "address"
        }
      ],
      "name": "OwnershipTransferred",
      "type": "event"
    },
    {
      "anonymous": false,
      "inputs": [
        {
          "indexed": true,
          "internalType": "address",
          "name": "from",
          "type": "address"
        },
        {
          "indexed": true,
          "internalType": "address",
          "name": "to",
          "type": "address"
        },
        {
          "indexed": true,
          "internalType": "uint256",
          "name": "tokenId",
          "type": "uint256"
        }
      ],
      "name": "Transfer",
      "type": "event"
    },
    {
      "inputs": [
        {
          "internalType": "address",
          "name": "to",
          "type": "address"
        },
        {
          "internalType": "uint256",
          "name": "tokenId",
          "type": "uint256"
        }
      ],
      "name": "approve",
      "outputs": [],
      "stateMutability": "nonpayable",
      "type": "function"
    },
    {
      "inputs": [
        {
          "internalType": "address",
          "name": "owner",
          "type": "address"
        }
      ],
      "name": "balanceOf",
      "outputs": [
        {
          "internalType": "uint256",
          "name": "",
          "type": "uint256"
        }
      ],
      "stateMutability": "view",
      "type": "function",
      "constant": true
    },
    {
      "inputs": [
        {
          "internalType": "uint256",
          "name": "tokenId",
          "type": "uint256"
        }
      ],
      "name": "getApproved",
      "outputs": [
        {
          "internalType": "address",
          "name": "",
          "type": "address"
        }
      ],
      "stateMutability": "view",
      "type": "function",
      "constant": true
    },
    {
      "inputs": [
        {
          "internalType": "address",
          "name": "owner",
          "type": "address"
        },
        {
          "internalType": "address",
          "name": "operator",
          "type": "address"
        }
      ],
      "name": "isApprovedForAll",
      "outputs": [
        {
          "internalType": "bool",
          "name": "",
          "type": "bool"
        }
      ],
      "stateMutability": "view",
      "type": "function",
      "constant": true
    },
    {
      "inputs": [],
      "name": "marketContract",
      "outputs": [
        {
          "internalType": "address",
          "name": "",
          "type": "address"
        }
      ],
      "stateMutability": "view",
      "type": "function",
      "constant": true
    },
    {
      "inputs": [],
      "name": "name",
      "outputs": [
        {
          "internalType": "string",
          "name": "",
          "type": "string"
        }
      ],
      "stateMutability": "view",
      "type": "function",
      "constant": true
    },
    {
      "inputs": [],
      "name": "owner",
      "outputs": [
        {
          "internalType": "address",
          "name": "",
          "type": "address"
        }
      ],
      "stateMutability": "view",
      "type": "function",
      "constant": true
    },
    {
      "inputs": [
        {
          "internalType": "uint256",
          "name": "tokenId",
          "type": "uint256"
        }
      ],
      "name": "ownerOf",
      "outputs": [
        {
          "internalType": "address",
          "name": "",
          "type": "address"
        }
      ],
      "stateMutability": "view",
      "type": "function",
      "constant": true
    },
    {
      "inputs": [],
      "name": "renounceOwnership",
      "outputs": [],
      "stateMutability": "nonpayable",
      "type": "function"
    },
    {
      "inputs": [
        {
          "internalType": "address",
          "name": "from",
          "type": "address"
        },
        {
          "internalType": "address",
          "name": "to",
          "type": "address"
        },
        {
          "internalType": "uint256",
          "name": "tokenId",
          "type": "uint256"
        }
      ],
      "name": "safeTransferFrom",
      "outputs": [],
      "stateMutability": "nonpayable",
      "type": "function"
    },
    {
      "inputs": [
        {
          "internalType": "address",
          "name": "from",
          "type": "address"
        },
        {
          "internalType": "address",
          "name": "to",
          "type": "address"
        },
        {
          "internalType": "uint256",
          "name": "tokenId",
          "type": "uint256"
        },
        {
          "internalType": "bytes",
          "name": "_data",
          "type": "bytes"
        }
      ],
      "name": "safeTransferFrom",
      "outputs": [],
      "stateMutability": "nonpayable",
      "type": "function"
    },
    {
      "inputs": [
        {
          "internalType": "address",
          "name": "operator",
          "type": "address"
        },
        {
          "internalType": "bool",
          "name": "approved",
          "type": "bool"
        }
      ],
      "name": "setApprovalForAll",
      "outputs": [],
      "stateMutability": "nonpayable",
      "type": "function"
    },
    {
      "inputs": [
        {
          "internalType": "bytes4",
          "name": "interfaceId",
          "type": "bytes4"
        }
      ],
      "name": "supportsInterface",
      "outputs": [
        {
          "internalType": "bool",
          "name": "",
          "type": "bool"
        }
      ],
      "stateMutability": "view",
      "type": "function",
      "constant": true
    },
    {
      "inputs": [],
      "name": "symbol",
      "outputs": [
        {
          "internalType": "string",
          "name": "",
          "type": "string"
        }
      ],
      "stateMutability": "view",
      "type": "function",
      "constant": true
    },
    {
      "inputs": [
        {
          "internalType": "uint256",
          "name": "tokenId",
          "type": "uint256"
        }
      ],
      "name": "tokenURI",
      "outputs": [
        {
          "internalType": "string",
          "name": "",
          "type": "string"
        }
      ],
      "stateMutability": "view",
      "type": "function",
      "constant": true
    },
    {
      "inputs": [
        {
          "internalType": "address",
          "name": "from",
          "type": "address"
        },
        {
          "internalType": "address",
          "name": "to",
          "type": "address"
        },
        {
          "internalType": "uint256",
          "name": "tokenId",
          "type": "uint256"
        }
      ],
      "name": "transferFrom",
      "outputs": [],
      "stateMutability": "nonpayable",
      "type": "function"
    },
    {
      "inputs": [
        {
          "internalType": "address",
          "name": "newOwner",
          "type": "address"
        }
      ],
      "name": "transferOwnership",
      "outputs": [],
      "stateMutability": "nonpayable",
      "type": "function"
    },
    {
      "inputs": [
        {
          "internalType": "address",
          "name": "recipient",
          "type": "address"
        },
        {
          "internalType": "string",
          "name": "tokenURI",
          "type": "string"
        }
      ],
      "name": "mintNFT",
      "outputs": [
        {
          "internalType": "uint256",
          "name": "",
          "type": "uint256"
        }
      ],
      "stateMutability": "nonpayable",
      "type": "function"
    },
    {
      "inputs": [
        {
          "internalType": "uint256",
          "name": "antiqueId",
          "type": "uint256"
        }
      ],
      "name": "endAuction",
      "outputs": [
        {
          "internalType": "bool",
          "name": "success",
          "type": "bool"
        }
      ],
      "stateMutability": "nonpayable",
      "type": "function"
    }
  ],
  "bytecode": "0x60806040523480156200001157600080fd5b5060405162003630380380620036308339818101604052810190620000379190620003a5565b6040518060400160405280600b81526020017f4d7920416e7469717565730000000000000000000000000000000000000000008152506040518060400160405280600b81526020017f414e54495155452d4e46540000000000000000000000000000000000000000008152508160009080519060200190620000bb929190620002c7565b508060019080519060200190620000d4929190620002c7565b505050620000f7620000eb620001f960201b60201c565b6200020160201b60201c565b80600960006101000a81548173ffffffffffffffffffffffffffffffffffffffff021916908373ffffffffffffffffffffffffffffffffffffffff1602179055506000600960009054906101000a900473ffffffffffffffffffffffffffffffffffffffff1690508073ffffffffffffffffffffffffffffffffffffffff1663e3b547a4306040518263ffffffff1660e01b81526004016200019a91906200040e565b602060405180830381600087803b158015620001b557600080fd5b505af1158015620001ca573d6000803e3d6000fd5b505050506040513d601f19601f82011682018060405250810190620001f09190620003d1565b50505062000504565b600033905090565b6000600760009054906101000a900473ffffffffffffffffffffffffffffffffffffffff16905081600760006101000a81548173ffffffffffffffffffffffffffffffffffffffff021916908373ffffffffffffffffffffffffffffffffffffffff1602179055508173ffffffffffffffffffffffffffffffffffffffff168173ffffffffffffffffffffffffffffffffffffffff167f8be0079c531659141344cd1fd0a4f28419497f9722a3daafe3b4186f6b6457e060405160405180910390a35050565b828054620002d5906200046b565b90600052602060002090601f016020900481019282620002f9576000855562000345565b82601f106200031457805160ff191683800117855562000345565b8280016001018555821562000345579182015b828111156200034457825182559160200191906001019062000327565b5b50905062000354919062000358565b5090565b5b808211156200037357600081600090555060010162000359565b5090565b6000815190506200038881620004d0565b92915050565b6000815190506200039f81620004ea565b92915050565b600060208284031215620003b857600080fd5b6000620003c88482850162000377565b91505092915050565b600060208284031215620003e457600080fd5b6000620003f4848285016200038e565b91505092915050565b62000408816200042b565b82525050565b6000602082019050620004256000830184620003fd565b92915050565b600062000438826200044b565b9050919050565b60008115159050919050565b600073ffffffffffffffffffffffffffffffffffffffff82169050919050565b600060028204905060018216806200048457607f821691505b602082108114156200049b576200049a620004a1565b5b50919050565b7f4e487b7100000000000000000000000000000000000000000000000000000000600052602260045260246000fd5b620004db816200042b565b8114620004e757600080fd5b50565b620004f5816200043f565b81146200050157600080fd5b50565b61311c80620005146000396000f3fe608060405234801561001057600080fd5b50600436106100f15760003560e01c806301ffc9a7146100f657806306fdde0314610126578063081812fc14610144578063095ea7b31461017457806323b872dd1461019057806342842e0e146101ac5780636352211e146101c857806370a08231146101f8578063715018a6146102285780638da5cb5b1461023257806395d89b4114610250578063a1794bcd1461026e578063a22cb4651461028c578063b88d4fde146102a8578063b9a2de3a146102c4578063c87b56dd146102f4578063e985e9c514610324578063eacabe1414610354578063f2fde38b14610384575b600080fd5b610110600480360381019061010b91906120cb565b6103a0565b60405161011d9190612517565b60405180910390f35b61012e610482565b60405161013b9190612532565b60405180910390f35b61015e6004803603810190610159919061211d565b610514565b60405161016b91906124b0565b60405180910390f35b61018e6004803603810190610189919061208f565b610599565b005b6101aa60048036038101906101a59190611ee6565b6106b1565b005b6101c660048036038101906101c19190611ee6565b610711565b005b6101e260048036038101906101dd919061211d565b610731565b6040516101ef91906124b0565b60405180910390f35b610212600480360381019061020d9190611e81565b6107e3565b60405161021f9190612794565b60405180910390f35b61023061089b565b005b61023a610923565b60405161024791906124b0565b60405180910390f35b61025861094d565b6040516102659190612532565b60405180910390f35b6102766109df565b60405161028391906124b0565b60405180910390f35b6102a660048036038101906102a19190611fff565b610a05565b005b6102c260048036038101906102bd9190611f84565b610a1b565b005b6102de60048036038101906102d9919061211d565b610a7d565b6040516102eb9190612517565b60405180910390f35b61030e6004803603810190610309919061211d565b610b59565b60405161031b9190612532565b60405180910390f35b61033e60048036038101906103399190611eaa565b610cab565b60405161034b9190612517565b60405180910390f35b61036e6004803603810190610369919061203b565b610d3f565b60405161037b9190612794565b60405180910390f35b61039e60048036038101906103999190611e81565b610d77565b005b60007f80ac58cd000000000000000000000000000000000000000000000000000000007bffffffffffffffffffffffffffffffffffffffffffffffffffffffff1916827bffffffffffffffffffffffffffffffffffffffffffffffffffffffff1916148061046b57507f5b5e139f000000000000000000000000000000000000000000000000000000007bffffffffffffffffffffffffffffffffffffffffffffffffffffffff1916827bffffffffffffffffffffffffffffffffffffffffffffffffffffffff1916145b8061047b575061047a82610e6f565b5b9050919050565b606060008054610491906129ea565b80601f01602080910402602001604051908101604052809291908181526020018280546104bd906129ea565b801561050a5780601f106104df5761010080835404028352916020019161050a565b820191906000526020600020905b8154815290600101906020018083116104ed57829003601f168201915b5050505050905090565b600061051f82610ed9565b61055e576040517f08c379a0000000000000000000000000000000000000000000000000000000008152600401610555906126f4565b60405180910390fd5b6004600083815260200190815260200160002060009054906101000a900473ffffffffffffffffffffffffffffffffffffffff169050919050565b60006105a482610731565b90508073ffffffffffffffffffffffffffffffffffffffff168373ffffffffffffffffffffffffffffffffffffffff161415610615576040517f08c379a000000000000000000000000000000000000000000000000000000000815260040161060c90612754565b60405180910390fd5b8073ffffffffffffffffffffffffffffffffffffffff16610634610f45565b73ffffffffffffffffffffffffffffffffffffffff16148061066357506106628161065d610f45565b610cab565b5b6106a2576040517f08c379a000000000000000000000000000000000000000000000000000000000815260040161069990612634565b60405180910390fd5b6106ac8383610f4d565b505050565b6106c26106bc610f45565b82611006565b610701576040517f08c379a00000000000000000000000000000000000000000000000000000000081526004016106f890612774565b60405180910390fd5b61070c8383836110e4565b505050565b61072c83838360405180602001604052806000815250610a1b565b505050565b6000806002600084815260200190815260200160002060009054906101000a900473ffffffffffffffffffffffffffffffffffffffff169050600073ffffffffffffffffffffffffffffffffffffffff168173ffffffffffffffffffffffffffffffffffffffff1614156107da576040517f08c379a00000000000000000000000000000000000000000000000000000000081526004016107d190612674565b60405180910390fd5b80915050919050565b60008073ffffffffffffffffffffffffffffffffffffffff168273ffffffffffffffffffffffffffffffffffffffff161415610854576040517f08c379a000000000000000000000000000000000000000000000000000000000815260040161084b90612654565b60405180910390fd5b600360008373ffffffffffffffffffffffffffffffffffffffff1673ffffffffffffffffffffffffffffffffffffffff168152602001908152602001600020549050919050565b6108a3610f45565b73ffffffffffffffffffffffffffffffffffffffff166108c1610923565b73ffffffffffffffffffffffffffffffffffffffff1614610917576040517f08c379a000000000000000000000000000000000000000000000000000000000815260040161090e90612714565b60405180910390fd5b610921600061134b565b565b6000600760009054906101000a900473ffffffffffffffffffffffffffffffffffffffff16905090565b60606001805461095c906129ea565b80601f0160208091040260200160405190810160405280929190818152602001828054610988906129ea565b80156109d55780601f106109aa576101008083540402835291602001916109d5565b820191906000526020600020905b8154815290600101906020018083116109b857829003601f168201915b5050505050905090565b600960009054906101000a900473ffffffffffffffffffffffffffffffffffffffff1681565b610a17610a10610f45565b8383611411565b5050565b610a2c610a26610f45565b83611006565b610a6b576040517f08c379a0000000000000000000000000000000000000000000000000000000008152600401610a6290612774565b60405180910390fd5b610a778484848461157e565b50505050565b6000806000806000600960009054906101000a900473ffffffffffffffffffffffffffffffffffffffff1690508073ffffffffffffffffffffffffffffffffffffffff166337cc7c18876040518263ffffffff1660e01b8152600401610ae39190612794565b606060405180830381600087803b158015610afd57600080fd5b505af1158015610b11573d6000803e3d6000fd5b505050506040513d601f19601f82011682018060405250810190610b359190611f35565b809450819550829650505050610b4c3384846106b1565b6001945050505050919050565b6060610b6482610ed9565b610ba3576040517f08c379a0000000000000000000000000000000000000000000000000000000008152600401610b9a906126d4565b60405180910390fd5b6000600660008481526020019081526020016000208054610bc3906129ea565b80601f0160208091040260200160405190810160405280929190818152602001828054610bef906129ea565b8015610c3c5780601f10610c1157610100808354040283529160200191610c3c565b820191906000526020600020905b815481529060010190602001808311610c1f57829003601f168201915b505050505090506000610c4d6115da565b9050600081511415610c63578192505050610ca6565b600082511115610c98578082604051602001610c8092919061248c565b60405160208183030381529060405292505050610ca6565b610ca1846115f1565b925050505b919050565b6000600560008473ffffffffffffffffffffffffffffffffffffffff1673ffffffffffffffffffffffffffffffffffffffff16815260200190815260200160002060008373ffffffffffffffffffffffffffffffffffffffff1673ffffffffffffffffffffffffffffffffffffffff16815260200190815260200160002060009054906101000a900460ff16905092915050565b6000610d4b6008611698565b6000610d5760086116ae565b9050610d6384826116bc565b610d6d8184611896565b8091505092915050565b610d7f610f45565b73ffffffffffffffffffffffffffffffffffffffff16610d9d610923565b73ffffffffffffffffffffffffffffffffffffffff1614610df3576040517f08c379a0000000000000000000000000000000000000000000000000000000008152600401610dea90612714565b60405180910390fd5b600073ffffffffffffffffffffffffffffffffffffffff168173ffffffffffffffffffffffffffffffffffffffff161415610e63576040517f08c379a0000000000000000000000000000000000000000000000000000000008152600401610e5a90612574565b60405180910390fd5b610e6c8161134b565b50565b60007f01ffc9a7000000000000000000000000000000000000000000000000000000007bffffffffffffffffffffffffffffffffffffffffffffffffffffffff1916827bffffffffffffffffffffffffffffffffffffffffffffffffffffffff1916149050919050565b60008073ffffffffffffffffffffffffffffffffffffffff166002600084815260200190815260200160002060009054906101000a900473ffffffffffffffffffffffffffffffffffffffff1673ffffffffffffffffffffffffffffffffffffffff1614159050919050565b600033905090565b816004600083815260200190815260200160002060006101000a81548173ffffffffffffffffffffffffffffffffffffffff021916908373ffffffffffffffffffffffffffffffffffffffff160217905550808273ffffffffffffffffffffffffffffffffffffffff16610fc083610731565b73ffffffffffffffffffffffffffffffffffffffff167f8c5be1e5ebec7d5bd14f71427d1e84f3dd0314c0f7b2291e5b200ac8c7c3b92560405160405180910390a45050565b600061101182610ed9565b611050576040517f08c379a000000000000000000000000000000000000000000000000000000000815260040161104790612614565b60405180910390fd5b600061105b83610731565b90508073ffffffffffffffffffffffffffffffffffffffff168473ffffffffffffffffffffffffffffffffffffffff16148061109d575061109c8185610cab565b5b806110db57508373ffffffffffffffffffffffffffffffffffffffff166110c384610514565b73ffffffffffffffffffffffffffffffffffffffff16145b91505092915050565b8273ffffffffffffffffffffffffffffffffffffffff1661110482610731565b73ffffffffffffffffffffffffffffffffffffffff161461115a576040517f08c379a000000000000000000000000000000000000000000000000000000000815260040161115190612594565b60405180910390fd5b600073ffffffffffffffffffffffffffffffffffffffff168273ffffffffffffffffffffffffffffffffffffffff1614156111ca576040517f08c379a00000000000000000000000000000000000000000000000000000000081526004016111c1906125d4565b60405180910390fd5b6111d583838361190a565b6111e0600082610f4d565b6001600360008573ffffffffffffffffffffffffffffffffffffffff1673ffffffffffffffffffffffffffffffffffffffff16815260200190815260200160002060008282546112309190612900565b925050819055506001600360008473ffffffffffffffffffffffffffffffffffffffff1673ffffffffffffffffffffffffffffffffffffffff16815260200190815260200160002060008282546112879190612879565b92505081905550816002600083815260200190815260200160002060006101000a81548173ffffffffffffffffffffffffffffffffffffffff021916908373ffffffffffffffffffffffffffffffffffffffff160217905550808273ffffffffffffffffffffffffffffffffffffffff168473ffffffffffffffffffffffffffffffffffffffff167fddf252ad1be2c89b69c2b068fc378daa952ba7f163c4a11628f55a4df523b3ef60405160405180910390a461134683838361190f565b505050565b6000600760009054906101000a900473ffffffffffffffffffffffffffffffffffffffff16905081600760006101000a81548173ffffffffffffffffffffffffffffffffffffffff021916908373ffffffffffffffffffffffffffffffffffffffff1602179055508173ffffffffffffffffffffffffffffffffffffffff168173ffffffffffffffffffffffffffffffffffffffff167f8be0079c531659141344cd1fd0a4f28419497f9722a3daafe3b4186f6b6457e060405160405180910390a35050565b8173ffffffffffffffffffffffffffffffffffffffff168373ffffffffffffffffffffffffffffffffffffffff161415611480576040517f08c379a0000000000000000000000000000000000000000000000000000000008152600401611477906125f4565b60405180910390fd5b80600560008573ffffffffffffffffffffffffffffffffffffffff1673ffffffffffffffffffffffffffffffffffffffff16815260200190815260200160002060008473ffffffffffffffffffffffffffffffffffffffff1673ffffffffffffffffffffffffffffffffffffffff16815260200190815260200160002060006101000a81548160ff0219169083151502179055508173ffffffffffffffffffffffffffffffffffffffff168373ffffffffffffffffffffffffffffffffffffffff167f17307eab39ab6107e8899845ad3d59bd9653f200f220920489ca2b5937696c31836040516115719190612517565b60405180910390a3505050565b6115898484846110e4565b61159584848484611914565b6115d4576040517f08c379a00000000000000000000000000000000000000000000000000000000081526004016115cb90612554565b60405180910390fd5b50505050565b606060405180602001604052806000815250905090565b60606115fc82610ed9565b61163b576040517f08c379a000000000000000000000000000000000000000000000000000000000815260040161163290612734565b60405180910390fd5b60006116456115da565b905060008151116116655760405180602001604052806000815250611690565b8061166f84611aab565b60405160200161168092919061248c565b6040516020818303038152906040525b915050919050565b6001816000016000828254019250508190555050565b600081600001549050919050565b600073ffffffffffffffffffffffffffffffffffffffff168273ffffffffffffffffffffffffffffffffffffffff16141561172c576040517f08c379a0000000000000000000000000000000000000000000000000000000008152600401611723906126b4565b60405180910390fd5b61173581610ed9565b15611775576040517f08c379a000000000000000000000000000000000000000000000000000000000815260040161176c906125b4565b60405180910390fd5b6117816000838361190a565b6001600360008473ffffffffffffffffffffffffffffffffffffffff1673ffffffffffffffffffffffffffffffffffffffff16815260200190815260200160002060008282546117d19190612879565b92505081905550816002600083815260200190815260200160002060006101000a81548173ffffffffffffffffffffffffffffffffffffffff021916908373ffffffffffffffffffffffffffffffffffffffff160217905550808273ffffffffffffffffffffffffffffffffffffffff16600073ffffffffffffffffffffffffffffffffffffffff167fddf252ad1be2c89b69c2b068fc378daa952ba7f163c4a11628f55a4df523b3ef60405160405180910390a46118926000838361190f565b5050565b61189f82610ed9565b6118de576040517f08c379a00000000000000000000000000000000000000000000000000000000081526004016118d590612694565b60405180910390fd5b80600660008481526020019081526020016000209080519060200190611905929190611c7b565b505050565b505050565b505050565b60006119358473ffffffffffffffffffffffffffffffffffffffff16611c58565b15611a9e578373ffffffffffffffffffffffffffffffffffffffff1663150b7a0261195e610f45565b8786866040518563ffffffff1660e01b815260040161198094939291906124cb565b602060405180830381600087803b15801561199a57600080fd5b505af19250505080156119cb57506040513d601f19601f820116820180604052508101906119c891906120f4565b60015b611a4e573d80600081146119fb576040519150601f19603f3d011682016040523d82523d6000602084013e611a00565b606091505b50600081511415611a46576040517f08c379a0000000000000000000000000000000000000000000000000000000008152600401611a3d90612554565b60405180910390fd5b805181602001fd5b63150b7a0260e01b7bffffffffffffffffffffffffffffffffffffffffffffffffffffffff1916817bffffffffffffffffffffffffffffffffffffffffffffffffffffffff191614915050611aa3565b600190505b949350505050565b60606000821415611af3576040518060400160405280600181526020017f30000000000000000000000000000000000000000000000000000000000000008152509050611c53565b600082905060005b60008214611b25578080611b0e90612a4d565b915050600a82611b1e91906128cf565b9150611afb565b60008167ffffffffffffffff811115611b67577f4e487b7100000000000000000000000000000000000000000000000000000000600052604160045260246000fd5b6040519080825280601f01601f191660200182016040528015611b995781602001600182028036833780820191505090505b5090505b60008514611c4c57600182611bb29190612900565b9150600a85611bc19190612a96565b6030611bcd9190612879565b60f81b818381518110611c09577f4e487b7100000000000000000000000000000000000000000000000000000000600052603260045260246000fd5b60200101907effffffffffffffffffffffffffffffffffffffffffffffffffffffffffffff1916908160001a905350600a85611c4591906128cf565b9450611b9d565b8093505050505b919050565b6000808273ffffffffffffffffffffffffffffffffffffffff163b119050919050565b828054611c87906129ea565b90600052602060002090601f016020900481019282611ca95760008555611cf0565b82601f10611cc257805160ff1916838001178555611cf0565b82800160010185558215611cf0579182015b82811115611cef578251825591602001919060010190611cd4565b5b509050611cfd9190611d01565b5090565b5b80821115611d1a576000816000905550600101611d02565b5090565b6000611d31611d2c846127d4565b6127af565b905082815260208101848484011115611d4957600080fd5b611d548482856129a8565b509392505050565b6000611d6f611d6a84612805565b6127af565b905082815260208101848484011115611d8757600080fd5b611d928482856129a8565b509392505050565b600081359050611da98161308a565b92915050565b600081519050611dbe8161308a565b92915050565b600081359050611dd3816130a1565b92915050565b600081359050611de8816130b8565b92915050565b600081519050611dfd816130b8565b92915050565b600082601f830112611e1457600080fd5b8135611e24848260208601611d1e565b91505092915050565b600082601f830112611e3e57600080fd5b8135611e4e848260208601611d5c565b91505092915050565b600081359050611e66816130cf565b92915050565b600081519050611e7b816130cf565b92915050565b600060208284031215611e9357600080fd5b6000611ea184828501611d9a565b91505092915050565b60008060408385031215611ebd57600080fd5b6000611ecb85828601611d9a565b9250506020611edc85828601611d9a565b9150509250929050565b600080600060608486031215611efb57600080fd5b6000611f0986828701611d9a565b9350506020611f1a86828701611d9a565b9250506040611f2b86828701611e57565b9150509250925092565b600080600060608486031215611f4a57600080fd5b6000611f5886828701611daf565b9350506020611f6986828701611daf565b9250506040611f7a86828701611e6c565b9150509250925092565b60008060008060808587031215611f9a57600080fd5b6000611fa887828801611d9a565b9450506020611fb987828801611d9a565b9350506040611fca87828801611e57565b925050606085013567ffffffffffffffff811115611fe757600080fd5b611ff387828801611e03565b91505092959194509250565b6000806040838503121561201257600080fd5b600061202085828601611d9a565b925050602061203185828601611dc4565b9150509250929050565b6000806040838503121561204e57600080fd5b600061205c85828601611d9a565b925050602083013567ffffffffffffffff81111561207957600080fd5b61208585828601611e2d565b9150509250929050565b600080604083850312156120a257600080fd5b60006120b085828601611d9a565b92505060206120c185828601611e57565b9150509250929050565b6000602082840312156120dd57600080fd5b60006120eb84828501611dd9565b91505092915050565b60006020828403121561210657600080fd5b600061211484828501611dee565b91505092915050565b60006020828403121561212f57600080fd5b600061213d84828501611e57565b91505092915050565b61214f81612934565b82525050565b61215e81612946565b82525050565b600061216f82612836565b612179818561284c565b93506121898185602086016129b7565b61219281612b83565b840191505092915050565b60006121a882612841565b6121b2818561285d565b93506121c28185602086016129b7565b6121cb81612b83565b840191505092915050565b60006121e182612841565b6121eb818561286e565b93506121fb8185602086016129b7565b80840191505092915050565b600061221460328361285d565b915061221f82612b94565b604082019050919050565b600061223760268361285d565b915061224282612be3565b604082019050919050565b600061225a60258361285d565b915061226582612c32565b604082019050919050565b600061227d601c8361285d565b915061228882612c81565b602082019050919050565b60006122a060248361285d565b91506122ab82612caa565b604082019050919050565b60006122c360198361285d565b91506122ce82612cf9565b602082019050919050565b60006122e6602c8361285d565b91506122f182612d22565b604082019050919050565b600061230960388361285d565b915061231482612d71565b604082019050919050565b600061232c602a8361285d565b915061233782612dc0565b604082019050919050565b600061234f60298361285d565b915061235a82612e0f565b604082019050919050565b6000612372602e8361285d565b915061237d82612e5e565b604082019050919050565b600061239560208361285d565b91506123a082612ead565b602082019050919050565b60006123b860318361285d565b91506123c382612ed6565b604082019050919050565b60006123db602c8361285d565b91506123e682612f25565b604082019050919050565b60006123fe60208361285d565b915061240982612f74565b602082019050919050565b6000612421602f8361285d565b915061242c82612f9d565b604082019050919050565b600061244460218361285d565b915061244f82612fec565b604082019050919050565b600061246760318361285d565b91506124728261303b565b604082019050919050565b6124868161299e565b82525050565b600061249882856121d6565b91506124a482846121d6565b91508190509392505050565b60006020820190506124c56000830184612146565b92915050565b60006080820190506124e06000830187612146565b6124ed6020830186612146565b6124fa604083018561247d565b818103606083015261250c8184612164565b905095945050505050565b600060208201905061252c6000830184612155565b92915050565b6000602082019050818103600083015261254c818461219d565b905092915050565b6000602082019050818103600083015261256d81612207565b9050919050565b6000602082019050818103600083015261258d8161222a565b9050919050565b600060208201905081810360008301526125ad8161224d565b9050919050565b600060208201905081810360008301526125cd81612270565b9050919050565b600060208201905081810360008301526125ed81612293565b9050919050565b6000602082019050818103600083015261260d816122b6565b9050919050565b6000602082019050818103600083015261262d816122d9565b9050919050565b6000602082019050818103600083015261264d816122fc565b9050919050565b6000602082019050818103600083015261266d8161231f565b9050919050565b6000602082019050818103600083015261268d81612342565b9050919050565b600060208201905081810360008301526126ad81612365565b9050919050565b600060208201905081810360008301526126cd81612388565b9050919050565b600060208201905081810360008301526126ed816123ab565b9050919050565b6000602082019050818103600083015261270d816123ce565b9050919050565b6000602082019050818103600083015261272d816123f1565b9050919050565b6000602082019050818103600083015261274d81612414565b9050919050565b6000602082019050818103600083015261276d81612437565b9050919050565b6000602082019050818103600083015261278d8161245a565b9050919050565b60006020820190506127a9600083018461247d565b92915050565b60006127b96127ca565b90506127c58282612a1c565b919050565b6000604051905090565b600067ffffffffffffffff8211156127ef576127ee612b54565b5b6127f882612b83565b9050602081019050919050565b600067ffffffffffffffff8211156128205761281f612b54565b5b61282982612b83565b9050602081019050919050565b600081519050919050565b600081519050919050565b600082825260208201905092915050565b600082825260208201905092915050565b600081905092915050565b60006128848261299e565b915061288f8361299e565b9250827fffffffffffffffffffffffffffffffffffffffffffffffffffffffffffffffff038211156128c4576128c3612ac7565b5b828201905092915050565b60006128da8261299e565b91506128e58361299e565b9250826128f5576128f4612af6565b5b828204905092915050565b600061290b8261299e565b91506129168361299e565b92508282101561292957612928612ac7565b5b828203905092915050565b600061293f8261297e565b9050919050565b60008115159050919050565b60007fffffffff0000000000000000000000000000000000000000000000000000000082169050919050565b600073ffffffffffffffffffffffffffffffffffffffff82169050919050565b6000819050919050565b82818337600083830152505050565b60005b838110156129d55780820151818401526020810190506129ba565b838111156129e4576000848401525b50505050565b60006002820490506001821680612a0257607f821691505b60208210811415612a1657612a15612b25565b5b50919050565b612a2582612b83565b810181811067ffffffffffffffff82111715612a4457612a43612b54565b5b80604052505050565b6000612a588261299e565b91507fffffffffffffffffffffffffffffffffffffffffffffffffffffffffffffffff821415612a8b57612a8a612ac7565b5b600182019050919050565b6000612aa18261299e565b9150612aac8361299e565b925082612abc57612abb612af6565b5b828206905092915050565b7f4e487b7100000000000000000000000000000000000000000000000000000000600052601160045260246000fd5b7f4e487b7100000000000000000000000000000000000000000000000000000000600052601260045260246000fd5b7f4e487b7100000000000000000000000000000000000000000000000000000000600052602260045260246000fd5b7f4e487b7100000000000000000000000000000000000000000000000000000000600052604160045260246000fd5b6000601f19601f8301169050919050565b7f4552433732313a207472616e7366657220746f206e6f6e20455243373231526560008201527f63656976657220696d706c656d656e7465720000000000000000000000000000602082015250565b7f4f776e61626c653a206e6577206f776e657220697320746865207a65726f206160008201527f6464726573730000000000000000000000000000000000000000000000000000602082015250565b7f4552433732313a207472616e736665722066726f6d20696e636f72726563742060008201527f6f776e6572000000000000000000000000000000000000000000000000000000602082015250565b7f4552433732313a20746f6b656e20616c7265616479206d696e74656400000000600082015250565b7f4552433732313a207472616e7366657220746f20746865207a65726f2061646460008201527f7265737300000000000000000000000000000000000000000000000000000000602082015250565b7f4552433732313a20617070726f766520746f2063616c6c657200000000000000600082015250565b7f4552433732313a206f70657261746f7220717565727920666f72206e6f6e657860008201527f697374656e7420746f6b656e0000000000000000000000000000000000000000602082015250565b7f4552433732313a20617070726f76652063616c6c6572206973206e6f74206f7760008201527f6e6572206e6f7220617070726f76656420666f7220616c6c0000000000000000602082015250565b7f4552433732313a2062616c616e636520717565727920666f7220746865207a6560008201527f726f206164647265737300000000000000000000000000000000000000000000602082015250565b7f4552433732313a206f776e657220717565727920666f72206e6f6e657869737460008201527f656e7420746f6b656e0000000000000000000000000000000000000000000000602082015250565b7f45524337323155524953746f726167653a2055524920736574206f66206e6f6e60008201527f6578697374656e7420746f6b656e000000000000000000000000000000000000602082015250565b7f4552433732313a206d696e7420746f20746865207a65726f2061646472657373600082015250565b7f45524337323155524953746f726167653a2055524920717565727920666f722060008201527f6e6f6e6578697374656e7420746f6b656e000000000000000000000000000000602082015250565b7f4552433732313a20617070726f76656420717565727920666f72206e6f6e657860008201527f697374656e7420746f6b656e0000000000000000000000000000000000000000602082015250565b7f4f776e61626c653a2063616c6c6572206973206e6f7420746865206f776e6572600082015250565b7f4552433732314d657461646174613a2055524920717565727920666f72206e6f60008201527f6e6578697374656e7420746f6b656e0000000000000000000000000000000000602082015250565b7f4552433732313a20617070726f76616c20746f2063757272656e74206f776e6560008201527f7200000000000000000000000000000000000000000000000000000000000000602082015250565b7f4552433732313a207472616e736665722063616c6c6572206973206e6f74206f60008201527f776e6572206e6f7220617070726f766564000000000000000000000000000000602082015250565b61309381612934565b811461309e57600080fd5b50565b6130aa81612946565b81146130b557600080fd5b50565b6130c181612952565b81146130cc57600080fd5b50565b6130d88161299e565b81146130e357600080fd5b5056fea2646970667358221220a242b2faa95c0f7834bb818b6ac53209d0ad4837ad7c8dd6a137bb13fbefe51b64736f6c63430008010033",
  "immutableReferences": {},
  "source": "//Contract based on [https://docs.openzeppelin.com/contracts/3.x/erc721](https://docs.openzeppelin.com/contracts/3.x/erc721)\n// SPDX-License-Identifier: MIT\npragma solidity ^0.8.1;\n\nimport '@openzeppelin/contracts/token/ERC721/ERC721.sol';\nimport '@openzeppelin/contracts/utils/Counters.sol';\nimport '@openzeppelin/contracts/access/Ownable.sol';\nimport '@openzeppelin/contracts/token/ERC721/extensions/ERC721URIStorage.sol';\nimport './AnyNFT.sol';\n\ncontract AntiqueNFT is AnyNFT, ERC721URIStorage, Ownable {\n    using Counters for Counters.Counter;\n    Counters.Counter private _tokenIds;\n    address public marketContract;\n\n    constructor(address _marketContract) ERC721('My Antiques', 'ANTIQUE-NFT') {\n        marketContract = _marketContract;\n        AnyNFTMarket market = AnyNFTMarket(marketContract);\n        market.NFTContractDeployed(address(this));\n    }\n\n    function mintNFT(address recipient, string memory tokenURI)\n        public\n        override\n        returns (uint256)\n    {\n        _tokenIds.increment();\n\n        uint256 newItemId = _tokenIds.current();\n        _mint(recipient, newItemId);\n        _setTokenURI(newItemId, tokenURI);\n\n        return newItemId;\n    }\n\n    function endAuction(uint256 antiqueId) public returns (bool success) {\n        address from;\n        address to;\n        uint256 tokenId;\n        AnyNFTMarket market = AnyNFTMarket(marketContract);\n        (from, to, tokenId) = market.endAntiqueAuction(antiqueId);\n        transferFrom(msg.sender, to, tokenId);\n        return true;\n    }\n}\n",
  "sourcePath": "/Users/donghao/Documents/code/inflaton/decentralized-antique-auction/smart-contracts/contracts/AntiqueNFT.sol",
  "compiler": {
    "name": "solc",
    "version": "0.8.1+commit.df193b15.Emscripten.clang"
  },
  "schemaVersion": "3.4.7",
  "updatedAt": "2022-06-06T02:28:47.942Z",
  "networkType": "ethereum",
  "devdoc": {
    "kind": "dev",
    "methods": {
      "approve(address,uint256)": {
        "details": "See {IERC721-approve}."
      },
      "balanceOf(address)": {
        "details": "See {IERC721-balanceOf}."
      },
      "getApproved(uint256)": {
        "details": "See {IERC721-getApproved}."
      },
      "isApprovedForAll(address,address)": {
        "details": "See {IERC721-isApprovedForAll}."
      },
      "name()": {
        "details": "See {IERC721Metadata-name}."
      },
      "owner()": {
        "details": "Returns the address of the current owner."
      },
      "ownerOf(uint256)": {
        "details": "See {IERC721-ownerOf}."
      },
      "renounceOwnership()": {
        "details": "Leaves the contract without owner. It will not be possible to call `onlyOwner` functions anymore. Can only be called by the current owner. NOTE: Renouncing ownership will leave the contract without an owner, thereby removing any functionality that is only available to the owner."
      },
      "safeTransferFrom(address,address,uint256)": {
        "details": "See {IERC721-safeTransferFrom}."
      },
      "safeTransferFrom(address,address,uint256,bytes)": {
        "details": "See {IERC721-safeTransferFrom}."
      },
      "setApprovalForAll(address,bool)": {
        "details": "See {IERC721-setApprovalForAll}."
      },
      "supportsInterface(bytes4)": {
        "details": "See {IERC165-supportsInterface}."
      },
      "symbol()": {
        "details": "See {IERC721Metadata-symbol}."
      },
      "tokenURI(uint256)": {
        "details": "See {IERC721Metadata-tokenURI}."
      },
      "transferFrom(address,address,uint256)": {
        "details": "See {IERC721-transferFrom}."
      },
      "transferOwnership(address)": {
        "details": "Transfers ownership of the contract to a new account (`newOwner`). Can only be called by the current owner."
      }
    },
    "version": 1
  },
  "userdoc": {
    "kind": "user",
    "methods": {},
    "version": 1
  }
}