{
  "contractName": "AntiqueStore",
  "abi": [
    {
      "inputs": [],
      "stateMutability": "nonpayable",
      "type": "constructor"
    },
    {
      "anonymous": false,
      "inputs": [
        {
          "indexed": true,
          "internalType": "uint256",
          "name": "antiqueId",
          "type": "uint256"
        },
        {
          "indexed": true,
          "internalType": "address",
          "name": "highestBidder",
          "type": "address"
        },
        {
          "indexed": true,
          "internalType": "uint256",
          "name": "highestBid",
          "type": "uint256"
        }
      ],
      "name": "AuctionEnded",
      "type": "event"
    },
    {
      "anonymous": false,
      "inputs": [
        {
          "indexed": true,
          "internalType": "uint256",
          "name": "antiqueId",
          "type": "uint256"
        }
      ],
      "name": "DeleteAntique",
      "type": "event"
    },
    {
      "anonymous": false,
      "inputs": [
        {
          "indexed": true,
          "internalType": "uint256",
          "name": "antiqueId",
          "type": "uint256"
        },
        {
          "indexed": true,
          "internalType": "address",
          "name": "nftContract",
          "type": "address"
        },
        {
          "indexed": true,
          "internalType": "uint256",
          "name": "tokenId",
          "type": "uint256"
        }
      ],
      "name": "NewAntique",
      "type": "event"
    },
    {
      "anonymous": false,
      "inputs": [
        {
          "indexed": true,
          "internalType": "uint256",
          "name": "antiqueId",
          "type": "uint256"
        },
        {
          "indexed": true,
          "internalType": "address",
          "name": "bidder",
          "type": "address"
        },
        {
          "indexed": true,
          "internalType": "uint256",
          "name": "amount",
          "type": "uint256"
        }
      ],
      "name": "NewBid",
      "type": "event"
    },
    {
      "anonymous": false,
      "inputs": [
        {
          "indexed": true,
          "internalType": "uint256",
          "name": "antiqueId",
          "type": "uint256"
        },
        {
          "indexed": true,
          "internalType": "address",
          "name": "bidder",
          "type": "address"
        },
        {
          "indexed": true,
          "internalType": "uint256",
          "name": "amount",
          "type": "uint256"
        }
      ],
      "name": "NewWithdrawal",
      "type": "event"
    },
    {
      "inputs": [],
      "name": "antiqueId",
      "outputs": [
        {
          "internalType": "uint256",
          "name": "",
          "type": "uint256"
        }
      ],
      "stateMutability": "view",
      "type": "function",
      "constant": true
    },
    {
      "inputs": [
        {
          "internalType": "uint256",
          "name": "",
          "type": "uint256"
        },
        {
          "internalType": "address",
          "name": "",
          "type": "address"
        }
      ],
      "name": "antiquePendingReturns",
      "outputs": [
        {
          "internalType": "uint256",
          "name": "",
          "type": "uint256"
        }
      ],
      "stateMutability": "view",
      "type": "function",
      "constant": true
    },
    {
      "inputs": [
        {
          "internalType": "uint256",
          "name": "",
          "type": "uint256"
        }
      ],
      "name": "antiques",
      "outputs": [
        {
          "internalType": "uint256",
          "name": "id",
          "type": "uint256"
        },
        {
          "internalType": "uint256",
          "name": "tokenId",
          "type": "uint256"
        },
        {
          "internalType": "uint256",
          "name": "startingPrice",
          "type": "uint256"
        },
        {
          "internalType": "uint256",
          "name": "reservePrice",
          "type": "uint256"
        },
        {
          "internalType": "uint256",
          "name": "highestBid",
          "type": "uint256"
        },
        {
          "internalType": "address",
          "name": "highestBidder",
          "type": "address"
        },
        {
          "internalType": "address",
          "name": "owner",
          "type": "address"
        },
        {
          "internalType": "uint256",
          "name": "auctionEndTime",
          "type": "uint256"
        },
        {
          "internalType": "bool",
          "name": "forSale",
          "type": "bool"
        },
        {
          "internalType": "string",
          "name": "tokenURI",
          "type": "string"
        },
        {
          "internalType": "bool",
          "name": "auctionEnded",
          "type": "bool"
        }
      ],
      "stateMutability": "view",
      "type": "function",
      "constant": true
    },
    {
      "inputs": [],
      "name": "contractOwner",
      "outputs": [
        {
          "internalType": "address",
          "name": "",
          "type": "address"
        }
      ],
      "stateMutability": "view",
      "type": "function",
      "constant": true
    },
    {
      "inputs": [],
      "name": "nftContract",
      "outputs": [
        {
          "internalType": "address",
          "name": "",
          "type": "address"
        }
      ],
      "stateMutability": "view",
      "type": "function",
      "constant": true
    },
    {
      "inputs": [
        {
          "internalType": "address",
          "name": "_nftContract",
          "type": "address"
        }
      ],
      "name": "NFTContractDeployed",
      "outputs": [
        {
          "internalType": "bool",
          "name": "",
          "type": "bool"
        }
      ],
      "stateMutability": "nonpayable",
      "type": "function"
    },
    {
      "inputs": [
        {
          "internalType": "bool",
          "name": "forSaleOnly",
          "type": "bool"
        }
      ],
      "name": "getAntiques",
      "outputs": [
        {
          "components": [
            {
              "internalType": "uint256",
              "name": "id",
              "type": "uint256"
            },
            {
              "internalType": "uint256",
              "name": "tokenId",
              "type": "uint256"
            },
            {
              "internalType": "uint256",
              "name": "startingPrice",
              "type": "uint256"
            },
            {
              "internalType": "uint256",
              "name": "reservePrice",
              "type": "uint256"
            },
            {
              "internalType": "uint256",
              "name": "highestBid",
              "type": "uint256"
            },
            {
              "internalType": "address",
              "name": "highestBidder",
              "type": "address"
            },
            {
              "internalType": "address",
              "name": "owner",
              "type": "address"
            },
            {
              "internalType": "uint256",
              "name": "auctionEndTime",
              "type": "uint256"
            },
            {
              "internalType": "bool",
              "name": "forSale",
              "type": "bool"
            },
            {
              "internalType": "string",
              "name": "tokenURI",
              "type": "string"
            },
            {
              "internalType": "bool",
              "name": "auctionEnded",
              "type": "bool"
            }
          ],
          "internalType": "struct AntiqueStore.Antique[]",
          "name": "",
          "type": "tuple[]"
        }
      ],
      "stateMutability": "view",
      "type": "function",
      "constant": true
    },
    {
      "inputs": [
        {
          "internalType": "string",
          "name": "tokenURI",
          "type": "string"
        },
        {
          "internalType": "uint256",
          "name": "startingPrice",
          "type": "uint256"
        },
        {
          "internalType": "uint256",
          "name": "reservePrice",
          "type": "uint256"
        },
        {
          "internalType": "uint256",
          "name": "royaltyValue",
          "type": "uint256"
        },
        {
          "internalType": "uint256",
          "name": "auctionEndTime",
          "type": "uint256"
        }
      ],
      "name": "sellAntique",
      "outputs": [
        {
          "internalType": "bool",
          "name": "success",
          "type": "bool"
        }
      ],
      "stateMutability": "nonpayable",
      "type": "function"
    },
    {
      "inputs": [
        {
          "internalType": "uint256",
          "name": "_antiqueId",
          "type": "uint256"
        }
      ],
      "name": "bidAntique",
      "outputs": [
        {
          "internalType": "bool",
          "name": "",
          "type": "bool"
        }
      ],
      "stateMutability": "payable",
      "type": "function",
      "payable": true
    },
    {
      "inputs": [],
      "name": "getMyBids",
      "outputs": [
        {
          "components": [
            {
              "internalType": "uint256",
              "name": "id",
              "type": "uint256"
            },
            {
              "internalType": "uint256",
              "name": "tokenId",
              "type": "uint256"
            },
            {
              "internalType": "uint256",
              "name": "startingPrice",
              "type": "uint256"
            },
            {
              "internalType": "uint256",
              "name": "reservePrice",
              "type": "uint256"
            },
            {
              "internalType": "uint256",
              "name": "highestBid",
              "type": "uint256"
            },
            {
              "internalType": "address",
              "name": "highestBidder",
              "type": "address"
            },
            {
              "internalType": "address",
              "name": "owner",
              "type": "address"
            },
            {
              "internalType": "uint256",
              "name": "auctionEndTime",
              "type": "uint256"
            },
            {
              "internalType": "bool",
              "name": "forSale",
              "type": "bool"
            },
            {
              "internalType": "string",
              "name": "tokenURI",
              "type": "string"
            },
            {
              "internalType": "bool",
              "name": "auctionEnded",
              "type": "bool"
            }
          ],
          "internalType": "struct AntiqueStore.Antique[]",
          "name": "",
          "type": "tuple[]"
        }
      ],
      "stateMutability": "view",
      "type": "function",
      "constant": true
    },
    {
      "inputs": [
        {
          "internalType": "uint256",
          "name": "_antiqueId",
          "type": "uint256"
        }
      ],
      "name": "endAuction",
      "outputs": [
        {
          "internalType": "bool",
          "name": "success",
          "type": "bool"
        }
      ],
      "stateMutability": "nonpayable",
      "type": "function"
    },
    {
      "inputs": [
        {
          "internalType": "uint256",
          "name": "_antiqueId",
          "type": "uint256"
        }
      ],
      "name": "endAntiqueAuction",
      "outputs": [
        {
          "internalType": "address",
          "name": "",
          "type": "address"
        },
        {
          "internalType": "address",
          "name": "",
          "type": "address"
        },
        {
          "internalType": "uint256",
          "name": "",
          "type": "uint256"
        }
      ],
      "stateMutability": "nonpayable",
      "type": "function"
    },
    {
      "inputs": [
        {
          "internalType": "uint256",
          "name": "_antiqueId",
          "type": "uint256"
        }
      ],
      "name": "withdraw",
      "outputs": [
        {
          "internalType": "bool",
          "name": "",
          "type": "bool"
        }
      ],
      "stateMutability": "payable",
      "type": "function",
      "payable": true
    },
    {
      "inputs": [
        {
          "internalType": "uint256",
          "name": "_antiqueId",
          "type": "uint256"
        },
        {
          "internalType": "uint256",
          "name": "startingPrice",
          "type": "uint256"
        },
        {
          "internalType": "uint256",
          "name": "reservePrice",
          "type": "uint256"
        },
        {
          "internalType": "uint256",
          "name": "auctionEndTime",
          "type": "uint256"
        }
      ],
      "name": "resellAntique",
      "outputs": [
        {
          "internalType": "bool",
          "name": "success",
          "type": "bool"
        }
      ],
      "stateMutability": "nonpayable",
      "type": "function"
    },
    {
      "inputs": [
        {
          "internalType": "uint256",
          "name": "_antiqueId",
          "type": "uint256"
        }
      ],
      "name": "deleteAntique",
      "outputs": [
        {
          "internalType": "bool",
          "name": "success",
          "type": "bool"
        }
      ],
      "stateMutability": "nonpayable",
      "type": "function"
    }
  ],
  "bytecode": "0x608060405234801561001057600080fd5b5033600160006101000a81548173ffffffffffffffffffffffffffffffffffffffff021916908373ffffffffffffffffffffffffffffffffffffffff1602179055506136e8806100616000396000f3fe6080604052600436106100b85760003560e01c80632e1a7d4d146100bd57806337cc7c18146100ed57806337e402f11461012c5780633850a13b146101695780633c2d61fe14610199578063434d0926146101d65780634ad7eab4146102135780634ddbf65e14610250578063788077a71461028d5780638c913171146102b8578063b9a2de3a146102e3578063cd1af4e714610320578063ce606ee014610367578063d56d229d14610392578063e3b547a4146103bd575b600080fd5b6100d760048036038101906100d2919061291b565b6103fa565b6040516100e49190612e91565b60405180910390f35b3480156100f957600080fd5b50610114600480360381019061010f919061291b565b6105a3565b60405161012393929190612dec565b60405180910390f35b34801561013857600080fd5b50610153600480360381019061014e9190612863565b6107a9565b6040516101609190612e6f565b60405180910390f35b610183600480360381019061017e919061291b565b610cab565b6040516101909190612e91565b60405180910390f35b3480156101a557600080fd5b506101c060048036038101906101bb919061288c565b610cbe565b6040516101cd9190612e91565b60405180910390f35b3480156101e257600080fd5b506101fd60048036038101906101f891906129a9565b610d93565b60405161020a9190612e91565b60405180910390f35b34801561021f57600080fd5b5061023a6004803603810190610235919061291b565b610fe1565b6040516102479190612e91565b60405180910390f35b34801561025c57600080fd5b506102776004803603810190610272919061296d565b611101565b604051610284919061300c565b60405180910390f35b34801561029957600080fd5b506102a2611126565b6040516102af9190612e6f565b60405180910390f35b3480156102c457600080fd5b506102cd6117c2565b6040516102da919061300c565b60405180910390f35b3480156102ef57600080fd5b5061030a6004803603810190610305919061291b565b6117c8565b6040516103179190612e91565b60405180910390f35b34801561032c57600080fd5b506103476004803603810190610342919061291b565b6117dc565b60405161035e9b9a99989796959493929190613050565b60405180910390f35b34801561037357600080fd5b5061037c611918565b6040516103899190612dd1565b60405180910390f35b34801561039e57600080fd5b506103a761193e565b6040516103b49190612dd1565b60405180910390f35b3480156103c957600080fd5b506103e460048036038101906103df91906127fe565b611962565b6040516103f19190612e91565b60405180910390f35b60008060036000848152602001908152602001600020905080600a0160009054906101000a900460ff16610463576040517f08c379a000000000000000000000000000000000000000000000000000000000815260040161045a90612eac565b60405180910390fd5b600060046000858152602001908152602001600020905060008160003373ffffffffffffffffffffffffffffffffffffffff1673ffffffffffffffffffffffffffffffffffffffff16815260200190815260200160002054905060008111156105525760008260003373ffffffffffffffffffffffffffffffffffffffff1673ffffffffffffffffffffffffffffffffffffffff168152602001908152602001600020819055503373ffffffffffffffffffffffffffffffffffffffff166108fc829081150290604051600060405180830381858888f19350505050158015610550573d6000803e3d6000fd5b505b803373ffffffffffffffffffffffffffffffffffffffff16867f6197e166e88e6eaa8b67c5520d3b6ee0ba80077953677bbeca80ac752a0d4cd060405160405180910390a460019350505050919050565b600080600080600360008681526020019081526020016000206040518061016001604052908160008201548152602001600182015481526020016002820154815260200160038201548152602001600482015481526020016005820160009054906101000a900473ffffffffffffffffffffffffffffffffffffffff1673ffffffffffffffffffffffffffffffffffffffff1673ffffffffffffffffffffffffffffffffffffffff1681526020016006820160009054906101000a900473ffffffffffffffffffffffffffffffffffffffff1673ffffffffffffffffffffffffffffffffffffffff1673ffffffffffffffffffffffffffffffffffffffff168152602001600782015481526020016008820160009054906101000a900460ff161515151581526020016009820180546106db9061327c565b80601f01602080910402602001604051908101604052809291908181526020018280546107079061327c565b80156107545780601f1061072957610100808354040283529160200191610754565b820191906000526020600020905b81548152906001019060200180831161073757829003601f168201915b50505050508152602001600a820160009054906101000a900460ff161515151581525050905060008160c00151905061078e8660006119ad565b50808260a00151836020015194509450945050509193909250565b60606000805b6002548110156109c3576000600360008381526020019081526020016000206040518061016001604052908160008201548152602001600182015481526020016002820154815260200160038201548152602001600482015481526020016005820160009054906101000a900473ffffffffffffffffffffffffffffffffffffffff1673ffffffffffffffffffffffffffffffffffffffff1673ffffffffffffffffffffffffffffffffffffffff1681526020016006820160009054906101000a900473ffffffffffffffffffffffffffffffffffffffff1673ffffffffffffffffffffffffffffffffffffffff1673ffffffffffffffffffffffffffffffffffffffff168152602001600782015481526020016008820160009054906101000a900460ff161515151581526020016009820180546108ed9061327c565b80601f01602080910402602001604051908101604052809291908181526020018280546109199061327c565b80156109665780601f1061093b57610100808354040283529160200191610966565b820191906000526020600020905b81548152906001019060200180831161094957829003601f168201915b50505050508152602001600a820160009054906101000a900460ff161515151581525050905084158061099b57508061010001515b156109af5782806109ab906132df565b9350505b5080806109bb906132df565b9150506107af565b5060008167ffffffffffffffff811115610a06577f4e487b7100000000000000000000000000000000000000000000000000000000600052604160045260246000fd5b604051908082528060200260200182016040528015610a3f57816020015b610a2c612600565b815260200190600190039081610a245790505b5090506000915060005b600254811015610ca0576000600360008381526020019081526020016000206040518061016001604052908160008201548152602001600182015481526020016002820154815260200160038201548152602001600482015481526020016005820160009054906101000a900473ffffffffffffffffffffffffffffffffffffffff1673ffffffffffffffffffffffffffffffffffffffff1673ffffffffffffffffffffffffffffffffffffffff1681526020016006820160009054906101000a900473ffffffffffffffffffffffffffffffffffffffff1673ffffffffffffffffffffffffffffffffffffffff1673ffffffffffffffffffffffffffffffffffffffff168152602001600782015481526020016008820160009054906101000a900460ff16151515158152602001600982018054610b879061327c565b80601f0160208091040260200160405190810160405280929190818152602001828054610bb39061327c565b8015610c005780601f10610bd557610100808354040283529160200191610c00565b820191906000526020600020905b815481529060010190602001808311610be357829003601f168201915b50505050508152602001600a820160009054906101000a900460ff1615151515815250509050851580610c3557508061010001515b15610c8c5780838580610c47906132df565b965081518110610c80577f4e487b7100000000000000000000000000000000000000000000000000000000600052603260045260246000fd5b60200260200101819052505b508080610c98906132df565b915050610a49565b508092505050919050565b6000610cb7823461203b565b9050919050565b60008060008054906101000a900473ffffffffffffffffffffffffffffffffffffffff16905060008173ffffffffffffffffffffffffffffffffffffffff166340576ba23333888c6040518563ffffffff1660e01b8152600401610d259493929190612e23565b602060405180830381600087803b158015610d3f57600080fd5b505af1158015610d53573d6000803e3d6000fd5b505050506040513d601f19601f82011682018060405250810190610d779190612944565b9050610d868189898988612355565b9250505095945050505050565b6000806003600087815260200190815260200160002090508060060160009054906101000a900473ffffffffffffffffffffffffffffffffffffffff1673ffffffffffffffffffffffffffffffffffffffff163373ffffffffffffffffffffffffffffffffffffffff161480610e0d5750610e0c6125a8565b5b610e4c576040517f08c379a0000000000000000000000000000000000000000000000000000000008152600401610e4390612f2c565b60405180910390fd5b600015158160080160009054906101000a900460ff16151514610ea4576040517f08c379a0000000000000000000000000000000000000000000000000000000008152600401610e9b90612fec565b60405180910390fd5b80600a0160009054906101000a900460ff16610ef5576040517f08c379a0000000000000000000000000000000000000000000000000000000008152600401610eec90612f6c565b60405180910390fd5b60008160050160006101000a81548173ffffffffffffffffffffffffffffffffffffffff021916908373ffffffffffffffffffffffffffffffffffffffff160217905550610fd68160010154826009018054610f509061327c565b80601f0160208091040260200160405190810160405280929190818152602001828054610f7c9061327c565b8015610fc95780601f10610f9e57610100808354040283529160200191610fc9565b820191906000526020600020905b815481529060010190602001808311610fac57829003601f168201915b5050505050878787612355565b915050949350505050565b60006003600083815260200190815260200160002060060160009054906101000a900473ffffffffffffffffffffffffffffffffffffffff1673ffffffffffffffffffffffffffffffffffffffff163373ffffffffffffffffffffffffffffffffffffffff16148061105757506110566125a8565b5b611096576040517f08c379a000000000000000000000000000000000000000000000000000000000815260040161108d90612f0c565b60405180910390fd5b600060036000848152602001908152602001600020905060008160080160006101000a81548160ff021916908315150217905550827f87a3be6ff0bed551a67488b9b503f11fc3b960fedc980122474cd59c630aac2360405160405180910390a26001915050919050565b6004602052816000526040600020602052806000526040600020600091509150505481565b60606000805b6002548110156113c9576000600360008381526020019081526020016000206040518061016001604052908160008201548152602001600182015481526020016002820154815260200160038201548152602001600482015481526020016005820160009054906101000a900473ffffffffffffffffffffffffffffffffffffffff1673ffffffffffffffffffffffffffffffffffffffff1673ffffffffffffffffffffffffffffffffffffffff1681526020016006820160009054906101000a900473ffffffffffffffffffffffffffffffffffffffff1673ffffffffffffffffffffffffffffffffffffffff1673ffffffffffffffffffffffffffffffffffffffff168152602001600782015481526020016008820160009054906101000a900460ff1615151515815260200160098201805461126a9061327c565b80601f01602080910402602001604051908101604052809291908181526020018280546112969061327c565b80156112e35780601f106112b8576101008083540402835291602001916112e3565b820191906000526020600020905b8154815290600101906020018083116112c657829003601f168201915b50505050508152602001600a820160009054906101000a900460ff16151515158152505090506000600460008360000151815260200190815260200160002090503373ffffffffffffffffffffffffffffffffffffffff168260a0015173ffffffffffffffffffffffffffffffffffffffff1614806113a0575060008160003373ffffffffffffffffffffffffffffffffffffffff1673ffffffffffffffffffffffffffffffffffffffff16815260200190815260200160002054115b156113b45783806113b0906132df565b9450505b505080806113c1906132df565b91505061112c565b5060008167ffffffffffffffff81111561140c577f4e487b7100000000000000000000000000000000000000000000000000000000600052604160045260246000fd5b60405190808252806020026020018201604052801561144557816020015b611432612600565b81526020019060019003908161142a5790505b5090506000915060005b6002548110156117b9576000600360008381526020019081526020016000206040518061016001604052908160008201548152602001600182015481526020016002820154815260200160038201548152602001600482015481526020016005820160009054906101000a900473ffffffffffffffffffffffffffffffffffffffff1673ffffffffffffffffffffffffffffffffffffffff1673ffffffffffffffffffffffffffffffffffffffff1681526020016006820160009054906101000a900473ffffffffffffffffffffffffffffffffffffffff1673ffffffffffffffffffffffffffffffffffffffff1673ffffffffffffffffffffffffffffffffffffffff168152602001600782015481526020016008820160009054906101000a900460ff1615151515815260200160098201805461158d9061327c565b80601f01602080910402602001604051908101604052809291908181526020018280546115b99061327c565b80156116065780601f106115db57610100808354040283529160200191611606565b820191906000526020600020905b8154815290600101906020018083116115e957829003601f168201915b50505050508152602001600a820160009054906101000a900460ff16151515158152505090506000600460008360000151815260200190815260200160002090503373ffffffffffffffffffffffffffffffffffffffff168260a0015173ffffffffffffffffffffffffffffffffffffffff1614806116c3575060008160003373ffffffffffffffffffffffffffffffffffffffff1673ffffffffffffffffffffffffffffffffffffffff16815260200190815260200160002054115b156117a4573373ffffffffffffffffffffffffffffffffffffffff168260a0015173ffffffffffffffffffffffffffffffffffffffff1614611743578060003373ffffffffffffffffffffffffffffffffffffffff1673ffffffffffffffffffffffffffffffffffffffff16815260200190815260200160002054611749565b81608001515b8260600181815250508184868061175f906132df565b975081518110611798577f4e487b7100000000000000000000000000000000000000000000000000000000600052603260045260246000fd5b60200260200101819052505b505080806117b1906132df565b91505061144f565b50809250505090565b60025481565b60006117d58260016119ad565b9050919050565b60036020528060005260406000206000915090508060000154908060010154908060020154908060030154908060040154908060050160009054906101000a900473ffffffffffffffffffffffffffffffffffffffff16908060060160009054906101000a900473ffffffffffffffffffffffffffffffffffffffff16908060070154908060080160009054906101000a900460ff16908060090180546118829061327c565b80601f01602080910402602001604051908101604052809291908181526020018280546118ae9061327c565b80156118fb5780601f106118d0576101008083540402835291602001916118fb565b820191906000526020600020905b8154815290600101906020018083116118de57829003601f168201915b50505050509080600a0160009054906101000a900460ff1690508b565b600160009054906101000a900473ffffffffffffffffffffffffffffffffffffffff1681565b60008054906101000a900473ffffffffffffffffffffffffffffffffffffffff1681565b6000816000806101000a81548173ffffffffffffffffffffffffffffffffffffffff021916908373ffffffffffffffffffffffffffffffffffffffff16021790555060019050919050565b60008060036000858152602001908152602001600020905060008054906101000a900473ffffffffffffffffffffffffffffffffffffffff1673ffffffffffffffffffffffffffffffffffffffff163373ffffffffffffffffffffffffffffffffffffffff161480611a6e57508060060160009054906101000a900473ffffffffffffffffffffffffffffffffffffffff1673ffffffffffffffffffffffffffffffffffffffff163373ffffffffffffffffffffffffffffffffffffffff16145b80611a7d5750611a7c6125a8565b5b611abc576040517f08c379a0000000000000000000000000000000000000000000000000000000008152600401611ab390612f8c565b60405180910390fd5b600115158160080160009054906101000a900460ff16151514611b14576040517f08c379a0000000000000000000000000000000000000000000000000000000008152600401611b0b90612f4c565b60405180910390fd5b80600a0160009054906101000a900460ff1615611b66576040517f08c379a0000000000000000000000000000000000000000000000000000000008152600401611b5d90612fac565b60405180910390fd5b806003015481600401541015611bb1576040517f08c379a0000000000000000000000000000000000000000000000000000000008152600401611ba890612eec565b60405180910390fd5b60008160080160006101000a81548160ff021916908315150217905550600181600a0160006101000a81548160ff021916908315150217905550600060046000868152602001908152602001600020905060008060009054906101000a900473ffffffffffffffffffffffffffffffffffffffff1690508415611cc6578073ffffffffffffffffffffffffffffffffffffffff166323b872dd338560050160009054906101000a900473ffffffffffffffffffffffffffffffffffffffff1686600101546040518463ffffffff1660e01b8152600401611c9393929190612dec565b600060405180830381600087803b158015611cad57600080fd5b505af1158015611cc1573d6000803e3d6000fd5b505050505b6000808273ffffffffffffffffffffffffffffffffffffffff16632a55205a866001015487600401546040518363ffffffff1660e01b8152600401611d0c929190613027565b604080518083038186803b158015611d2357600080fd5b505afa158015611d37573d6000803e3d6000fd5b505050506040513d601f19601f82011682018060405250810190611d5b9190612827565b80925081935050508460060160009054906101000a900473ffffffffffffffffffffffffffffffffffffffff1673ffffffffffffffffffffffffffffffffffffffff168273ffffffffffffffffffffffffffffffffffffffff1614611e80578173ffffffffffffffffffffffffffffffffffffffff166108fc829081150290604051600060405180830381858888f19350505050158015611e00573d6000803e3d6000fd5b508460060160009054906101000a900473ffffffffffffffffffffffffffffffffffffffff1673ffffffffffffffffffffffffffffffffffffffff166108fc828760040154611e4f91906131be565b9081150290604051600060405180830381858888f19350505050158015611e7a573d6000803e3d6000fd5b50611ef0565b8460060160009054906101000a900473ffffffffffffffffffffffffffffffffffffffff1673ffffffffffffffffffffffffffffffffffffffff166108fc86600401549081150290604051600060405180830381858888f19350505050158015611eee573d6000803e3d6000fd5b505b60008460008760050160009054906101000a900473ffffffffffffffffffffffffffffffffffffffff1673ffffffffffffffffffffffffffffffffffffffff1673ffffffffffffffffffffffffffffffffffffffff168152602001908152602001600020819055508460050160009054906101000a900473ffffffffffffffffffffffffffffffffffffffff168560060160006101000a81548173ffffffffffffffffffffffffffffffffffffffff021916908373ffffffffffffffffffffffffffffffffffffffff16021790555084600401548560050160009054906101000a900473ffffffffffffffffffffffffffffffffffffffff1673ffffffffffffffffffffffffffffffffffffffff16897fd2aa34a4fdbbc6dff6a3e56f46e0f3ae2a31d7785ff3487aa5c95c642acea50160405160405180910390a460019550505050505092915050565b600080600360008581526020019081526020016000209050600115158160080160009054906101000a900460ff161515146120ab576040517f08c379a00000000000000000000000000000000000000000000000000000000081526004016120a290612f4c565b60405180910390fd5b80600a0160009054906101000a900460ff161580156120ce575080600701544211155b61210d576040517f08c379a000000000000000000000000000000000000000000000000000000000815260040161210490612ecc565b60405180910390fd5b806002015483101580156121245750806004015483115b612163576040517f08c379a000000000000000000000000000000000000000000000000000000000815260040161215a90612fcc565b60405180910390fd5b600060046000868152602001908152602001600020905060008160003373ffffffffffffffffffffffffffffffffffffffff1673ffffffffffffffffffffffffffffffffffffffff16815260200190815260200160002054111561224d5760008160003373ffffffffffffffffffffffffffffffffffffffff1673ffffffffffffffffffffffffffffffffffffffff1681526020019081526020016000205490503373ffffffffffffffffffffffffffffffffffffffff166108fc829081150290604051600060405180830381858888f1935050505015801561224a573d6000803e3d6000fd5b50505b838160003373ffffffffffffffffffffffffffffffffffffffff1673ffffffffffffffffffffffffffffffffffffffff16815260200190815260200160002081905550338260050160006101000a81548173ffffffffffffffffffffffffffffffffffffffff021916908373ffffffffffffffffffffffffffffffffffffffff16021790555083826004018190555081600401548260050160009054906101000a900473ffffffffffffffffffffffffffffffffffffffff1673ffffffffffffffffffffffffffffffffffffffff16867f558a0d5d5468d74b0db24c74eb348b42271c2ebb4c9e953ced38aaed95fa436160405160405180910390a460019250505092915050565b600080604051806101600160405280600254815260200188815260200186815260200185815260200160008152602001600073ffffffffffffffffffffffffffffffffffffffff1681526020013373ffffffffffffffffffffffffffffffffffffffff16815260200184815260200160011515815260200187815260200160001515815250905080600360006002548152602001908152602001600020600082015181600001556020820151816001015560408201518160020155606082015181600301556080820151816004015560a08201518160050160006101000a81548173ffffffffffffffffffffffffffffffffffffffff021916908373ffffffffffffffffffffffffffffffffffffffff16021790555060c08201518160060160006101000a81548173ffffffffffffffffffffffffffffffffffffffff021916908373ffffffffffffffffffffffffffffffffffffffff16021790555060e082015181600701556101008201518160080160006101000a81548160ff0219169083151502179055506101208201518160090190805190602001906124fa92919061268a565b5061014082015181600a0160006101000a81548160ff0219169083151502179055509050508660008054906101000a900473ffffffffffffffffffffffffffffffffffffffff1673ffffffffffffffffffffffffffffffffffffffff166002600081548092919061256a906132df565b919050557fb4655f9265ae262396e6d5c261f1da27c0ffd551f1cb92f452c1173a21a35d7b60405160405180910390a4600191505095945050505050565b60003373ffffffffffffffffffffffffffffffffffffffff16600160009054906101000a900473ffffffffffffffffffffffffffffffffffffffff1673ffffffffffffffffffffffffffffffffffffffff1614905090565b6040518061016001604052806000815260200160008152602001600081526020016000815260200160008152602001600073ffffffffffffffffffffffffffffffffffffffff168152602001600073ffffffffffffffffffffffffffffffffffffffff16815260200160008152602001600015158152602001606081526020016000151581525090565b8280546126969061327c565b90600052602060002090601f0160209004810192826126b857600085556126ff565b82601f106126d157805160ff19168380011785556126ff565b828001600101855582156126ff579182015b828111156126fe5782518255916020019190600101906126e3565b5b50905061270c9190612710565b5090565b5b80821115612729576000816000905550600101612711565b5090565b600061274061273b84613127565b613102565b90508281526020810184848401111561275857600080fd5b61276384828561323a565b509392505050565b60008135905061277a8161366d565b92915050565b60008151905061278f8161366d565b92915050565b6000813590506127a481613684565b92915050565b600082601f8301126127bb57600080fd5b81356127cb84826020860161272d565b91505092915050565b6000813590506127e38161369b565b92915050565b6000815190506127f88161369b565b92915050565b60006020828403121561281057600080fd5b600061281e8482850161276b565b91505092915050565b6000806040838503121561283a57600080fd5b600061284885828601612780565b9250506020612859858286016127e9565b9150509250929050565b60006020828403121561287557600080fd5b600061288384828501612795565b91505092915050565b600080600080600060a086880312156128a457600080fd5b600086013567ffffffffffffffff8111156128be57600080fd5b6128ca888289016127aa565b95505060206128db888289016127d4565b94505060406128ec888289016127d4565b93505060606128fd888289016127d4565b925050608061290e888289016127d4565b9150509295509295909350565b60006020828403121561292d57600080fd5b600061293b848285016127d4565b91505092915050565b60006020828403121561295657600080fd5b6000612964848285016127e9565b91505092915050565b6000806040838503121561298057600080fd5b600061298e858286016127d4565b925050602061299f8582860161276b565b9150509250929050565b600080600080608085870312156129bf57600080fd5b60006129cd878288016127d4565b94505060206129de878288016127d4565b93505060406129ef878288016127d4565b9250506060612a00878288016127d4565b91505092959194509250565b6000612a188383612cc4565b905092915050565b612a29816131f2565b82525050565b612a38816131f2565b82525050565b6000612a4982613168565b612a53818561318b565b935083602082028501612a6585613158565b8060005b85811015612aa15784840389528151612a828582612a0c565b9450612a8d8361317e565b925060208a01995050600181019050612a69565b50829750879550505050505092915050565b612abc81613204565b82525050565b612acb81613204565b82525050565b6000612adc82613173565b612ae6818561319c565b9350612af6818560208601613249565b612aff816133b5565b840191505092915050565b6000612b1582613173565b612b1f81856131ad565b9350612b2f818560208601613249565b612b38816133b5565b840191505092915050565b6000612b50602f836131ad565b9150612b5b826133c6565b604082019050919050565b6000612b73602f836131ad565b9150612b7e82613415565b604082019050919050565b6000612b96600f836131ad565b9150612ba182613464565b602082019050919050565b6000612bb9602e836131ad565b9150612bc48261348d565b604082019050919050565b6000612bdc602e836131ad565b9150612be7826134dc565b604082019050919050565b6000612bff601b836131ad565b9150612c0a8261352b565b602082019050919050565b6000612c226019836131ad565b9150612c2d82613554565b602082019050919050565b6000612c456036836131ad565b9150612c508261357d565b604082019050919050565b6000612c68601d836131ad565b9150612c73826135cc565b602082019050919050565b6000612c8b6022836131ad565b9150612c96826135f5565b604082019050919050565b6000612cae601f836131ad565b9150612cb982613644565b602082019050919050565b600061016083016000830151612cdd6000860182612db3565b506020830151612cf06020860182612db3565b506040830151612d036040860182612db3565b506060830151612d166060860182612db3565b506080830151612d296080860182612db3565b5060a0830151612d3c60a0860182612a20565b5060c0830151612d4f60c0860182612a20565b5060e0830151612d6260e0860182612db3565b50610100830151612d77610100860182612ab3565b50610120830151848203610120860152612d918282612ad1565b915050610140830151612da8610140860182612ab3565b508091505092915050565b612dbc81613230565b82525050565b612dcb81613230565b82525050565b6000602082019050612de66000830184612a2f565b92915050565b6000606082019050612e016000830186612a2f565b612e0e6020830185612a2f565b612e1b6040830184612dc2565b949350505050565b6000608082019050612e386000830187612a2f565b612e456020830186612a2f565b612e526040830185612dc2565b8181036060830152612e648184612b0a565b905095945050505050565b60006020820190508181036000830152612e898184612a3e565b905092915050565b6000602082019050612ea66000830184612ac2565b92915050565b60006020820190508181036000830152612ec581612b43565b9050919050565b60006020820190508181036000830152612ee581612b66565b9050919050565b60006020820190508181036000830152612f0581612b89565b9050919050565b60006020820190508181036000830152612f2581612bac565b9050919050565b60006020820190508181036000830152612f4581612bcf565b9050919050565b60006020820190508181036000830152612f6581612bf2565b9050919050565b60006020820190508181036000830152612f8581612c15565b9050919050565b60006020820190508181036000830152612fa581612c38565b9050919050565b60006020820190508181036000830152612fc581612c5b565b9050919050565b60006020820190508181036000830152612fe581612c7e565b9050919050565b6000602082019050818103600083015261300581612ca1565b9050919050565b60006020820190506130216000830184612dc2565b92915050565b600060408201905061303c6000830185612dc2565b6130496020830184612dc2565b9392505050565b600061016082019050613066600083018e612dc2565b613073602083018d612dc2565b613080604083018c612dc2565b61308d606083018b612dc2565b61309a608083018a612dc2565b6130a760a0830189612a2f565b6130b460c0830188612a2f565b6130c160e0830187612dc2565b6130cf610100830186612ac2565b8181036101208301526130e28185612b0a565b90506130f2610140830184612ac2565b9c9b505050505050505050505050565b600061310c61311d565b905061311882826132ae565b919050565b6000604051905090565b600067ffffffffffffffff82111561314257613141613386565b5b61314b826133b5565b9050602081019050919050565b6000819050602082019050919050565b600081519050919050565b600081519050919050565b6000602082019050919050565b600082825260208201905092915050565b600082825260208201905092915050565b600082825260208201905092915050565b60006131c982613230565b91506131d483613230565b9250828210156131e7576131e6613328565b5b828203905092915050565b60006131fd82613210565b9050919050565b60008115159050919050565b600073ffffffffffffffffffffffffffffffffffffffff82169050919050565b6000819050919050565b82818337600083830152505050565b60005b8381101561326757808201518184015260208101905061324c565b83811115613276576000848401525b50505050565b6000600282049050600182168061329457607f821691505b602082108114156132a8576132a7613357565b5b50919050565b6132b7826133b5565b810181811067ffffffffffffffff821117156132d6576132d5613386565b5b80604052505050565b60006132ea82613230565b91507fffffffffffffffffffffffffffffffffffffffffffffffffffffffffffffffff82141561331d5761331c613328565b5b600182019050919050565b7f4e487b7100000000000000000000000000000000000000000000000000000000600052601160045260246000fd5b7f4e487b7100000000000000000000000000000000000000000000000000000000600052602260045260246000fd5b7f4e487b7100000000000000000000000000000000000000000000000000000000600052604160045260246000fd5b6000601f19601f8301169050919050565b7f596f752063616e6e6f7420776974686472617720756e74696c2074686520617560008201527f6374696f6e2068617320656e6465640000000000000000000000000000000000602082015250565b7f5468652061756374696f6e2068617320616c726561647920656e646564202d2060008201527f6e6f206269647320616c6c6f7765640000000000000000000000000000000000602082015250565b7f52657365727665206e6f74206d65740000000000000000000000000000000000600082015250565b7f596f7520617265206e6f7420617574686f726973656420746f2064656c65746560008201527f207468697320616e74697175652e000000000000000000000000000000000000602082015250565b7f596f7520617265206e6f7420617574686f726973656420746f20726573656c6c60008201527f207468697320616e74697175652e000000000000000000000000000000000000602082015250565b7f54686520616e7469717565206973206e6f7420666f722073616c650000000000600082015250565b7f5468652061756374696f6e20686173206e6f7420656e64656400000000000000600082015250565b7f596f7520617265206e6f7420617574686f726973656420746f20656e6420617560008201527f6374696f6e20666f72207468697320616e746971756500000000000000000000602082015250565b7f5468652061756374696f6e2068617320616c726561647920656e646564000000600082015250565b7f736f7272792c2074686520626964206973206e6f74206869676820656e6f756760008201527f6821000000000000000000000000000000000000000000000000000000000000602082015250565b7f54686520616e746971756520697320616c726561647920666f722073616c6500600082015250565b613676816131f2565b811461368157600080fd5b50565b61368d81613204565b811461369857600080fd5b50565b6136a481613230565b81146136af57600080fd5b5056fea2646970667358221220ee3a636f4f9e3b84b7688e427d829746ae20631004b51426345c79f4e9b29a2264736f6c63430008010033",
  "immutableReferences": {},
  "source": "//SPDX-License-Identifier: GPL-3.0\npragma solidity ^0.8.1;\n\nimport './AnyNFT.sol';\nimport './strings.sol';\n\ncontract AntiqueStore is AnyNFTMarket {\n    using strings for *;\n\n    struct Antique {\n        uint256 id;\n        uint256 tokenId;\n        uint256 startingPrice;\n        uint256 reservePrice; // A reserve price is a hidden minimum priceessentially, the lowest price you're willing to accept for your item. If the listing ends without any bids that meet the reserve price, you aren't required to sell the item.\n        uint256 highestBid;\n        address highestBidder;\n        address owner; // owner of the antique\n        uint256 auctionEndTime;\n        bool forSale; // false if not being listed for sale\n        string tokenURI;\n        bool auctionEnded;\n    }\n\n    address public nftContract;\n    address public contractOwner;\n    uint256 public antiqueId;\n\n    mapping(uint256 => Antique) public antiques;\n\n    mapping(uint256 => mapping(address => uint256))\n        public antiquePendingReturns;\n\n    constructor() {\n        contractOwner = msg.sender;\n    }\n\n    function NFTContractDeployed(address _nftContract)\n        public\n        override\n        returns (bool)\n    {\n        nftContract = _nftContract;\n        return true;\n    }\n\n    /**\n     * @dev Check if the current caller is the contract owner.\n     */\n    function isOwner() internal view returns (bool) {\n        return contractOwner == msg.sender;\n    }\n\n    function getAntiques(bool forSaleOnly)\n        public\n        view\n        returns (Antique[] memory)\n    {\n        uint256 count = 0;\n        for (uint256 i = 0; i < antiqueId; i++) {\n            Antique memory antique = antiques[i];\n            if (!forSaleOnly || antique.forSale) {\n                count++;\n            }\n        }\n\n        Antique[] memory result = new Antique[](count);\n        count = 0;\n        for (uint256 i = 0; i < antiqueId; i++) {\n            Antique memory antique = antiques[i];\n            if (!forSaleOnly || antique.forSale) {\n                result[count++] = antique;\n            }\n        }\n        return result;\n    }\n\n    /**\n     * @dev Add and list an Antique.\n     *\n     * Returns a boolean value indicating whether the operation succeeded.\n     *\n     * Emits a {NewAntique} event.\n     */\n    function sellAntique(\n        string memory tokenURI,\n        uint256 startingPrice,\n        uint256 reservePrice,\n        uint256 royaltyValue,\n        uint256 auctionEndTime\n    ) public returns (bool success) {\n        AnyNFT anyNFT = AnyNFT(nftContract);\n        uint256 tokenId = anyNFT.mintNFTWithRoyalty(\n            msg.sender,\n            msg.sender,\n            royaltyValue,\n            tokenURI\n        );\n\n        return\n            _newAntique(\n                tokenId,\n                tokenURI,\n                startingPrice,\n                reservePrice,\n                auctionEndTime\n            );\n    }\n\n    function _newAntique(\n        uint256 tokenId,\n        string memory tokenURI,\n        uint256 startingPrice,\n        uint256 reservePrice,\n        uint256 auctionEndTime\n    ) internal returns (bool success) {\n        Antique memory antique = Antique(\n            antiqueId,\n            tokenId,\n            startingPrice,\n            reservePrice,\n            0,\n            address(0),\n            msg.sender,\n            auctionEndTime,\n            true,\n            tokenURI,\n            false\n        );\n\n        antiques[antiqueId] = antique;\n\n        emit NewAntique(antiqueId++, nftContract, tokenId);\n\n        return true;\n    }\n\n    function equals(string memory a, string memory b)\n        internal\n        pure\n        returns (bool)\n    {\n        if (bytes(a).length != bytes(b).length) {\n            return false;\n        } else {\n            return\n                keccak256(abi.encodePacked(a)) ==\n                keccak256(abi.encodePacked(b));\n        }\n    }\n\n    function _bidAntique(uint256 _antiqueId, uint256 newBid)\n        internal\n        returns (bool)\n    {\n        Antique storage antique = antiques[_antiqueId];\n\n        require(antique.forSale == true, 'The antique is not for sale');\n\n        require(\n            !antique.auctionEnded && block.timestamp <= antique.auctionEndTime,\n            'The auction has already ended - no bids allowed'\n        );\n\n        require(\n            newBid >= antique.startingPrice && newBid > antique.highestBid,\n            'sorry, the bid is not high enough!'\n        );\n\n        mapping(address => uint256)\n            storage pendingReturns = antiquePendingReturns[_antiqueId];\n\n        if (pendingReturns[msg.sender] > 0) {\n            uint256 amount = pendingReturns[msg.sender];\n            payable(msg.sender).transfer(amount);\n        }\n\n        pendingReturns[msg.sender] = newBid;\n\n        antique.highestBidder = msg.sender;\n        antique.highestBid = newBid;\n\n        emit NewBid(_antiqueId, antique.highestBidder, antique.highestBid);\n\n        return true;\n    }\n\n    /**\n     * @dev Bid a antique has `_antiqueId`.\n     *\n     * Returns a boolean value indicating whether the operation succeeded.\n     *\n     * Emits a `NewBid` event.\n     */\n    function bidAntique(uint256 _antiqueId) public payable returns (bool) {\n        return _bidAntique(_antiqueId, msg.value);\n    }\n\n    function getMyBids() public view returns (Antique[] memory) {\n        uint256 count = 0;\n        for (uint256 i = 0; i < antiqueId; i++) {\n            Antique memory antique = antiques[i];\n            mapping(address => uint256)\n                storage pendingReturns = antiquePendingReturns[antique.id];\n\n            if (\n                antique.highestBidder == msg.sender ||\n                pendingReturns[msg.sender] > 0\n            ) {\n                count++;\n            }\n        }\n\n        Antique[] memory result = new Antique[](count);\n        count = 0;\n        for (uint256 i = 0; i < antiqueId; i++) {\n            Antique memory antique = antiques[i];\n            mapping(address => uint256)\n                storage pendingReturns = antiquePendingReturns[antique.id];\n\n            if (\n                antique.highestBidder == msg.sender ||\n                pendingReturns[msg.sender] > 0\n            ) {\n                antique.reservePrice = antique.highestBidder == msg.sender\n                    ? antique.highestBid\n                    : pendingReturns[msg.sender];\n                result[count++] = antique;\n            }\n        }\n        return result;\n    }\n\n    function endAuction(uint256 _antiqueId) public returns (bool success) {\n        return _endAuction(_antiqueId, true);\n    }\n\n    function _endAuction(uint256 _antiqueId, bool toTransferNFT)\n        internal\n        returns (bool success)\n    {\n        Antique storage antique = antiques[_antiqueId];\n        require(\n            msg.sender == nftContract ||\n                msg.sender == antique.owner ||\n                isOwner(),\n            'You are not authorised to end auction for this antique'\n        );\n\n        require(antique.forSale == true, 'The antique is not for sale');\n\n        require(!antique.auctionEnded, 'The auction has already ended');\n\n        require(antique.highestBid >= antique.reservePrice, 'Reserve not met');\n\n        antique.forSale = false;\n        antique.auctionEnded = true;\n\n        mapping(address => uint256)\n            storage pendingReturns = antiquePendingReturns[_antiqueId];\n\n        AnyNFT anyNFT = AnyNFT(nftContract);\n        if (toTransferNFT) {\n            anyNFT.transferFrom(\n                msg.sender,\n                antique.highestBidder,\n                antique.tokenId\n            );\n        }\n\n        address royaltyReceiver;\n        uint256 royaltyAmount;\n        (royaltyReceiver, royaltyAmount) = anyNFT.royaltyInfo(\n            antique.tokenId,\n            antique.highestBid\n        );\n\n        if (royaltyReceiver != antique.owner) {\n            payable(royaltyReceiver).transfer(royaltyAmount);\n            payable(antique.owner).transfer(antique.highestBid - royaltyAmount);\n        } else {\n            payable(antique.owner).transfer(antique.highestBid);\n        }\n\n        pendingReturns[antique.highestBidder] = 0;\n        antique.owner = antique.highestBidder;\n\n        emit AuctionEnded(\n            _antiqueId,\n            antique.highestBidder,\n            antique.highestBid\n        );\n\n        return true;\n    }\n\n    function endAntiqueAuction(uint256 _antiqueId)\n        public\n        override\n        returns (\n            address,\n            address,\n            uint256\n        )\n    {\n        Antique memory antique = antiques[_antiqueId];\n        address from = antique.owner;\n\n        _endAuction(_antiqueId, false);\n\n        return (from, antique.highestBidder, antique.tokenId);\n    }\n\n    function withdraw(uint256 _antiqueId) public payable returns (bool) {\n        Antique storage antique = antiques[_antiqueId];\n\n        require(\n            antique.auctionEnded,\n            'You cannot withdraw until the auction has ended'\n        );\n\n        mapping(address => uint256)\n            storage pendingReturns = antiquePendingReturns[_antiqueId];\n\n        uint256 amount = pendingReturns[msg.sender];\n        if (amount > 0) {\n            pendingReturns[msg.sender] = 0;\n            payable(msg.sender).transfer(amount);\n        }\n\n        emit NewWithdrawal(_antiqueId, msg.sender, amount);\n\n        return true;\n    }\n\n    function resellAntique(\n        uint256 _antiqueId,\n        uint256 startingPrice,\n        uint256 reservePrice,\n        uint256 auctionEndTime\n    ) public returns (bool success) {\n        Antique storage antique = antiques[_antiqueId];\n        require(\n            msg.sender == antique.owner || isOwner(),\n            'You are not authorised to resell this antique.'\n        );\n\n        require(antique.forSale == false, 'The antique is already for sale');\n\n        require(antique.auctionEnded, 'The auction has not ended');\n\n        antique.highestBidder = address(0);\n\n        return\n            _newAntique(\n                antique.tokenId,\n                antique.tokenURI,\n                startingPrice,\n                reservePrice,\n                auctionEndTime\n            );\n    }\n\n    /**\n     * @dev Delete a antique from the antique store. Only the antique's owner or the\n     * antiquestore's owner is authorised for this operation.\n     *\n     * Returns a boolean value indicating whether the operation succeeded.\n     *\n     * Emits a `DeleteAntique` event.\n     */\n    function deleteAntique(uint256 _antiqueId) public returns (bool success) {\n        require(\n            msg.sender == antiques[_antiqueId].owner || isOwner(),\n            'You are not authorised to delete this antique.'\n        );\n\n        Antique storage antique = antiques[_antiqueId];\n        antique.forSale = false;\n\n        emit DeleteAntique(_antiqueId);\n\n        return true;\n    }\n\n    /**\n     * @dev Emitted when a new antique is added to the antiquestore.\n     * Note `antiqueId` starts from 0.\n     */\n    event NewAntique(\n        uint256 indexed antiqueId,\n        address indexed nftContract,\n        uint256 indexed tokenId\n    );\n\n    /**\n     * @dev Emitted when a new antique rental is made.\n     * Note `bidId` and `antiqueId` start from 0.\n     */\n    event NewBid(\n        uint256 indexed antiqueId,\n        address indexed bidder,\n        uint256 indexed amount\n    );\n\n    event AuctionEnded(\n        uint256 indexed antiqueId,\n        address indexed highestBidder,\n        uint256 indexed highestBid\n    );\n\n    event NewWithdrawal(\n        uint256 indexed antiqueId,\n        address indexed bidder,\n        uint256 indexed amount\n    );\n\n    /**\n     * @dev Emitted when a antique is deleted from the antiquestore.\n     */\n    event DeleteAntique(uint256 indexed antiqueId);\n}\n",
  "sourcePath": "/Users/donghao/Documents/code/inflaton/decentralized-antique-auction/smart-contracts/contracts/AntiqueStore.sol",
  "compiler": {
    "name": "solc",
    "version": "0.8.1+commit.df193b15.Emscripten.clang"
  },
  "schemaVersion": "3.4.7",
  "updatedAt": "2022-06-09T01:30:13.178Z",
  "networkType": "ethereum",
  "devdoc": {
    "events": {
      "DeleteAntique(uint256)": {
        "details": "Emitted when a antique is deleted from the antiquestore."
      },
      "NewAntique(uint256,address,uint256)": {
        "details": "Emitted when a new antique is added to the antiquestore. Note `antiqueId` starts from 0."
      },
      "NewBid(uint256,address,uint256)": {
        "details": "Emitted when a new antique rental is made. Note `bidId` and `antiqueId` start from 0."
      }
    },
    "kind": "dev",
    "methods": {
      "bidAntique(uint256)": {
        "details": "Bid a antique has `_antiqueId`. Returns a boolean value indicating whether the operation succeeded. Emits a `NewBid` event."
      },
      "deleteAntique(uint256)": {
        "details": "Delete a antique from the antique store. Only the antique's owner or the antiquestore's owner is authorised for this operation. Returns a boolean value indicating whether the operation succeeded. Emits a `DeleteAntique` event."
      },
      "sellAntique(string,uint256,uint256,uint256,uint256)": {
        "details": "Add and list an Antique. Returns a boolean value indicating whether the operation succeeded. Emits a {NewAntique} event."
      }
    },
    "version": 1
  },
  "userdoc": {
    "kind": "user",
    "methods": {},
    "version": 1
  }
}