{
  "contractName": "AntiqueNFT",
  "abi": [
    {
      "inputs": [
        {
          "internalType": "address",
          "name": "_marketContract",
          "type": "address"
        }
      ],
      "stateMutability": "nonpayable",
      "type": "constructor"
    },
    {
      "anonymous": false,
      "inputs": [
        {
          "indexed": true,
          "internalType": "address",
          "name": "owner",
          "type": "address"
        },
        {
          "indexed": true,
          "internalType": "address",
          "name": "approved",
          "type": "address"
        },
        {
          "indexed": true,
          "internalType": "uint256",
          "name": "tokenId",
          "type": "uint256"
        }
      ],
      "name": "Approval",
      "type": "event"
    },
    {
      "anonymous": false,
      "inputs": [
        {
          "indexed": true,
          "internalType": "address",
          "name": "owner",
          "type": "address"
        },
        {
          "indexed": true,
          "internalType": "address",
          "name": "operator",
          "type": "address"
        },
        {
          "indexed": false,
          "internalType": "bool",
          "name": "approved",
          "type": "bool"
        }
      ],
      "name": "ApprovalForAll",
      "type": "event"
    },
    {
      "anonymous": false,
      "inputs": [
        {
          "indexed": true,
          "internalType": "address",
          "name": "previousOwner",
          "type": "address"
        },
        {
          "indexed": true,
          "internalType": "address",
          "name": "newOwner",
          "type": "address"
        }
      ],
      "name": "OwnershipTransferred",
      "type": "event"
    },
    {
      "anonymous": false,
      "inputs": [
        {
          "indexed": true,
          "internalType": "uint256",
          "name": "tokenId",
          "type": "uint256"
        },
        {
          "indexed": true,
          "internalType": "address",
          "name": "royaltyReceiver",
          "type": "address"
        },
        {
          "indexed": true,
          "internalType": "uint256",
          "name": "royaltyAmount",
          "type": "uint256"
        }
      ],
      "name": "RoyaltyPaid",
      "type": "event"
    },
    {
      "anonymous": false,
      "inputs": [
        {
          "indexed": true,
          "internalType": "address",
          "name": "from",
          "type": "address"
        },
        {
          "indexed": true,
          "internalType": "address",
          "name": "to",
          "type": "address"
        },
        {
          "indexed": true,
          "internalType": "uint256",
          "name": "tokenId",
          "type": "uint256"
        }
      ],
      "name": "Transfer",
      "type": "event"
    },
    {
      "inputs": [
        {
          "internalType": "address",
          "name": "to",
          "type": "address"
        },
        {
          "internalType": "uint256",
          "name": "tokenId",
          "type": "uint256"
        }
      ],
      "name": "approve",
      "outputs": [],
      "stateMutability": "nonpayable",
      "type": "function"
    },
    {
      "inputs": [
        {
          "internalType": "address",
          "name": "owner",
          "type": "address"
        }
      ],
      "name": "balanceOf",
      "outputs": [
        {
          "internalType": "uint256",
          "name": "",
          "type": "uint256"
        }
      ],
      "stateMutability": "view",
      "type": "function",
      "constant": true
    },
    {
      "inputs": [
        {
          "internalType": "uint256",
          "name": "tokenId",
          "type": "uint256"
        }
      ],
      "name": "getApproved",
      "outputs": [
        {
          "internalType": "address",
          "name": "",
          "type": "address"
        }
      ],
      "stateMutability": "view",
      "type": "function",
      "constant": true
    },
    {
      "inputs": [
        {
          "internalType": "address",
          "name": "owner",
          "type": "address"
        },
        {
          "internalType": "address",
          "name": "operator",
          "type": "address"
        }
      ],
      "name": "isApprovedForAll",
      "outputs": [
        {
          "internalType": "bool",
          "name": "",
          "type": "bool"
        }
      ],
      "stateMutability": "view",
      "type": "function",
      "constant": true
    },
    {
      "inputs": [],
      "name": "marketContract",
      "outputs": [
        {
          "internalType": "address",
          "name": "",
          "type": "address"
        }
      ],
      "stateMutability": "view",
      "type": "function",
      "constant": true
    },
    {
      "inputs": [],
      "name": "name",
      "outputs": [
        {
          "internalType": "string",
          "name": "",
          "type": "string"
        }
      ],
      "stateMutability": "view",
      "type": "function",
      "constant": true
    },
    {
      "inputs": [],
      "name": "owner",
      "outputs": [
        {
          "internalType": "address",
          "name": "",
          "type": "address"
        }
      ],
      "stateMutability": "view",
      "type": "function",
      "constant": true
    },
    {
      "inputs": [
        {
          "internalType": "uint256",
          "name": "tokenId",
          "type": "uint256"
        }
      ],
      "name": "ownerOf",
      "outputs": [
        {
          "internalType": "address",
          "name": "",
          "type": "address"
        }
      ],
      "stateMutability": "view",
      "type": "function",
      "constant": true
    },
    {
      "inputs": [],
      "name": "renounceOwnership",
      "outputs": [],
      "stateMutability": "nonpayable",
      "type": "function"
    },
    {
      "inputs": [
        {
          "internalType": "uint256",
          "name": "tokenId",
          "type": "uint256"
        },
        {
          "internalType": "uint256",
          "name": "value",
          "type": "uint256"
        }
      ],
      "name": "royaltyInfo",
      "outputs": [
        {
          "internalType": "address",
          "name": "receiver",
          "type": "address"
        },
        {
          "internalType": "uint256",
          "name": "royaltyAmount",
          "type": "uint256"
        }
      ],
      "stateMutability": "view",
      "type": "function",
      "constant": true
    },
    {
      "inputs": [
        {
          "internalType": "address",
          "name": "from",
          "type": "address"
        },
        {
          "internalType": "address",
          "name": "to",
          "type": "address"
        },
        {
          "internalType": "uint256",
          "name": "tokenId",
          "type": "uint256"
        }
      ],
      "name": "safeTransferFrom",
      "outputs": [],
      "stateMutability": "nonpayable",
      "type": "function"
    },
    {
      "inputs": [
        {
          "internalType": "address",
          "name": "from",
          "type": "address"
        },
        {
          "internalType": "address",
          "name": "to",
          "type": "address"
        },
        {
          "internalType": "uint256",
          "name": "tokenId",
          "type": "uint256"
        },
        {
          "internalType": "bytes",
          "name": "_data",
          "type": "bytes"
        }
      ],
      "name": "safeTransferFrom",
      "outputs": [],
      "stateMutability": "nonpayable",
      "type": "function"
    },
    {
      "inputs": [
        {
          "internalType": "address",
          "name": "operator",
          "type": "address"
        },
        {
          "internalType": "bool",
          "name": "approved",
          "type": "bool"
        }
      ],
      "name": "setApprovalForAll",
      "outputs": [],
      "stateMutability": "nonpayable",
      "type": "function"
    },
    {
      "inputs": [],
      "name": "symbol",
      "outputs": [
        {
          "internalType": "string",
          "name": "",
          "type": "string"
        }
      ],
      "stateMutability": "view",
      "type": "function",
      "constant": true
    },
    {
      "inputs": [
        {
          "internalType": "uint256",
          "name": "tokenId",
          "type": "uint256"
        }
      ],
      "name": "tokenURI",
      "outputs": [
        {
          "internalType": "string",
          "name": "",
          "type": "string"
        }
      ],
      "stateMutability": "view",
      "type": "function",
      "constant": true
    },
    {
      "inputs": [
        {
          "internalType": "address",
          "name": "from",
          "type": "address"
        },
        {
          "internalType": "address",
          "name": "to",
          "type": "address"
        },
        {
          "internalType": "uint256",
          "name": "tokenId",
          "type": "uint256"
        }
      ],
      "name": "transferFrom",
      "outputs": [],
      "stateMutability": "nonpayable",
      "type": "function"
    },
    {
      "inputs": [
        {
          "internalType": "address",
          "name": "newOwner",
          "type": "address"
        }
      ],
      "name": "transferOwnership",
      "outputs": [],
      "stateMutability": "nonpayable",
      "type": "function"
    },
    {
      "inputs": [
        {
          "internalType": "bytes4",
          "name": "interfaceId",
          "type": "bytes4"
        }
      ],
      "name": "supportsInterface",
      "outputs": [
        {
          "internalType": "bool",
          "name": "",
          "type": "bool"
        }
      ],
      "stateMutability": "view",
      "type": "function",
      "constant": true
    },
    {
      "inputs": [
        {
          "internalType": "address",
          "name": "recipient",
          "type": "address"
        },
        {
          "internalType": "string",
          "name": "tokenURI",
          "type": "string"
        }
      ],
      "name": "mintNFT",
      "outputs": [
        {
          "internalType": "uint256",
          "name": "",
          "type": "uint256"
        }
      ],
      "stateMutability": "nonpayable",
      "type": "function"
    },
    {
      "inputs": [
        {
          "internalType": "address",
          "name": "to",
          "type": "address"
        },
        {
          "internalType": "address",
          "name": "royaltyRecipient",
          "type": "address"
        },
        {
          "internalType": "uint256",
          "name": "royaltyValue",
          "type": "uint256"
        },
        {
          "internalType": "string",
          "name": "tokenURI",
          "type": "string"
        }
      ],
      "name": "mintNFTWithRoyalty",
      "outputs": [
        {
          "internalType": "uint256",
          "name": "",
          "type": "uint256"
        }
      ],
      "stateMutability": "nonpayable",
      "type": "function"
    },
    {
      "inputs": [
        {
          "internalType": "uint256",
          "name": "antiqueId",
          "type": "uint256"
        }
      ],
      "name": "endAuction",
      "outputs": [
        {
          "internalType": "bool",
          "name": "",
          "type": "bool"
        }
      ],
      "stateMutability": "nonpayable",
      "type": "function"
    }
  ],
  "bytecode": "0x60806040523480156200001157600080fd5b5060405162003b5a38038062003b5a8339818101604052810190620000379190620003a5565b6040518060400160405280600b81526020017f4d7920416e7469717565730000000000000000000000000000000000000000008152506040518060400160405280600b81526020017f414e54495155452d4e46540000000000000000000000000000000000000000008152508160009080519060200190620000bb929190620002c7565b508060019080519060200190620000d4929190620002c7565b505050620000f7620000eb620001f960201b60201c565b6200020160201b60201c565b80600a60006101000a81548173ffffffffffffffffffffffffffffffffffffffff021916908373ffffffffffffffffffffffffffffffffffffffff1602179055506000600a60009054906101000a900473ffffffffffffffffffffffffffffffffffffffff1690508073ffffffffffffffffffffffffffffffffffffffff1663e3b547a4306040518263ffffffff1660e01b81526004016200019a91906200040e565b602060405180830381600087803b158015620001b557600080fd5b505af1158015620001ca573d6000803e3d6000fd5b505050506040513d601f19601f82011682018060405250810190620001f09190620003d1565b50505062000504565b600033905090565b6000600760009054906101000a900473ffffffffffffffffffffffffffffffffffffffff16905081600760006101000a81548173ffffffffffffffffffffffffffffffffffffffff021916908373ffffffffffffffffffffffffffffffffffffffff1602179055508173ffffffffffffffffffffffffffffffffffffffff168173ffffffffffffffffffffffffffffffffffffffff167f8be0079c531659141344cd1fd0a4f28419497f9722a3daafe3b4186f6b6457e060405160405180910390a35050565b828054620002d5906200046b565b90600052602060002090601f016020900481019282620002f9576000855562000345565b82601f106200031457805160ff191683800117855562000345565b8280016001018555821562000345579182015b828111156200034457825182559160200191906001019062000327565b5b50905062000354919062000358565b5090565b5b808211156200037357600081600090555060010162000359565b5090565b6000815190506200038881620004d0565b92915050565b6000815190506200039f81620004ea565b92915050565b600060208284031215620003b857600080fd5b6000620003c88482850162000377565b91505092915050565b600060208284031215620003e457600080fd5b6000620003f4848285016200038e565b91505092915050565b62000408816200042b565b82525050565b6000602082019050620004256000830184620003fd565b92915050565b600062000438826200044b565b9050919050565b60008115159050919050565b600073ffffffffffffffffffffffffffffffffffffffff82169050919050565b600060028204905060018216806200048457607f821691505b602082108114156200049b576200049a620004a1565b5b50919050565b7f4e487b7100000000000000000000000000000000000000000000000000000000600052602260045260246000fd5b620004db816200042b565b8114620004e757600080fd5b50565b620004f5816200043f565b81146200050157600080fd5b50565b61364680620005146000396000f3fe608060405234801561001057600080fd5b50600436106101075760003560e01c806301ffc9a71461010c57806306fdde031461013c578063081812fc1461015a578063095ea7b31461018a57806323b872dd146101a65780632a55205a146101c257806340576ba2146101f357806342842e0e146102235780636352211e1461023f57806370a082311461026f578063715018a61461029f5780638da5cb5b146102a957806395d89b41146102c7578063a1794bcd146102e5578063a22cb46514610303578063b88d4fde1461031f578063b9a2de3a1461033b578063c87b56dd1461036b578063e985e9c51461039b578063eacabe14146103cb578063f2fde38b146103fb575b600080fd5b610126600480360381019061012191906124ca565b610417565b604051610133919061299e565b60405180910390f35b610144610429565b60405161015191906129b9565b60405180910390f35b610174600480360381019061016f919061251c565b6104bb565b604051610181919061290e565b60405180910390f35b6101a4600480360381019061019f919061248e565b610540565b005b6101c060048036038101906101bb9190612242565b610658565b005b6101dc60048036038101906101d79190612545565b6106b8565b6040516101ea929190612975565b60405180910390f35b61020d60048036038101906102089190612383565b610789565b60405161021a9190612c3b565b60405180910390f35b61023d60048036038101906102389190612242565b6107b9565b005b6102596004803603810190610254919061251c565b6107d9565b604051610266919061290e565b60405180910390f35b610289600480360381019061028491906121dd565b61088b565b6040516102969190612c3b565b60405180910390f35b6102a7610943565b005b6102b16109cb565b6040516102be919061290e565b60405180910390f35b6102cf6109f5565b6040516102dc91906129b9565b60405180910390f35b6102ed610a87565b6040516102fa919061290e565b60405180910390f35b61031d600480360381019061031891906123fe565b610aad565b005b61033960048036038101906103349190612308565b610ac3565b005b6103556004803603810190610350919061251c565b610b25565b604051610362919061299e565b60405180910390f35b6103856004803603810190610380919061251c565b610c5d565b60405161039291906129b9565b60405180910390f35b6103b560048036038101906103b09190612206565b610daf565b6040516103c2919061299e565b60405180910390f35b6103e560048036038101906103e0919061243a565b610e43565b6040516103f29190612c3b565b60405180910390f35b610415600480360381019061041091906121dd565b610e7b565b005b600061042282610f73565b9050919050565b60606000805461043890612eeb565b80601f016020809104026020016040519081016040528092919081815260200182805461046490612eeb565b80156104b15780601f10610486576101008083540402835291602001916104b1565b820191906000526020600020905b81548152906001019060200180831161049457829003601f168201915b5050505050905090565b60006104c682610fed565b610505576040517f08c379a00000000000000000000000000000000000000000000000000000000081526004016104fc90612b9b565b60405180910390fd5b6004600083815260200190815260200160002060009054906101000a900473ffffffffffffffffffffffffffffffffffffffff169050919050565b600061054b826107d9565b90508073ffffffffffffffffffffffffffffffffffffffff168373ffffffffffffffffffffffffffffffffffffffff1614156105bc576040517f08c379a00000000000000000000000000000000000000000000000000000000081526004016105b390612bfb565b60405180910390fd5b8073ffffffffffffffffffffffffffffffffffffffff166105db611059565b73ffffffffffffffffffffffffffffffffffffffff16148061060a575061060981610604611059565b610daf565b5b610649576040517f08c379a000000000000000000000000000000000000000000000000000000000815260040161064090612adb565b60405180910390fd5b6106538383611061565b505050565b610669610663611059565b8261111a565b6106a8576040517f08c379a000000000000000000000000000000000000000000000000000000000815260040161069f90612c1b565b60405180910390fd5b6106b38383836111f8565b505050565b6000806000600860008681526020019081526020016000206040518060400160405290816000820160009054906101000a900473ffffffffffffffffffffffffffffffffffffffff1673ffffffffffffffffffffffffffffffffffffffff1673ffffffffffffffffffffffffffffffffffffffff1681526020016000820160149054906101000a900462ffffff1662ffffff1662ffffff1681525050905080600001519250612710816020015162ffffff16856107759190612da7565b61077f9190612d76565b9150509250929050565b6000806107968684610e43565b905060008411156107ad576107ac81868661145f565b5b80915050949350505050565b6107d483838360405180602001604052806000815250610ac3565b505050565b6000806002600084815260200190815260200160002060009054906101000a900473ffffffffffffffffffffffffffffffffffffffff169050600073ffffffffffffffffffffffffffffffffffffffff168173ffffffffffffffffffffffffffffffffffffffff161415610882576040517f08c379a000000000000000000000000000000000000000000000000000000000815260040161087990612b1b565b60405180910390fd5b80915050919050565b60008073ffffffffffffffffffffffffffffffffffffffff168273ffffffffffffffffffffffffffffffffffffffff1614156108fc576040517f08c379a00000000000000000000000000000000000000000000000000000000081526004016108f390612afb565b60405180910390fd5b600360008373ffffffffffffffffffffffffffffffffffffffff1673ffffffffffffffffffffffffffffffffffffffff168152602001908152602001600020549050919050565b61094b611059565b73ffffffffffffffffffffffffffffffffffffffff166109696109cb565b73ffffffffffffffffffffffffffffffffffffffff16146109bf576040517f08c379a00000000000000000000000000000000000000000000000000000000081526004016109b690612bbb565b60405180910390fd5b6109c9600061155b565b565b6000600760009054906101000a900473ffffffffffffffffffffffffffffffffffffffff16905090565b606060018054610a0490612eeb565b80601f0160208091040260200160405190810160405280929190818152602001828054610a3090612eeb565b8015610a7d5780601f10610a5257610100808354040283529160200191610a7d565b820191906000526020600020905b815481529060010190602001808311610a6057829003601f168201915b5050505050905090565b600a60009054906101000a900473ffffffffffffffffffffffffffffffffffffffff1681565b610abf610ab8611059565b8383611621565b5050565b610ad4610ace611059565b8361111a565b610b13576040517f08c379a0000000000000000000000000000000000000000000000000000000008152600401610b0a90612c1b565b60405180910390fd5b610b1f8484848461178e565b50505050565b6000806000806000806000600a60009054906101000a900473ffffffffffffffffffffffffffffffffffffffff1690508073ffffffffffffffffffffffffffffffffffffffff166337cc7c18896040518263ffffffff1660e01b8152600401610b8e9190612c3b565b60a060405180830381600087803b158015610ba857600080fd5b505af1158015610bbc573d6000803e3d6000fd5b505050506040513d601f19601f82011682018060405250810190610be09190612291565b809650819750829850839950849a505050505050610bff338686610658565b6000821115610c4e57818373ffffffffffffffffffffffffffffffffffffffff16857ff670029fc6f5302baba881b4ae845d1453acdf752b4c19ed81fe0fa6a686409b60405160405180910390a45b60019650505050505050919050565b6060610c6882610fed565b610ca7576040517f08c379a0000000000000000000000000000000000000000000000000000000008152600401610c9e90612b7b565b60405180910390fd5b6000600660008481526020019081526020016000208054610cc790612eeb565b80601f0160208091040260200160405190810160405280929190818152602001828054610cf390612eeb565b8015610d405780601f10610d1557610100808354040283529160200191610d40565b820191906000526020600020905b815481529060010190602001808311610d2357829003601f168201915b505050505090506000610d516117ea565b9050600081511415610d67578192505050610daa565b600082511115610d9c578082604051602001610d849291906128ea565b60405160208183030381529060405292505050610daa565b610da584611801565b925050505b919050565b6000600560008473ffffffffffffffffffffffffffffffffffffffff1673ffffffffffffffffffffffffffffffffffffffff16815260200190815260200160002060008373ffffffffffffffffffffffffffffffffffffffff1673ffffffffffffffffffffffffffffffffffffffff16815260200190815260200160002060009054906101000a900460ff16905092915050565b6000610e4f60096118a8565b6000610e5b60096118be565b9050610e6784826118cc565b610e718184611aa6565b8091505092915050565b610e83611059565b73ffffffffffffffffffffffffffffffffffffffff16610ea16109cb565b73ffffffffffffffffffffffffffffffffffffffff1614610ef7576040517f08c379a0000000000000000000000000000000000000000000000000000000008152600401610eee90612bbb565b60405180910390fd5b600073ffffffffffffffffffffffffffffffffffffffff168173ffffffffffffffffffffffffffffffffffffffff161415610f67576040517f08c379a0000000000000000000000000000000000000000000000000000000008152600401610f5e90612a1b565b60405180910390fd5b610f708161155b565b50565b60007f2a55205a000000000000000000000000000000000000000000000000000000007bffffffffffffffffffffffffffffffffffffffffffffffffffffffff1916827bffffffffffffffffffffffffffffffffffffffffffffffffffffffff19161480610fe65750610fe582611b1a565b5b9050919050565b60008073ffffffffffffffffffffffffffffffffffffffff166002600084815260200190815260200160002060009054906101000a900473ffffffffffffffffffffffffffffffffffffffff1673ffffffffffffffffffffffffffffffffffffffff1614159050919050565b600033905090565b816004600083815260200190815260200160002060006101000a81548173ffffffffffffffffffffffffffffffffffffffff021916908373ffffffffffffffffffffffffffffffffffffffff160217905550808273ffffffffffffffffffffffffffffffffffffffff166110d4836107d9565b73ffffffffffffffffffffffffffffffffffffffff167f8c5be1e5ebec7d5bd14f71427d1e84f3dd0314c0f7b2291e5b200ac8c7c3b92560405160405180910390a45050565b600061112582610fed565b611164576040517f08c379a000000000000000000000000000000000000000000000000000000000815260040161115b90612abb565b60405180910390fd5b600061116f836107d9565b90508073ffffffffffffffffffffffffffffffffffffffff168473ffffffffffffffffffffffffffffffffffffffff1614806111b157506111b08185610daf565b5b806111ef57508373ffffffffffffffffffffffffffffffffffffffff166111d7846104bb565b73ffffffffffffffffffffffffffffffffffffffff16145b91505092915050565b8273ffffffffffffffffffffffffffffffffffffffff16611218826107d9565b73ffffffffffffffffffffffffffffffffffffffff161461126e576040517f08c379a000000000000000000000000000000000000000000000000000000000815260040161126590612a3b565b60405180910390fd5b600073ffffffffffffffffffffffffffffffffffffffff168273ffffffffffffffffffffffffffffffffffffffff1614156112de576040517f08c379a00000000000000000000000000000000000000000000000000000000081526004016112d590612a7b565b60405180910390fd5b6112e9838383611bfc565b6112f4600082611061565b6001600360008573ffffffffffffffffffffffffffffffffffffffff1673ffffffffffffffffffffffffffffffffffffffff16815260200190815260200160002060008282546113449190612e01565b925050819055506001600360008473ffffffffffffffffffffffffffffffffffffffff1673ffffffffffffffffffffffffffffffffffffffff168152602001908152602001600020600082825461139b9190612d20565b92505081905550816002600083815260200190815260200160002060006101000a81548173ffffffffffffffffffffffffffffffffffffffff021916908373ffffffffffffffffffffffffffffffffffffffff160217905550808273ffffffffffffffffffffffffffffffffffffffff168473ffffffffffffffffffffffffffffffffffffffff167fddf252ad1be2c89b69c2b068fc378daa952ba7f163c4a11628f55a4df523b3ef60405160405180910390a461145a838383611c01565b505050565b6127108111156114a4576040517f08c379a000000000000000000000000000000000000000000000000000000000815260040161149b906129db565b60405180910390fd5b60405180604001604052808373ffffffffffffffffffffffffffffffffffffffff1681526020018262ffffff168152506008600085815260200190815260200160002060008201518160000160006101000a81548173ffffffffffffffffffffffffffffffffffffffff021916908373ffffffffffffffffffffffffffffffffffffffff16021790555060208201518160000160146101000a81548162ffffff021916908362ffffff160217905550905050505050565b6000600760009054906101000a900473ffffffffffffffffffffffffffffffffffffffff16905081600760006101000a81548173ffffffffffffffffffffffffffffffffffffffff021916908373ffffffffffffffffffffffffffffffffffffffff1602179055508173ffffffffffffffffffffffffffffffffffffffff168173ffffffffffffffffffffffffffffffffffffffff167f8be0079c531659141344cd1fd0a4f28419497f9722a3daafe3b4186f6b6457e060405160405180910390a35050565b8173ffffffffffffffffffffffffffffffffffffffff168373ffffffffffffffffffffffffffffffffffffffff161415611690576040517f08c379a000000000000000000000000000000000000000000000000000000000815260040161168790612a9b565b60405180910390fd5b80600560008573ffffffffffffffffffffffffffffffffffffffff1673ffffffffffffffffffffffffffffffffffffffff16815260200190815260200160002060008473ffffffffffffffffffffffffffffffffffffffff1673ffffffffffffffffffffffffffffffffffffffff16815260200190815260200160002060006101000a81548160ff0219169083151502179055508173ffffffffffffffffffffffffffffffffffffffff168373ffffffffffffffffffffffffffffffffffffffff167f17307eab39ab6107e8899845ad3d59bd9653f200f220920489ca2b5937696c3183604051611781919061299e565b60405180910390a3505050565b6117998484846111f8565b6117a584848484611c06565b6117e4576040517f08c379a00000000000000000000000000000000000000000000000000000000081526004016117db906129fb565b60405180910390fd5b50505050565b606060405180602001604052806000815250905090565b606061180c82610fed565b61184b576040517f08c379a000000000000000000000000000000000000000000000000000000000815260040161184290612bdb565b60405180910390fd5b60006118556117ea565b9050600081511161187557604051806020016040528060008152506118a0565b8061187f84611d9d565b6040516020016118909291906128ea565b6040516020818303038152906040525b915050919050565b6001816000016000828254019250508190555050565b600081600001549050919050565b600073ffffffffffffffffffffffffffffffffffffffff168273ffffffffffffffffffffffffffffffffffffffff16141561193c576040517f08c379a000000000000000000000000000000000000000000000000000000000815260040161193390612b5b565b60405180910390fd5b61194581610fed565b15611985576040517f08c379a000000000000000000000000000000000000000000000000000000000815260040161197c90612a5b565b60405180910390fd5b61199160008383611bfc565b6001600360008473ffffffffffffffffffffffffffffffffffffffff1673ffffffffffffffffffffffffffffffffffffffff16815260200190815260200160002060008282546119e19190612d20565b92505081905550816002600083815260200190815260200160002060006101000a81548173ffffffffffffffffffffffffffffffffffffffff021916908373ffffffffffffffffffffffffffffffffffffffff160217905550808273ffffffffffffffffffffffffffffffffffffffff16600073ffffffffffffffffffffffffffffffffffffffff167fddf252ad1be2c89b69c2b068fc378daa952ba7f163c4a11628f55a4df523b3ef60405160405180910390a4611aa260008383611c01565b5050565b611aaf82610fed565b611aee576040517f08c379a0000000000000000000000000000000000000000000000000000000008152600401611ae590612b3b565b60405180910390fd5b80600660008481526020019081526020016000209080519060200190611b15929190611fd7565b505050565b60007f80ac58cd000000000000000000000000000000000000000000000000000000007bffffffffffffffffffffffffffffffffffffffffffffffffffffffff1916827bffffffffffffffffffffffffffffffffffffffffffffffffffffffff19161480611be557507f5b5e139f000000000000000000000000000000000000000000000000000000007bffffffffffffffffffffffffffffffffffffffffffffffffffffffff1916827bffffffffffffffffffffffffffffffffffffffffffffffffffffffff1916145b80611bf55750611bf482611f4a565b5b9050919050565b505050565b505050565b6000611c278473ffffffffffffffffffffffffffffffffffffffff16611fb4565b15611d90578373ffffffffffffffffffffffffffffffffffffffff1663150b7a02611c50611059565b8786866040518563ffffffff1660e01b8152600401611c729493929190612929565b602060405180830381600087803b158015611c8c57600080fd5b505af1925050508015611cbd57506040513d601f19601f82011682018060405250810190611cba91906124f3565b60015b611d40573d8060008114611ced576040519150601f19603f3d011682016040523d82523d6000602084013e611cf2565b606091505b50600081511415611d38576040517f08c379a0000000000000000000000000000000000000000000000000000000008152600401611d2f906129fb565b60405180910390fd5b805181602001fd5b63150b7a0260e01b7bffffffffffffffffffffffffffffffffffffffffffffffffffffffff1916817bffffffffffffffffffffffffffffffffffffffffffffffffffffffff191614915050611d95565b600190505b949350505050565b60606000821415611de5576040518060400160405280600181526020017f30000000000000000000000000000000000000000000000000000000000000008152509050611f45565b600082905060005b60008214611e17578080611e0090612f4e565b915050600a82611e109190612d76565b9150611ded565b60008167ffffffffffffffff811115611e59577f4e487b7100000000000000000000000000000000000000000000000000000000600052604160045260246000fd5b6040519080825280601f01601f191660200182016040528015611e8b5781602001600182028036833780820191505090505b5090505b60008514611f3e57600182611ea49190612e01565b9150600a85611eb39190612f97565b6030611ebf9190612d20565b60f81b818381518110611efb577f4e487b7100000000000000000000000000000000000000000000000000000000600052603260045260246000fd5b60200101907effffffffffffffffffffffffffffffffffffffffffffffffffffffffffffff1916908160001a905350600a85611f379190612d76565b9450611e8f565b8093505050505b919050565b60007f01ffc9a7000000000000000000000000000000000000000000000000000000007bffffffffffffffffffffffffffffffffffffffffffffffffffffffff1916827bffffffffffffffffffffffffffffffffffffffffffffffffffffffff1916149050919050565b6000808273ffffffffffffffffffffffffffffffffffffffff163b119050919050565b828054611fe390612eeb565b90600052602060002090601f016020900481019282612005576000855561204c565b82601f1061201e57805160ff191683800117855561204c565b8280016001018555821561204c579182015b8281111561204b578251825591602001919060010190612030565b5b509050612059919061205d565b5090565b5b8082111561207657600081600090555060010161205e565b5090565b600061208d61208884612c7b565b612c56565b9050828152602081018484840111156120a557600080fd5b6120b0848285612ea9565b509392505050565b60006120cb6120c684612cac565b612c56565b9050828152602081018484840111156120e357600080fd5b6120ee848285612ea9565b509392505050565b600081359050612105816135b4565b92915050565b60008151905061211a816135b4565b92915050565b60008135905061212f816135cb565b92915050565b600081359050612144816135e2565b92915050565b600081519050612159816135e2565b92915050565b600082601f83011261217057600080fd5b813561218084826020860161207a565b91505092915050565b600082601f83011261219a57600080fd5b81356121aa8482602086016120b8565b91505092915050565b6000813590506121c2816135f9565b92915050565b6000815190506121d7816135f9565b92915050565b6000602082840312156121ef57600080fd5b60006121fd848285016120f6565b91505092915050565b6000806040838503121561221957600080fd5b6000612227858286016120f6565b9250506020612238858286016120f6565b9150509250929050565b60008060006060848603121561225757600080fd5b6000612265868287016120f6565b9350506020612276868287016120f6565b9250506040612287868287016121b3565b9150509250925092565b600080600080600060a086880312156122a957600080fd5b60006122b78882890161210b565b95505060206122c88882890161210b565b94505060406122d9888289016121c8565b93505060606122ea8882890161210b565b92505060806122fb888289016121c8565b9150509295509295909350565b6000806000806080858703121561231e57600080fd5b600061232c878288016120f6565b945050602061233d878288016120f6565b935050604061234e878288016121b3565b925050606085013567ffffffffffffffff81111561236b57600080fd5b6123778782880161215f565b91505092959194509250565b6000806000806080858703121561239957600080fd5b60006123a7878288016120f6565b94505060206123b8878288016120f6565b93505060406123c9878288016121b3565b925050606085013567ffffffffffffffff8111156123e657600080fd5b6123f287828801612189565b91505092959194509250565b6000806040838503121561241157600080fd5b600061241f858286016120f6565b925050602061243085828601612120565b9150509250929050565b6000806040838503121561244d57600080fd5b600061245b858286016120f6565b925050602083013567ffffffffffffffff81111561247857600080fd5b61248485828601612189565b9150509250929050565b600080604083850312156124a157600080fd5b60006124af858286016120f6565b92505060206124c0858286016121b3565b9150509250929050565b6000602082840312156124dc57600080fd5b60006124ea84828501612135565b91505092915050565b60006020828403121561250557600080fd5b60006125138482850161214a565b91505092915050565b60006020828403121561252e57600080fd5b600061253c848285016121b3565b91505092915050565b6000806040838503121561255857600080fd5b6000612566858286016121b3565b9250506020612577858286016121b3565b9150509250929050565b61258a81612e35565b82525050565b61259981612e47565b82525050565b60006125aa82612cdd565b6125b48185612cf3565b93506125c4818560208601612eb8565b6125cd81613084565b840191505092915050565b60006125e382612ce8565b6125ed8185612d04565b93506125fd818560208601612eb8565b61260681613084565b840191505092915050565b600061261c82612ce8565b6126268185612d15565b9350612636818560208601612eb8565b80840191505092915050565b600061264f601a83612d04565b915061265a82613095565b602082019050919050565b6000612672603283612d04565b915061267d826130be565b604082019050919050565b6000612695602683612d04565b91506126a08261310d565b604082019050919050565b60006126b8602583612d04565b91506126c38261315c565b604082019050919050565b60006126db601c83612d04565b91506126e6826131ab565b602082019050919050565b60006126fe602483612d04565b9150612709826131d4565b604082019050919050565b6000612721601983612d04565b915061272c82613223565b602082019050919050565b6000612744602c83612d04565b915061274f8261324c565b604082019050919050565b6000612767603883612d04565b91506127728261329b565b604082019050919050565b600061278a602a83612d04565b9150612795826132ea565b604082019050919050565b60006127ad602983612d04565b91506127b882613339565b604082019050919050565b60006127d0602e83612d04565b91506127db82613388565b604082019050919050565b60006127f3602083612d04565b91506127fe826133d7565b602082019050919050565b6000612816603183612d04565b915061282182613400565b604082019050919050565b6000612839602c83612d04565b91506128448261344f565b604082019050919050565b600061285c602083612d04565b91506128678261349e565b602082019050919050565b600061287f602f83612d04565b915061288a826134c7565b604082019050919050565b60006128a2602183612d04565b91506128ad82613516565b604082019050919050565b60006128c5603183612d04565b91506128d082613565565b604082019050919050565b6128e481612e9f565b82525050565b60006128f68285612611565b91506129028284612611565b91508190509392505050565b60006020820190506129236000830184612581565b92915050565b600060808201905061293e6000830187612581565b61294b6020830186612581565b61295860408301856128db565b818103606083015261296a818461259f565b905095945050505050565b600060408201905061298a6000830185612581565b61299760208301846128db565b9392505050565b60006020820190506129b36000830184612590565b92915050565b600060208201905081810360008301526129d381846125d8565b905092915050565b600060208201905081810360008301526129f481612642565b9050919050565b60006020820190508181036000830152612a1481612665565b9050919050565b60006020820190508181036000830152612a3481612688565b9050919050565b60006020820190508181036000830152612a54816126ab565b9050919050565b60006020820190508181036000830152612a74816126ce565b9050919050565b60006020820190508181036000830152612a94816126f1565b9050919050565b60006020820190508181036000830152612ab481612714565b9050919050565b60006020820190508181036000830152612ad481612737565b9050919050565b60006020820190508181036000830152612af48161275a565b9050919050565b60006020820190508181036000830152612b148161277d565b9050919050565b60006020820190508181036000830152612b34816127a0565b9050919050565b60006020820190508181036000830152612b54816127c3565b9050919050565b60006020820190508181036000830152612b74816127e6565b9050919050565b60006020820190508181036000830152612b9481612809565b9050919050565b60006020820190508181036000830152612bb48161282c565b9050919050565b60006020820190508181036000830152612bd48161284f565b9050919050565b60006020820190508181036000830152612bf481612872565b9050919050565b60006020820190508181036000830152612c1481612895565b9050919050565b60006020820190508181036000830152612c34816128b8565b9050919050565b6000602082019050612c5060008301846128db565b92915050565b6000612c60612c71565b9050612c6c8282612f1d565b919050565b6000604051905090565b600067ffffffffffffffff821115612c9657612c95613055565b5b612c9f82613084565b9050602081019050919050565b600067ffffffffffffffff821115612cc757612cc6613055565b5b612cd082613084565b9050602081019050919050565b600081519050919050565b600081519050919050565b600082825260208201905092915050565b600082825260208201905092915050565b600081905092915050565b6000612d2b82612e9f565b9150612d3683612e9f565b9250827fffffffffffffffffffffffffffffffffffffffffffffffffffffffffffffffff03821115612d6b57612d6a612fc8565b5b828201905092915050565b6000612d8182612e9f565b9150612d8c83612e9f565b925082612d9c57612d9b612ff7565b5b828204905092915050565b6000612db282612e9f565b9150612dbd83612e9f565b9250817fffffffffffffffffffffffffffffffffffffffffffffffffffffffffffffffff0483118215151615612df657612df5612fc8565b5b828202905092915050565b6000612e0c82612e9f565b9150612e1783612e9f565b925082821015612e2a57612e29612fc8565b5b828203905092915050565b6000612e4082612e7f565b9050919050565b60008115159050919050565b60007fffffffff0000000000000000000000000000000000000000000000000000000082169050919050565b600073ffffffffffffffffffffffffffffffffffffffff82169050919050565b6000819050919050565b82818337600083830152505050565b60005b83811015612ed6578082015181840152602081019050612ebb565b83811115612ee5576000848401525b50505050565b60006002820490506001821680612f0357607f821691505b60208210811415612f1757612f16613026565b5b50919050565b612f2682613084565b810181811067ffffffffffffffff82111715612f4557612f44613055565b5b80604052505050565b6000612f5982612e9f565b91507fffffffffffffffffffffffffffffffffffffffffffffffffffffffffffffffff821415612f8c57612f8b612fc8565b5b600182019050919050565b6000612fa282612e9f565b9150612fad83612e9f565b925082612fbd57612fbc612ff7565b5b828206905092915050565b7f4e487b7100000000000000000000000000000000000000000000000000000000600052601160045260246000fd5b7f4e487b7100000000000000000000000000000000000000000000000000000000600052601260045260246000fd5b7f4e487b7100000000000000000000000000000000000000000000000000000000600052602260045260246000fd5b7f4e487b7100000000000000000000000000000000000000000000000000000000600052604160045260246000fd5b6000601f19601f8301169050919050565b7f45524332393831526f79616c746965733a20546f6f2068696768000000000000600082015250565b7f4552433732313a207472616e7366657220746f206e6f6e20455243373231526560008201527f63656976657220696d706c656d656e7465720000000000000000000000000000602082015250565b7f4f776e61626c653a206e6577206f776e657220697320746865207a65726f206160008201527f6464726573730000000000000000000000000000000000000000000000000000602082015250565b7f4552433732313a207472616e736665722066726f6d20696e636f72726563742060008201527f6f776e6572000000000000000000000000000000000000000000000000000000602082015250565b7f4552433732313a20746f6b656e20616c7265616479206d696e74656400000000600082015250565b7f4552433732313a207472616e7366657220746f20746865207a65726f2061646460008201527f7265737300000000000000000000000000000000000000000000000000000000602082015250565b7f4552433732313a20617070726f766520746f2063616c6c657200000000000000600082015250565b7f4552433732313a206f70657261746f7220717565727920666f72206e6f6e657860008201527f697374656e7420746f6b656e0000000000000000000000000000000000000000602082015250565b7f4552433732313a20617070726f76652063616c6c6572206973206e6f74206f7760008201527f6e6572206e6f7220617070726f76656420666f7220616c6c0000000000000000602082015250565b7f4552433732313a2062616c616e636520717565727920666f7220746865207a6560008201527f726f206164647265737300000000000000000000000000000000000000000000602082015250565b7f4552433732313a206f776e657220717565727920666f72206e6f6e657869737460008201527f656e7420746f6b656e0000000000000000000000000000000000000000000000602082015250565b7f45524337323155524953746f726167653a2055524920736574206f66206e6f6e60008201527f6578697374656e7420746f6b656e000000000000000000000000000000000000602082015250565b7f4552433732313a206d696e7420746f20746865207a65726f2061646472657373600082015250565b7f45524337323155524953746f726167653a2055524920717565727920666f722060008201527f6e6f6e6578697374656e7420746f6b656e000000000000000000000000000000602082015250565b7f4552433732313a20617070726f76656420717565727920666f72206e6f6e657860008201527f697374656e7420746f6b656e0000000000000000000000000000000000000000602082015250565b7f4f776e61626c653a2063616c6c6572206973206e6f7420746865206f776e6572600082015250565b7f4552433732314d657461646174613a2055524920717565727920666f72206e6f60008201527f6e6578697374656e7420746f6b656e0000000000000000000000000000000000602082015250565b7f4552433732313a20617070726f76616c20746f2063757272656e74206f776e6560008201527f7200000000000000000000000000000000000000000000000000000000000000602082015250565b7f4552433732313a207472616e736665722063616c6c6572206973206e6f74206f60008201527f776e6572206e6f7220617070726f766564000000000000000000000000000000602082015250565b6135bd81612e35565b81146135c857600080fd5b50565b6135d481612e47565b81146135df57600080fd5b50565b6135eb81612e53565b81146135f657600080fd5b50565b61360281612e9f565b811461360d57600080fd5b5056fea26469706673582212207711f33ab1b5ff268036f68c734291c1c70fa7ccf2f53ce746464b47b73d08dc64736f6c63430008010033",
  "immutableReferences": {},
  "source": "//Contract based on [https://docs.openzeppelin.com/contracts/3.x/erc721](https://docs.openzeppelin.com/contracts/3.x/erc721)\n// SPDX-License-Identifier: MIT\npragma solidity ^0.8.1;\n\nimport '@openzeppelin/contracts/token/ERC721/ERC721.sol';\nimport '@openzeppelin/contracts/utils/Counters.sol';\nimport '@openzeppelin/contracts/access/Ownable.sol';\nimport '@openzeppelin/contracts/token/ERC721/extensions/ERC721URIStorage.sol';\nimport './AnyNFT.sol';\nimport './ERC2981PerTokenRoyalties.sol';\n\ncontract AntiqueNFT is\n    AnyNFT,\n    ERC721URIStorage,\n    Ownable,\n    ERC2981PerTokenRoyalties\n{\n    using Counters for Counters.Counter;\n    Counters.Counter private _tokenIds;\n    address public marketContract;\n\n    constructor(address _marketContract) ERC721('My Antiques', 'ANTIQUE-NFT') {\n        marketContract = _marketContract;\n        AnyNFTMarket market = AnyNFTMarket(marketContract);\n        market.NFTContractDeployed(address(this));\n    }\n\n    /// @inheritdoc     ERC165\n    function supportsInterface(bytes4 interfaceId)\n        public\n        view\n        virtual\n        override(IERC165, ERC721, ERC2981Base)\n        returns (bool)\n    {\n        return super.supportsInterface(interfaceId);\n    }\n\n    function mintNFT(address recipient, string memory tokenURI)\n        public\n        override\n        returns (uint256)\n    {\n        _tokenIds.increment();\n\n        uint256 newItemId = _tokenIds.current();\n        _mint(recipient, newItemId);\n        _setTokenURI(newItemId, tokenURI);\n\n        return newItemId;\n    }\n\n    /// @notice Mint one token to `to`\n    /// @param to the recipient of the token\n    /// @param royaltyRecipient the recipient for royalties (if royaltyValue > 0)\n    /// @param royaltyValue the royalties asked for (EIP2981)\n    function mintNFTWithRoyalty(\n        address to,\n        address royaltyRecipient,\n        uint256 royaltyValue,\n        string memory tokenURI\n    ) public override returns (uint256) {\n        uint256 tokenId = mintNFT(to, tokenURI);\n\n        if (royaltyValue > 0) {\n            _setTokenRoyalty(tokenId, royaltyRecipient, royaltyValue);\n        }\n        return tokenId;\n    }\n\n    function endAuction(uint256 antiqueId) public returns (bool) {\n        address from;\n        address to;\n        uint256 tokenId;\n        address royaltyReceiver;\n        uint256 royaltyAmount;\n        AnyNFTMarket market = AnyNFTMarket(marketContract);\n        (from, to, tokenId, royaltyReceiver, royaltyAmount) = market\n            .endAntiqueAuction(antiqueId);\n        transferFrom(msg.sender, to, tokenId);\n\n        if (royaltyAmount > 0) {\n            emit RoyaltyPaid(tokenId, royaltyReceiver, royaltyAmount);\n        }\n        return true;\n    }\n\n    event RoyaltyPaid(\n        uint256 indexed tokenId,\n        address indexed royaltyReceiver,\n        uint256 indexed royaltyAmount\n    );\n}\n",
  "sourcePath": "/Users/donghao/Documents/code/inflaton/decentralized-antique-auction/smart-contracts/contracts/AntiqueNFT.sol",
  "compiler": {
    "name": "solc",
    "version": "0.8.1+commit.df193b15.Emscripten.clang"
  },
  "schemaVersion": "3.4.7",
  "updatedAt": "2022-06-12T08:39:51.908Z",
  "networkType": "ethereum",
  "devdoc": {
    "kind": "dev",
    "methods": {
      "approve(address,uint256)": {
        "details": "See {IERC721-approve}."
      },
      "balanceOf(address)": {
        "details": "See {IERC721-balanceOf}."
      },
      "getApproved(uint256)": {
        "details": "See {IERC721-getApproved}."
      },
      "isApprovedForAll(address,address)": {
        "details": "See {IERC721-isApprovedForAll}."
      },
      "mintNFTWithRoyalty(address,address,uint256,string)": {
        "params": {
          "royaltyRecipient": "the recipient for royalties (if royaltyValue > 0)",
          "royaltyValue": "the royalties asked for (EIP2981)",
          "to": "the recipient of the token"
        }
      },
      "name()": {
        "details": "See {IERC721Metadata-name}."
      },
      "owner()": {
        "details": "Returns the address of the current owner."
      },
      "ownerOf(uint256)": {
        "details": "See {IERC721-ownerOf}."
      },
      "renounceOwnership()": {
        "details": "Leaves the contract without owner. It will not be possible to call `onlyOwner` functions anymore. Can only be called by the current owner. NOTE: Renouncing ownership will leave the contract without an owner, thereby removing any functionality that is only available to the owner."
      },
      "royaltyInfo(uint256,uint256)": {
        "params": {
          "_tokenId": "- the NFT asset queried for royalty information",
          "_value": "- the sale price of the NFT asset specified by _tokenId"
        },
        "returns": {
          "receiver": "- address of who should be sent the royalty payment",
          "royaltyAmount": "- the royalty payment amount for value sale price"
        }
      },
      "safeTransferFrom(address,address,uint256)": {
        "details": "See {IERC721-safeTransferFrom}."
      },
      "safeTransferFrom(address,address,uint256,bytes)": {
        "details": "See {IERC721-safeTransferFrom}."
      },
      "setApprovalForAll(address,bool)": {
        "details": "See {IERC721-setApprovalForAll}."
      },
      "supportsInterface(bytes4)": {
        "details": "See {IERC165-supportsInterface}."
      },
      "symbol()": {
        "details": "See {IERC721Metadata-symbol}."
      },
      "tokenURI(uint256)": {
        "details": "See {IERC721Metadata-tokenURI}."
      },
      "transferFrom(address,address,uint256)": {
        "details": "See {IERC721-transferFrom}."
      },
      "transferOwnership(address)": {
        "details": "Transfers ownership of the contract to a new account (`newOwner`). Can only be called by the current owner."
      }
    },
    "version": 1
  },
  "userdoc": {
    "kind": "user",
    "methods": {
      "mintNFTWithRoyalty(address,address,uint256,string)": {
        "notice": "Mint one token to `to`"
      }
    },
    "version": 1
  }
}